S0100000776F726B61626C652E73726563BD
S11300000C94B9000C94D6000C94D6000C94D60031
S11300100C94D6000C94D6000C94D6000C94D60004
S11300200C94D6000C94D90B0C94D6000C94D600E6
S11300300C94D6000C94D6000C94D6000C94D600E4
S11300400C94D6000C94D6000C94D6000C94D600D4
S11300500C94D6000C94D6000C94D6000C94D600C4
S11300600C94D6000C94D600C506E30601071F07BE
S11300703D07DB0736085A0800407A10F35A00A0FF
S1130080724E18090010A5D4E80000E8764817005D
S113009000E40B54020000CA9A3B000000E1F5059D
S11300A0000080969800000040420F000000A086E7
S11300B001000000102700000000E8030000000019
S11300C06400000000000A000000000001000000BD
S11300D000002C76D888DC674F0823DFC1DFAE59D7
S11300E0E1B1B796E5E3E453C63AE651997696E86A
S11300F0E6C28426EB898C9B62ED407C6FFCEFBCEE
S11301009C9F40F2BAA56FA5F490055A2AF75C9318
S11301106B6CF9676DC11BFCE0E40D47FEF520E64E
S1130120B500D0ED902E0300943577050080841E31
S1130130080000204E0A000000C80C333333330F8C
S1130140986E12831141EF8D2114893BE65516CF29
S1130150FEE6DB18D1844B381BF77C1D901DA4BB35
S1130160E424203284725E228100C9F124ECA1E5EA
S11301703D2711241FBECFEFD8E0DEBFCDBF14E072
S1130180A0E0B1E0EEE2FEE202C005900D92AA36D4
S1130190B107D9F724E0AAE6B4E001C01D92A23D5C
S11301A0B207E1F70E94F90B0C9415170C940000A8
S11301B0AF92BF92CF92DF92EF92FF920F931F9371
S11301C0CF93DF93CDB7DEB768970FB6F894DEBF51
S11301D00FBECDBFD82EC92EB62EA72ECA01B90187
S11301E0202F8E010F5F1F4F40E00E945D10E1142D
S11301F0F104C1F0F70180818823A1F0FF92EF920E
S11302001F930F938EE691E09F938F93AF92BF92CB
S1130210CF92DF920E94EB110FB6F894DEBF0FBEAF
S1130220CDBF13C0CE0101969F938F9381E791E0D8
S11302309F938F93AF92BF92CF92DF920E94EB1164
S11302400FB6F894DEBF0FBECDBF68960FB6F89414
S1130250DEBF0FBECDBFDF91CF911F910F91FF90F5
S1130260EF90DF90CF90BF90AF9008952FEF3FEFC6
S1130270FC01358B248B378B268B0895FC01248954
S1130280358981E02F3F3F4F09F080E090E00895E9
S1130290FC018689978901966AE070E00E942F101C
S11302A0AC012489358981E04217530709F080E0C5
S11302B090E008950F931F93CF93DF93EC01062FE3
S11302C0172F0E944801892B29F18C899D89019659
S11302D02AE030E0B9010E942F109D8B8C8B8E890F
S11302E09F890196B9010E942F109F8B8E8B880FD6
S11302F0991FC80FD91F088319831F930F9384E88C
S113030091E09F938F930E94A5110F900F900F90EF
S11303100F901BC0CE010E943E01892B39F01D8A2B
S11303201C8A1F8A1E8A088319830FC08E899F899D
S113033001966AE070E00E942F109F8B8E8B880FCD
S1130340991FC80FD91F08831983DF91CF911F917B
S11303500F9108950F931F93CF93DF93EC018B01BB
S11303600E943E01009761F4EC89FD89EE0FFF1FA6
S1130370EC0FFD1F20813181F8013183208302C0FD
S11303808FEF9FEFDF91CF911F910F9108950F93FE
S11303901F93CF93DF93EC018B010E943E010097E2
S11303A061F4EE89FF89EE0FFF1FEC0FFD1F208122
S11303B03181F8013183208302C08FEF9FEFDF91F9
S11303C0CF911F910F910895CF93DF93EC010E9479
S11303D03E01892B99F48E899F894C895D89841704
S11303E0950724F0841B950B01960AC02AE030E09F
S11303F0241B350B820F931F019602C080E090E00E
S1130400DF91CF9108952FEF3FEFFC01358B248BC3
S1130410378B268B20E030E009C0F901EE0FFF1F77
S1130420E80FF91F118210822F5F3F4F2A303105E8
S1130430A4F30895FC012489358981E02F3F3F4FBF
S113044009F080E090E00895FC018689978901967F
S11304506AE070E00E942F10AC012489358981E0A4
S11304604217530709F080E090E00895EF92FF925D
S11304700F931F93CF93DF936115710509F45BC04C
S11304808B01EC01FB0101900020E9F73197CF01CA
S1130490861B970B01960E947D107C01009729F41E
S11304A082EC91E00E94BB1146C0B8010E949E11EB
S11304B0CE010E942402892B19F1EC89FD89EE0FEB
S11304C0FF1FEC0FFD1F808191810E9415118C8903
S11304D09D8901962AE030E0B9010E942F109D8B7E
S11304E08C8B8E899F890196B9010E942F109F8B56
S11304F08E8B880F991FC80FD91FF982E8821BC001
S1130500CE010E941A02892B39F01D8A1C8A1F8A87
S11305101E8AF982E8820FC08E899F8901966AE05B
S113052070E00E942F109F8B8E8B880F991FC80F2D
S1130530D91FF982E882DF91CF911F910F91FF902B
S1130540EF9008950F931F93CF93DF93EC018B01EA
S11305500E941A02009761F4EC89FD89EE0FFF1FD7
S1130560EC0FFD1F20813181F8013183208302C00B
S11305708FEF9FEFDF91CF911F910F91089587B176
S1130580846087B988B18B7F88B91092B00087E006
S11305908093B10081E0809370007894089587B1CE
S11305A0826087B988B18D7F88B9089588B18D7FBD
S11305B088B9089588B1826088B9089585B1826048
S11305C085B985E08A95F1F7000085B18D7F85B9FD
S11305D08FE891E00197F1F700C0000008959BB106
S11305E09F709BB980FF03C09BB190619BB981FF51
S11305F003C09BB190629BB982FF03C09BB190641E
S11306009BB983FF03C08BB180688BB90E94DE0263
S11306100895CF93C82F85B18E7F85B98C2F82958D
S11306208F700E94EF028C2F8F700E94EF02CF9187
S11306300895CF93C82F85B1816085B98C2F829599
S11306408F700E94EF028C2F8F700E94EF02CF9167
S113065008950F931F93CF938B01877090E0880FB9
S1130660991F880F991F880F991F80640E9409039E
S1130670C0E007C0F801EC0FF11D80810E9419034E
S1130680CF5FC830B8F380E80E940903CF911F916F
S11306900F910895CF93DF93CDB7DEB7A0970FB630
S11306A0F894DEBF0FBECDBF84B1836084B98AB134
S11306B0806F8AB92FEF89EF90E0215080409040FD
S11306C0E1F700C0000083E00E94EF028FE19EE4A6
S11306D00197F1F700C0000083E00E94EF0287E574
S11306E092E00197F1F700C0000083E00E94EF025E
S11306F082E00E94EF0288E20E9409038CE00E94DB
S1130700090386E00E94090381E00E9409038FE344
S11307109FE10197F1F700C0000088E0EEE4F1E00A
S1130720DE01119601900D928A95E1F788E0E6E5E5
S1130730F1E0DE01199601900D928A95E1F788E0C7
S1130740EEE5F1E0DE01519601900D928A95E1F714
S113075088E0E6E6F1E0DE01599601900D928A9573
S1130760E1F7BE016F5F7F4F80E00E942903BE0165
S1130770675F7F4F81E00E942903BE01675E7F4F60
S113078082E00E942903BE016F5E7F4F83E00E94D6
S11307902903A0960FB6F894DEBF0FBECDBFDF913C
S11307A0CF91089587B1816087B988B18E7F88B968
S11307B08FE797E00197F1F700C0000087B18E7FC3
S11307C087B9EFEEF0E03197F1F700C0000096B181
S11307D081E089278170EFE8F6E03197F1F700C0F6
S11307E00000089597B1916097B998B19E7F98B928
S11307F0882371F085E08A95F1F7000087B18E7F38
S113080087B98FEE90E00197F1F700C000000895DA
S11308108FEE90E00197F1F700C0000087B18E7F62
S113082087B90895CF93DF93D82FC0E006C08D2FEA
S113083081700E94F203D695CF5FC830C0F3DF9178
S1130840CF91089587B1816087B988B18E7F88B9C7
S11308508AE08A95F1F700C087B18E7F87B9E5E316
S1130860EA95F1F7000086B18170E7ECF0E031978A
S1130870F1F700C000000895CF93DF93C0E0D0E00B
S113088006C0D6950E9422048111D068CF5FC8307B
S1130890C0F38D2FDF91CF910895CF930E94D2039F
S11308A08CEC0E94120484E40E9412042FEF8EE95F
S11308B094E2215080409040E1F700C000000E9483
S11308C0D2038CEC0E9412048EEB0E9412040E944C
S11308D03C04C82F0E943C04682F70E0762F6627E2
S11308E06C2B072E000C880B990B0E940D0F20E037
S11308F030E040E85DE30E94C20FCF9108958AB1D1
S113090084608AB98AB1877F8AB908958BB18B7F55
S11309108BB98AE08A95F1F700C08BB184608BB9FA
S113092085E38A95F1F700008BB18B7F8BB908952D
S11309304B9BFECF60E070E0CB0108C025E02A9518
S1130940F1F700006F5F7F4F8F4F9F4F4B99F6CFAA
S11309500E940B0F20E030E048E652E40E94630E50
S11309600E94DC0ECB0108950E9486040E94980424
S1130970089584B1837C84B985B18C6385B9089565
S11309801A9B08C01B9B08C01C9B08C01D9908C06B
S113099084E0089581E0089582E0089583E0089555
S11309A085E008950F931F93CF93DF93CDB7DEB700
S11309B06C970FB6F894DEBF0FBECDBFDB01EFE33B
S11309C0FFE13197F1F700C0000020E030E00AC0F9
S11309D00196E1E0F0E0EC0FFD1FE20FF31F40830E
S11309E02F5F3F4F2C3031057CF4FC0140814111D5
S11309F0EFCF0AC0E1E0F0E0EC0FFD1FE20FF31FC0
S1130A0080E280832F5F3F4F2C3031059CF380E0E0
S1130A1090E009C01196EDE0F0E0EC0FFD1FE80F47
S1130A20F91F20830196803191056CF42C912111DA
S1130A30F1CF09C0EDE0F0E0EC0FFD1FE80FF91F66
S1130A4020E22083019680319105A4F380E80E947E
S1130A50090300E010E00BC0E1E0F0E0EC0FFD1F43
S1130A60E00FF11F80810E9419030F5F1F4F0C30AC
S1130A70110594F382E00E94190380E00E94190397
S1130A8081E00E94190383E00E94190380EC0E9414
S1130A90090300E010E00BC0EDE0F0E0EC0FFD1FF7
S1130AA0E00FF11F80810E9419030F5F1F4F003177
S1130AB0110594F36C960FB6F894DEBF0FBECDBF4C
S1130AC0DF91CF911F910F910895CF92DF92EF9212
S1130AD0FF92BC01990F880B990B0E940D0F9B018B
S1130AE0AC016AE979E989E791E40E94F10D20ED0E
S1130AF03FE049E453E40E94C20F20E030E04AE7BB
S1130B0054E40E94630E6B017C0120E030E0A901F3
S1130B100E945E0E88231CF4C12CD12C7601C701DF
S1130B20B601FF90EF90DF90CF9008950E94B40437
S1130B30BC0180E090E00E940B0F20E030E040EC2C
S1130B405FE30E94C20F0E94DC0ECB010E94650588
S1130B5008958F929F92AF92BF92CF92DF92EF92BD
S1130B60FF92CF93DF9300D000D0CDB7DEB7BE01A4
S1130B706F5F7F4F88E994E00E94C701BE016D5FFB
S1130B807F4F88E994E00E94AA0169817A81072E47
S1130B90000C880B990B0E940D0F20E030E040EC14
S1130BA05FE30E94C20F0E94D50ECB010E9465052F
S1130BB04B015C016B817C81072E000C880B990B27
S1130BC00E940D0F20E030E040EC5FE30E94C20F72
S1130BD00E94D50ECB010E9465056B017C019B012F
S1130BE0AC01C501B4010E94BD0F18169CF0A5010B
S1130BF09401C701B6010E94F10D20E030E040E00D
S1130C005FE30E94C20F20E030E040E752E40E941C
S1130C10C20F03C060E070E0CB010F900F900F9003
S1130C200F90DF91CF91FF90EF90DF90CF90BF9026
S1130C30AF909F908F9008958F929F92AF92BF92A2
S1130C40CF92DF92EF92FF92CF93DF9300D000D048
S1130C50CDB7DEB7BE016F5F7F4F88E994E00E9495
S1130C60C701BE016D5F7F4F88E994E00E94AA012D
S1130C7069817A81072E000C880B990B0E940D0F55
S1130C8020E030E040EC5FE30E94C20F0E94D50EEA
S1130C90CB010E9465056B017C016B817C81072E71
S1130CA0000C880B990B0E940D0F20E030E040EC03
S1130CB05FE30E94C20F0E94D50ECB010E9465051E
S1130CC04B015C019B01AC01C701B6010E945E0EA1
S1130CD08823FCF0A5019401C701B6010E94F10D1F
S1130CE06B017C0188E994E00E94E401BC01990F46
S1130CF0880B990B0E940D0F9B01AC01C701B60133
S1130D000E94630E20E030E040E752E40E94C20FEC
S1130D1003C060E070E0CB010F900F900F900F9034
S1130D20DF91CF91FF90EF90DF90CF90BF90AF9085
S1130D309F908F9008950E944D040895EF92FF9222
S1130D400F93CF93DF9300D0CDB7DEB7E0912601A8
S1130D50F0912701EF3F2FEFF20779F4E09184043B
S1130D60F0918504EE0FFF1FE25CFE4F60817181FC
S1130D708DEE91E00E94D2046FC2E830F10508F0D4
S1130D8065C2EC5CFF4F0C94431067EF71E082E0A6
S1130D9092E00E94D2040E9496059B01AC010F2EA2
S1130DA0F2E6EF2EF3E0FF2EF02D01E060E170E0BB
S1130DB088E894E00E94D80068E874E082E092E059
S1130DC00E94D20449C267EF71E080E192E00E9480
S1130DD0D2040E94A9059B01AC010F2EFCE1EF2E69
S1130DE0F2E0FF2EF02D01E060E170E088E894E08D
S1130DF00E94D80068E874E080E192E00E94D20486
S1130E002BC267EF71E08AE292E00E94D2040E9452
S1130E101C069B01AC010F2EF7E3EF2EF2E0FF2E30
S1130E20F02D01E060E170E088E894E00E94D800D1
S1130E3068E874E08AE292E00E94D2040DC267EF8F
S1130E4071E084E492E00E94D2040E949B069B011C
S1130E50AC010F2EF1E8EF2EF3E0FF2EF02D01E0B0
S1130E6060E170E088E894E00E94D80068E874E0EB
S1130E7084E492E00E94D204EFC180912001909119
S1130E802101019679F4E0917C04F0917D04EE0F48
S1130E90FF1FEA5CFE4F6081718185E592E00E944C
S1130EA0D204DAC180917C0490917D048130910553
S1130EB039F11CF4892B41F077C082309105E1F1BE
S1130EC0039709F455C070C02091780430917904D7
S1130ED040917A0450917B040F2EF2E6EF2EF3E05A
S1130EE0FF2EF02D01E060E170E088E894E00E94BC
S1130EF0D80068E874E087E092E00E94D204ACC1B4
S1130F0020917404309175044091760450917704D3
S1130F100F2EF7E3EF2EF2E0FF2EF02D01E060E15B
S1130F2070E088E894E00E94D80068E874E080E10A
S1130F3092E00E94D20490C1209170043091710417
S1130F4040917204509173040F2EF7E3EF2EF2E0F8
S1130F50FF2EF02D01E060E170E088E894E00E944B
S1130F60D80068E874E08FE592E00E94D20474C16E
S1130F7020916C0430916D0440916E0450916F0483
S1130F800F2EF1E8EF2EF3E0FF2EF02D01E060E1EB
S1130F9070E088E894E00E94D80068E874E089E68C
S1130FA092E00E94D20458C163E772E085E892E0BF
S1130FB00E94D20451C180912401909125018F3F58
S1130FC02FEF920779F4E0918204F0918304EE0FFD
S1130FD0FF1FEE5CFE4F6081718183E093E00E940D
S1130FE0D2043AC1009719F00197E9F038C0209172
S1130FF01C0130911D0140911E0150911F010F2EC3
S1131000F2E6EF2EF3E0FF2EF02D01E060E170E058
S113101088E894E00E94D80068E874E08BE892E0E5
S11310200E94D20419C120911801309119014091F4
S11310301A0150911B010F2EF1E8EF2EF3E0FF2E61
S1131040F02D02E060E170E088E894E00E94D800AE
S113105068E874E088E992E00E94D204FDC061EA85
S113106072E085E892E00E94D204F6C01A821982E6
S113107080EB94E00E941A02892BA9F4BE016F5FF1
S11310807F4F80EB94E00E94A202892B09F0E4C018
S113109069817A816115710509F4DEC081EB92E002
S11310A00E94D204D9C06AEB72E081EB92E00E9404
S11310B0D204D2C080912201909123018F3F2FEF5F
S11310C0920779F4E0918004F0918104EE0FFF1F00
S11310D0E85DFE4F6081718186EC92E00E94D2044B
S11310E0BBC08230910509F446C02CF4009759F036
S11310F0019729F1A4C08330910509F458C00497DD
S113110009F479C09CC020911401309115014091DB
S11311101601509117010F2EFDECEF2EF2E0FF2E79
S1131120F02D01E060E170E088E894E00E94D800CE
S113113068E874E083ED92E00E94D2048DC02091AF
S11311400C0130910D0140910E0150910F010F2EB1
S1131150F2E6EF2EF3E0FF2EF02D01E060E170E007
S113116088E894E00E94D80068E874E08DED92E08D
S11311700E94D20471C0209108013091090140916C
S11311800A0150910B010F2EF1E8EF2EF3E0FF2E30
S1131190F02D01E060E170E088E894E00E94D8005E
S11311A068E874E08CEE92E00E94D20455C080910D
S11311B00701882319F08CED91E002C084EE91E0E0
S11311C09F938F9381E791E09F938F931F9280E188
S11311D08F9388E894E09F938F930E94EB1168E8C3
S11311E074E08CEF92E00E94D2040FB6F894DEBF54
S11311F00FBECDBF31C080910601882319F08CED5C
S113120091E002C084EE91E09F938F9381E791E097
S11312109F938F931F9280E18F9388E894E09F932C
S11312208F930E94EB1168E874E08CE093E00E94D5
S1131230D2040FB6F894DEBF0FBECDBF0DC06AE175
S113124073E085E892E00E94D20406C069E273E08C
S113125085E892E00E94D2040F900F90DF91CF9125
S11312600F91FF90EF9008958130A9F580912601A8
S113127090912701019609F49BC2809124019091D9
S11312802501019639F08FEF9FEF9093250180930C
S1131290240108958091220190912301019639F04F
S11312A08FEF9FEF90932301809322010895809103
S11312B0200190912101019639F08FEF9FEF9093D7
S11312C021018093200108958FEF9FEF90932701D0
S11312D0809326010895823009F00EC18091260181
S11312E0909127018F3F2FEF920771F4809184042E
S11312F0909185048730910508F05AC20196909325
S113130085048093840408958430910571F4809158
S11313107C0490917D048330910508F049C20196C4
S113132090937D0480937C0408958530910509F0A1
S113133050C080912401909125018F3F2FEF920797
S113134069F48091820490918304009709F030C27B
S1131350019690938304809382040895009719F072
S11313600197E1F008952091140130911501409105
S113137016015091170160911C0170911D0180911B
S11313801E0190911F010E94F10D60931C01709346
S11313901D0180931E0190931F0108952091140153
S11313A03091150140911601509117016091180177
S11313B07091190180911A0190911B010E94F10D05
S11313C0609318017093190180931A0190931B0183
S11313D008958630910571F480917E0490917F0484
S11313E0833091050CF0E4C1019690937F048093BF
S11313F07E040895079709F0DBC180912201909142
S113140023018F3F2FEF920771F480918004909114
S113141081048430910508F0CBC101969093810436
S11314208093800408958230910509F444C02CF41B
S1131430009759F0019721F108958330910509F43B
S113144055C0049709F455C00895209110013091B6
S11314501101409112015091130160911401709196
S1131460150180911601909117010E94F10D60936E
S11314701401709315018093160190931701089538
S113148020911401309115014091160150911701DA
S113149060910C0170910D0180910E0190910F01EA
S11314A00E94F10D60930C0170930D0180930E0165
S11314B090930F01089520911401309115014091EA
S11314C016015091170160910801709109018091F2
S11314D00A0190910B010E94F10D60930801709331
S11314E0090180930A0190930B010895109207015A
S11314F00895109206010895833009F011C1809176
S11315002601909127018F3F2FEF920771F480916C
S1131510840490918504181619060CF049C10197AA
S1131520909385048093840408958430910571F424
S113153080917C0490917D04181619060CF038C132
S1131540019790937D0480937C04089585309105E0
S113155009F051C080912401909125018F3F2FEF14
S1131560920771F4809182049091830418161906ED
S11315700CF01EC101979093830480938204089514
S1131580009719F00197E1F008952091140130912A
S11315901501409116015091170160911C01709141
S11315A01D0180911E0190911F010E94F20D609314
S11315B01C0170931D0180931E0190931F010895D7
S11315C02091140130911501409116015091170199
S11315D0609118017091190180911A0190911B0179
S11315E00E94F20D609318017093190180931A01FF
S11315F090931B0108958630910571F480917E04C7
S113160090917F04181619060CF0D2C0019790939C
S11316107F0480937E040895079709F0C9C08091E0
S11316202201909123018F3F2FEF920771F4809153
S1131630800490918104181619060CF0B9C0019722
S1131640909381048093800408958230910509F475
S113165044C02CF4009759F0019721F10895833088
S1131660910509F455C0049709F456C008952091D2
S113167010013091110140911201509113016091B8
S113168014017091150180911601909117010E9427
S1131690F20D6093140170931501809316019093D9
S11316A017010895209114013091150140911601FC
S11316B05091170160910C0170910D0180910E0100
S11316C090910F010E94F20D60930C0170930D0133
S11316D080930E0190930F0108952091140130918D
S11316E01501409116015091170160910801709104
S11316F0090180910A0190910B010E94F20D6093FF
S113170008017093090180930A0190930B010895D5
S113171081E080930701089581E080930601089594
S1131720843009F045C080912601909127018F3FB4
S11317302FEF920749F4809184049091850490934B
S113174027018093260108958430910579F48091CE
S1131750200190912101019659F580917C0490918A
S11317607D04909321018093200108958530910593
S113177079F480912401909125010196C9F4809116
S11317808204909183049093250180932401089509
S1131790079771F48091220190912301019641F4FD
S11317A0809180049091810490932301809322017D
S11317B008951F920F920FB60F9211248F939F9347
S11317C0809187048F5F8093870480918704883F8A
S11317D048F01092870481E08093860498B184E0F5
S11317E0892788B99F918F910F900FBE0F901F90FA
S11317F01895CF93DF93CDB7DEB7C054D1090FB698
S1131800F894DEBF0FBECDBF88E994E00E94360194
S113181080EB94E00E9403020E944A030E947F042A
S11318200E94B9040E94CF020E94BF020E94B40425
S1131830BC0188E994E00E945A010E949E068091AE
S11318406A048823F9F01A82198210926A04BE018C
S11318506F5F7F4F80EB94E00E94A20269817A81DE
S11318606115710511F466E373E083E493E00E946B
S1131870D2042FEF83ED90E3215080409040E1F7B4
S113188000C0000080918604882309F486C1109268
S113189086040E94B4048C01BC0188E994E00E948F
S11318A05A01B801110F880B990B0E940D0F20E00B
S11318B030E040EC5FE30E94C20F0E94D50ECB01E2
S11318C00E946505D62EC72EB82EA92E0E949B060F
S11318D0162F072FF82EE92E80910701882309F48B
S11318E05CC120911C0130911D0140911E01509159
S11318F01F016D2D7C2D8B2D9A2D0E945E0E1816C6
S1131900FCF0AF92BF92CF92DF9289E493E09F9371
S11319108F931F9280E48F93CE0101966C019F9365
S11319208F930E94EB11B60180EB94E00E94360283
S113193081E080936A040FB6F894DEBF0FBECDBF7A
S1131940209118013091190140911A0150911B0105
S1131950612F702F8F2D9E2D0E94BD0F88230CF4B4
S11319601CC1EF92FF920F931F9387E693E09F931E
S11319708F931F9280E48F938E010F5F1F4F1F93ED
S11319800F930E94EB11B80180EB94E00E943602A1
S113199081E080936A040FB6F894DEBF0FBECDBF1A
S11319A0FCC080917C0490917D048130910509F400
S11319B040C01CF4892B49F0D7C08230910509F44A
S11319C06CC0039709F49DC0CFC080916B04811152
S11319D014C069E873E087E092E00E94D20481E0D9
S11319E080936B040E949605609378047093790445
S11319F080937A0490937B04B7C02091780430914B
S1131A00790440917A0450917B040F2EF2E6EF2E74
S1131A10F3E0FF2EF02D01E060E170E088E894E04F
S1131A200E94D80068E874E087E092E00E94D20443
S1131A309BC080916B04811114C069E873E080E15C
S1131A4092E00E94D20481E080936B040E94A90575
S1131A506093740470937504809376049093770470
S1131A6083C02091740430917504409176045091A0
S1131A7077040F2EF7E3EF2EF2E0FF2EF02D01E0B6
S1131A8060E170E088E894E00E94D80068E874E0BF
S1131A9080E192E00E94D20467C080916B048111BE
S1131AA014C069E873E08FE592E00E94D20481E0FB
S1131AB080936B040E941C066093700470937104FD
S1131AC080937204909373044FC0209170043091FA
S1131AD0710440917204509173040F2EF7E3EF2EBA
S1131AE0F2E0FF2EF02D01E060E170E088E894E080
S1131AF00E94D80068E874E08FE592E00E94D20466
S1131B0033C080916B04811114C069E873E089E6E5
S1131B1092E00E94D20481E080936B040E949B06B1
S1131B2060936C0470936D0480936E0490936F04BF
S1131B301BC020916C0430916D0440916E0450914F
S1131B406F040F2EF1E8EF2EF3E0FF2EF02D01E0ED
S1131B5060E170E088E894E00E94D80068E874E0EE
S1131B6089E692E00E94D2040E94C004182F8530B6
S1131B7009F417CF10926B04813041F48FEF9FEF7B
S1131B80909327018093260115E014C00E94340924
S1131B900E94C0048530E1F701C015E08091260160
S1131BA090912701049731F48091200190912101B3
S1131BB00196D1F6153049F40E94DA020E94C0045D
S1131BC0182F8530D9F30E94D6020E94C00418133E
S1131BD034CE812F0E9434090E94C0048530E1F77D
S1131BE02CCE5058BB27AA270E94090E0C94830FB1
S1131BF00E94750F38F00E947C0F20F039F49F3F4B
S1131C0019F426F40C94720F0EF4E095E7FB0C948F
S1131C106C0FE92F0E94940F58F3BA1762077307E9
S1131C208407950720F079F4A6F50C94B60F0EF40A
S1131C30E0950B2EBA2FA02D0B01B90190010C01D8
S1131C40CA01A0011124FF27591B99F0593F50F4F0
S1131C50503E68F11A16F040A22F232F342F442748
S1131C60585FF3CF469537952795A795F040539540
S1131C70C9F77EF41F16BA0B620B730B840BBAF010
S1131C809150A1F0FF0FBB1F661F771F881FC2F77B
S1131C900EC0BA0F621F731F841F48F4879577958F
S1131CA06795B795F7959E3F08F0B0CF9395880F49
S1131CB008F09927EE0F9795879508950E94480F8D
S1131CC008F481E008950E94770E0C94830F0E941B
S1131CD07C0F58F00E94750F40F029F45F3F29F003
S1131CE00C946C0F51110C94B70F0C94720F0E944A
S1131CF0940F68F39923B1F3552391F3951B550B76
S1131D00BB27AA2762177307840738F09F5F5F4FCA
S1131D10220F331F441FAA1FA9F335D00E2E3AF009
S1131D20E0E832D091505040E695001CCAF72BD021
S1131D30FE2F29D0660F771F881FBB1F2617370772
S1131D404807AB07B0E809F0BB0B802DBF01FF27A4
S1131D5093585F4F3AF09E3F510578F00C946C0F06
S1131D600C94B70F5F3FE4F3983ED4F386957795D0
S1131D706795B795F7959F5FC9F7880F911D96955D
S1131D80879597F90895E1E0660F771F881FBB1FB9
S1131D90621773078407BA0720F0621B730B840B66
S1131DA0BA0BEE1F88F7E09508950E94DC0E689444
S1131DB0B1110C94B70F08950E949C0F88F09F579F
S1131DC098F0B92F9927B751B0F0E1F0660F771F5B
S1131DD0881F991F1AF0BA95C9F714C0B13091F051
S1131DE00E94B60FB1E008950C94B60F672F782FB8
S1131DF08827B85F39F0B93FCCF386957795679516
S1131E00B395D9F73EF490958095709561957F4F81
S1131E108F4F9F4F0895E89409C097FB3EF4909527
S1131E208095709561957F4F8F4F9F4F9923A9F0AF
S1131E30F92F96E9BB279395F6958795779567953E
S1131E40B795F111F8CFFAF4BB0F11F460FF1BC082
S1131E506F5F7F4F8F4F9F4F16C0882311F096E915
S1131E6011C0772321F09EE8872F762F05C06623C3
S1131E7071F096E8862F70E060E02AF09A95660F7C
S1131E80771F881FDAF7880F9695879597F9089535
S1131E90990F0008550FAA0BE0E8FEEF1616170677
S1131EA0E807F907C0F012161306E407F50798F0DF
S1131EB0621B730B840B950B39F40A2661F0232BF8
S1131EC0242B252B21F408950A2609F4A140A69574
S1131ED08FEF811D811D089597F99F6780E870E059
S1131EE060E008959FEF80EC089500240A9416168C
S1131EF0170618060906089500240A9412161306F4
S1131F00140605060895092E0394000C11F4882381
S1131F1052F0BB0F40F4BF2B11F460FF04C06F5F9D
S1131F207F4F8F4F9F4F089557FD9058440F551F73
S1131F3059F05F3F71F04795880F97FB991F61F047
S1131F409F3F79F087950895121613061406551FBE
S1131F50F2CF4695F1DF08C0161617061806991F2A
S1131F60F1CF86957105610508940895E894BB271F
S1131F7066277727CB0197F908950E94480F08F444
S1131F808FEF08950E94D50F0C94830F0E94750F54
S1131F9038F00E947C0F20F0952311F00C946C0F04
S1131FA00C94720F11240C94B70F0E94940F70F3C9
S1131FB0959FC1F3950F50E0551F629FF001729FEA
S1131FC0BB27F00DB11D639FAA27F00DB11DAA1FF9
S1131FD0649F6627B00DA11D661F829F2227B00D46
S1131FE0A11D621F739FB00DA11D621F839FA00DD1
S1131FF0611D221F749F3327A00D611D231F849F21
S1132000600D211D822F762F6A2F11249F57504077
S11320109AF0F1F088234AF0EE0FFF1FBB1F661FF2
S1132020771F881F91505040A9F79E3F510580F0BB
S11320300C946C0F0C94B70F5F3FE4F3983ED4F309
S1132040869577956795B795F795E7959F5FC1F75F
S1132050FE2B880F911D9695879597F9089597FB08
S1132060072E16F4009407D077FD09D00E9449107A
S113207007FC05D03EF4909581959F4F0895709587
S113208061957F4F0895EE0FFF1F0590F491E02DA9
S11320900994AA1BBB1B51E107C0AA1FBB1FA617AB
S11320A0B70710F0A61BB70B881F991F5A95A9F7FD
S11320B080959095BC01CD010895EF920F931F93E5
S11320C0CF93DF93E80147FD02C034E001C034E15F
S11320D0042E000C550B57FF03C05195419551092F
S11320E0E32E022F242FAE010E94FC13CE01DF91B8
S11320F0CF911F910F91EF9008950F931F93CF935A
S1132100DF938230910510F482E090E0E091CA04FC
S1132110F091CB0420E030E0A0E0B0E0309719F17A
S1132120408151810281138148175907C8F08417EF
S1132130950769F4109731F012960C931297139641
S11321401C9327C00093CA041093CB0422C021150A
S1132150310519F04217530718F49A01BD01EF0134
S1132160DF01F801DBCF21153105F9F0281B390B0C
S11321702430310580F48A819B816115710521F039
S1132180FB019383828304C09093CB048093CA049D
S1132190FE01329644C0FE01E20FF31F8193919336
S11321A022503109398328833AC02091C8043091E0
S11321B0C904232B41F4209102013091030130938F
S11321C0C9042093C8042091000130910101211514
S11321D0310541F42DB73EB74091040150910501FA
S11321E0241B350BE091C804F091C904E217F307EE
S11321F0A0F42E1B3F0B2817390778F0AC014E5F73
S11322005F4F2417350748F04E0F5F1F5093C904E2
S11322104093C8048193919302C0E0E0F0E0CF01C1
S1132220DF91CF911F910F910895CF93DF93009782
S113223009F481C0FC01329713821282A091CA046E
S1132240B091CB04109781F420813181820F931FC8
S11322502091C8043091C9042817390751F5F09327
S1132260C904E093C80467C0ED0120E030E0CE1754
S1132270DF0740F44A815B819E0141155105F1F06D
S1132280EA01F5CFD383C28340815181840F951F26
S1132290C817D90759F488819981840F951F02962C
S11322A0918380838A819B81938382832115310565
S11322B029F4F093CB04E093CA043DC0E901FB8305
S11322C0EA8349915991C40FD51FEC17FD0761F4B6
S11322D080819181840F951F0296E90199838883F7
S11322E0828193819B838A83E0E0F0E012968D9152
S11322F09C911397009719F0FD01DC01F7CF8D91A4
S11323009C9111979D012E5F3F4F820F931F209147
S1132310C8043091C9042817390769F4309729F49F
S11323201092CB041092CA0402C013821282B0939A
S1132330C904A093C804DF91CF910895FB01DC0187
S113234001900D920020E1F70895A0E0B0E0EBEADF
S1132350F1E10C94EE16AE014B5F5F4FFA0161910F
S11323607191AF018091CE049091CF040E941B1211
S1132370E2E00C940A170F931F93CF93DF93E0913D
S1132380CE04F091CF04238121FF1BC08C01D0E047
S1132390C0E0F80181918F016091CE047091CF0467
S11323A0DB011896ED91FC911997882331F009957A
S11323B0892B79F3DFEFCFEFECCF8AE00995892BF6
S11323C019F08FEF9FEF02C08D2F9C2FDF91CF91DB
S11323D01F910F910895AEE0B0E0E1EFF1E10C94AC
S11323E0EC160D891E898F89988D26E02C831A831B
S11323F0098397FF02C080E090E801979E838D8354
S1132400AE01455E5F4F698D7A8DCE0101960E94C3
S11324101B124D815E8157FD0AC02F8138854217FA
S113242053070CF49A01F801E20FF31F10822E9661
S1132430E4E00C940817ABE0B0E0E1E2F2E10C94C4
S1132440DE166C017B018A01FC01178216828381EE
S113245081FFCCC1CE0101963C01F6019381F701C5
S113246093FD859193FF81917F01882309F4BAC17B
S1132470853239F493FD859193FF81917F018532F3
S113248029F4B60190E00E944416E7CF912C212C48
S1132490312CFFE1F315D8F08B3279F038F4803227
S11324A079F08332A1F4232D20611DC08D3261F0B7
S11324B0803369F4232D216016C0832D8260382E69
S11324C0E32DE4603E2E2AC0F32DF8601DC037FCD6
S11324D02DC020ED280F2A3040F08E32B9F436FC9E
S11324E081C1232D2064322E19C036FE06C08AE035
S11324F0989E200D1124922E11C0EAE02E9E200DEC
S11325001124222EF32DF0623F2E08C08C3621F4C4
S1132510832D8068382E02C0883641F4F70193FD7C
S1132520859193FF81917F018111B3CF982F9F7D76
S11325309554933028F40C5F1F4F9FE399830DC08B
S1132540833631F0833771F0833509F059C021C0E7
S1132550F801808189830E5F1F4F88248394912C16
S1132560530113C02801F2E04F0E511CF801A08062
S1132570B18036FE03C0692D70E002C06FEF7FEFBB
S1132580C5010E9439164C018201F32DFF773F2EBD
S113259016C0280122E0420E511CF801A080B1802F
S11325A036FE03C0692D70E002C06FEF7FEFC501F6
S11325B00E942E164C01F32DF0683F2E820133FC4D
S11325C01BC0822D90E088169906B0F4B60180E213
S11325D090E00E9444162A94F4CFF50137FC8591CB
S11325E037FE81915F01B60190E00E9444162110EC
S11325F02A9421E0821A91088114910471F7E8C0A9
S1132600843611F0893641F5F80137FE07C0608140
S11326107181828193810C5F1F4F08C06081718139
S1132620072E000C880B990B0E5F1F4FF32DFF76BE
S11326303F2E97FF09C090958095709561957F4FC7
S11326408F4F9F4FF0683F2E2AE030E0A3010E9495
S11326508016882E861845C0853731F4232D2F7EA9
S1132660B22E2AE030E025C0932D997FB92E8F3603
S1132670C1F018F4883579F0B5C0803719F088377F
S113268021F0B0C0E92FE061BE2EB4FE0DC0FB2DD9
S1132690F460BF2E09C034FE0AC0292F2660B22E72
S11326A006C028E030E005C020E130E002C020E1AF
S11326B032E0F801B7FE07C06081718182819381A5
S11326C00C5F1F4F06C06081718180E090E00E5F57
S11326D01F4FA3010E948016882E8618FB2DFF77BA
S11326E03F2E36FE0DC0232D2E7FA22E891458F4C2
S11326F034FE0BC032FC09C0832D8E7EA82E05C08B
S1132700B82CA32C03C0B82C01C0B92CA4FE0FC054
S1132710FE01E80DF11D8081803321F49A2D997E0C
S1132720A92E09C0A2FE06C0B394B39404C08A2D96
S1132730867809F0B394A3FC11C0A0FE06C0B214BD
S113274088F4280C922C9B180EC0B21460F4B601C5
S113275080E290E00E944416B394F7CFB21418F4C8
S11327602B1802C0982C212CA4FE10C0B60180E3C3
S113277090E00E944416A2FE17C0A1FC03C088E7A3
S113278090E002C088E590E0B6010CC08A2D8678FE
S113279059F0A1FE02C08BE201C080E2A7FC8DE2E9
S11327A0B60190E00E944416891438F4B60180E31F
S11327B090E00E9444169A94F7CF8A94F301E80DAE
S11327C0F11D8081B60190E00E9444168110F5CF7E
S11327D0222009F442CEB60180E290E00E94441621
S11327E02A94F6CFF6018681978102C08FEF9FEF7E
S11327F02B96E2E10C94FA16A9E0B0E0E2E0F4E1F1
S11328000C94E4166A01122FB02E2BE3201720F04B
S1132810FF24F394F00E02C02CE3F22E0F2D27E0D8
S1132820AE014F5F5F4F0E945615BC014981842F52
S11328308970813031F0E1FC06C0E0FE06C090E210
S113284005C09DE203C09BE201C090E05E2D507183
S113285043FF3CC0911102C083E001C084E08117B2
S113286018F4212F281B01C020E051110BC0F601E0
S1132870822F30E2882319F031938150FBCFC20EAE
S1132880D11C20E0992329F0D6019C93F6013196BE
S11328906F01C6010396E2FE0AC03EE4D6013C93F2
S11328A041E411964C93119712963C9306C03EE670
S11328B0F601308341E641833283FC01322F40E24A
S11328C0332309F442C041933150FACF42FF44C04C
S11328D0911102C083E001C084E0811718F4212F14
S11328E0281B01C020E051110BC0F601822F30E2F9
S11328F0882319F031938150FBCFC20ED11C20E004
S1132900992329F0D6019C93F60131966F01C601F3
S11329100396E2FE0BC039E4D6013C933EE41196E3
S11329203C93119736E412963C9307C039E6F601BE
S113293030833EE6318336E63283FC01322F40E2B7
S1132940332319F041933150FBCFFC01E20FF11D09
S113295010828EEF9FEFA6C021E030E0911102C0FB
S113296020E030E0161617061CF4FB01319602C075
S1132970E1E0F0E02E0F3F1FBB2021F0EB2DF0E053
S1132980319602C0E0E0F0E02E0F3F1FE12FF0E0AF
S11329902E173F071CF4121B212F01C020E08E2D9F
S11329A0887159F4F601822F30E2882319F03193AB
S11329B08150FBCFC20ED11C20E0992329F0D6010F
S11329C09C93F60131966F0151110BC0F601822FD1
S11329D090E3882319F091938150FBCFC20ED11C50
S11329E020E00F2D060F9A81342F307144FF03C06D
S11329F0913309F40150101624F4093018F008E05A
S1132A0001C001E0AB0177FF02C040E050E0FB01F0
S1132A10E41BF50BA1E0B0E0AC0FBD1FEA0FFB1FF8
S1132A208EE2A82E4B01801A91080B2D10E011950F
S1132A30019511094F3FBFEF5B0721F4D601AC921A
S1132A4011966D01641775072CF08416950614F41D
S1132A50818101C080E3415051093196D60111961C
S1132A607D014017510724F0D6018C936701E2CF12
S1132A706417750739F4963320F4953319F431113A
S1132A8001C081E3F6018083F701822F90E288235D
S1132A9019F091938150FBCFF701E20FF11D1082E1
S1132AA080E090E02996ECE00C940017283008F0C0
S1132AB027E03327DA01990F311D87FD91600096D5
S1132AC06105710539F432602E5F3D9330E32A9538
S1132AD0E1F708959F3F30F080387105610509F0F2
S1132AE03C5F3C5F3D93913008F08068911DDF931B
S1132AF0CF931F930F93FF92EF92192F987F969580
S1132B00E92F96959695E90FFF27EE52FF4F9927E7
S1132B103327EE24FF24A701E701059008940794C6
S1132B2028F4360FE71EF81E491F511D660F771F44
S1132B30881F991F0694A1F70590079428F4E70EBF
S1132B40F81E491F561FC11D770F881F991F661F46
S1132B500694A1F70590079428F4F80E491F561F10
S1132B60C71FD11D880F991F661F771F0694A1F7F1
S1132B700590079420F4490F561FC71FD81F990FBB
S1132B80661F771F881F0694A9F784911095177004
S1132B9041F0D695C79557954795F794E7941A95BC
S1132BA0C1F7E8E7F0E068941590159135916591C7
S1132BB0959105907FE27395E118F10A430B560B4A
S1132BC0C90BD009C0F7E10CF11E431F561FC91FE2
S1132BD0D01D7EF4703311F48A95E6CFE894015049
S1132BE030F0080F0AF40027021708F4202F239569
S1132BF0022F7A3328F079E37D932A95E9F710C000
S1132C007D932A9589F60694979567953795179538
S1132C101794E118F10A430B560BC90BD00998F02D
S1132C2023957E9173957A3308F070E37C93201397
S1132C30B8F77E9170617D9330F0839571E37D9355
S1132C4070E32A95E1F71124EF90FF900F911F9103
S1132C50CF91DF91992787FD90950895FC01059008
S1132C60615070400110D8F7809590958E0F9F1F8A
S1132C700895FC016150704001900110D8F78095CF
S1132C8090958E0F9F1F08950F931F93CF93DF93FB
S1132C90FB01238121FD03C08FEF9FEF2CC022FF96
S1132CA016C046815781248135814217530744F465
S1132CB0A081B1819D012F5F3F4F318320838C938D
S1132CC0268137812F5F3F4F3783268314C08B01C2
S1132CD0EC01FB010084F185E02D0995892BE1F6D7
S1132CE0D80116968D919C911797019617969C93EF
S1132CF08E931697CE01DF91CF911F910F91089576
S1132D00FA01AA27283051F1203181F1E8946F9318
S1132D106E7F6E5F7F4F8F4F9F4FAF4FB1E03ED0BE
S1132D20B4E03CD0670F781F891F9A1FA11D680F5C
S1132D30791F8A1F911DA11D6A0F711D811D911D8F
S1132D40A11D20D009F468943F912AE0269F112404
S1132D503019305D3193DEF6CF010895462F477068
S1132D60405D4193B3E00FD0C9F7F6CF462F4F70C3
S1132D70405D4A3318F0495D31FD4052419302D021
S1132D80A9F7EACFB4E0A6959795879577956795C7
S1132D90BA95C9F700976105710508959B01AC01C7
S1132DA00A2E06945795479537952795BA95C9F7EE
S1132DB0620F731F841F951FA01D08952F923F92C9
S1132DC04F925F926F927F928F929F92AF92BF9237
S1132DD0CF92DF92EF92FF920F931F93CF93DF93E3
S1132DE0CDB7DEB7CA1BDB0B0FB6F894DEBF0FBE40
S1132DF0CDBF09942A88398848885F846E847D848D
S1132E008C849B84AA84B984C884DF80EE80FD808E
S1132E100C811B81AA81B981CE0FD11D0FB6F89404
S1112E20DEBF0FBECDBFED010895F894FFCFC5
S1132E2E0000D204200001010000C0410000A041B6
S1132E3E0000803E0000003F0000E4410000803F9F
S1132E4EFFFFFFFFFFFFFFFF95039F03B103C403C3
S1132E5ED4038B029802E203EB03F70301040B0481
S1132E6E1904280435044604500459046204000469
S1132E7E04041F0E040000040E1F040404000004C6
S1132E8E061F0604000000040C1F0C04000025732A
S1132E9E20257300517565756520697320656D7005
S1132EAE7479210051756575652066756C6C2C20DE
S1132EBE6F76657277726F7465206F6C6465737468
S1132ECE20776974683A2025640A00537472696E17
S1132EDE6720717565756520697320656D707479E9
S1132EEE2100656E71756575655374723A206D6156
S1132EFE6C6C6F63206661696C656400456E61621B
S1132F0E6C65640044697361626C6564004D41498B
S1132F1E4E204D454E55004C6F6164696E672E2EE2
S1132F2E2E0054414E4B20434150414349545900C5
S1132F3E524546494C4C2052415445004C747273D0
S1132F4E2070657220686F7572004C45414B414785
S1132F5E452052415445004C7472732070657220A2
S1132F6E6D696E00534F494C2054454D50455241A6
S1132F7E54555245004C4956452056494557004C28
S1132F8E45414B205241544500534F494C20544522
S1132F9E4D5000496E76616C6964206C69766520CB
S1132FAE76696577004552524F52004D494E204383
S1132FBE41504143495459004D41582054454D50B8
S1132FCE00496E76616C6964207472696767657214
S1132FDE004D45535341474553004E6F206D657365
S1132FEE736167657300434F4E46494700556E69DA
S1132FFE747300535445502053495A450050554D4F
S113300E50205448524553484F4C4400535052415B
S113301E59205448524553484F4C4400454E414262
S113302E4C4520545249474745525300454E414260
S113303E4C4520414C4552545300496E76616C699F
S113304E6420636F6E66696700496E76616C6964AD
S113305E206D656E750053797374656D20616C65B2
S113306E727400414C45525400526566696C6C2072
S113307E74726967676572656420617420252E31E8
S113308E66204C74727300436F6F6C696E672074A4
S113309E726967676572656420617420252E3266D5
S11330AE2064656772656573005570646174696E3A
S11330BE672E2E2E00537465702073697A65005046
S11330CE756D70696E67207468726573686F6C6471
S11330DE005370726179696E6720746872657368E3
S11330EE6F6C6400456E61626C652074726967670B
S11330FE65727300456E61626C6520616C657274F5
S113310E7300436170616369747900526566696C1A
S113311E6C2052617465004C65616B20526174655C
S113312E00536F696C2054656D700054616E6B2092
S113313E636170616369747900526566696C6C6968
S113314E6E672072617465004C65616B6167652002
S113315E7261746500536F696C2074656D7065726D
S113316E6174757265004C697665205669657700E1
S113317E5472696767657273004D65737361676531
S10D318E7300436F6E66696700006A
S9030000FC
