:100000000C94B1000C94C6000C94C6000C94C6006D
:100010000C94C6000C94C6000C94C6000C94C60048
:100020000C94C6000C94C6000C94C6000C94C60038
:100030000C94C6000C94C6000C94C6000C94C60028
:100040000C94C6000C94C6000C94C6000C94C60018
:100050000C94C6000C94C6000C94C6000C94C60008
:100060000C94C6000C94C60000407A10F35A00A00D
:10007000724E18090010A5D4E80000E87648170071
:1000800000E40B54020000CA9A3B000000E1F505B1
:10009000000080969800000040420F000000A086FB
:1000A00001000000102700000000E803000000002D
:1000B0006400000000000A000000000001000000D1
:1000C00000002C76D888DC674F0823DFC1DFAE59EB
:1000D000E1B1B796E5E3E453C63AE651997696E87E
:1000E000E6C28426EB898C9B62ED407C6FFCEFBC02
:1000F0009C9F40F2BAA56FA5F490055A2AF75C932D
:100100006B6CF9676DC11BFCE0E40D47FEF520E662
:10011000B500D0ED902E0300943577050080841E45
:10012000080000204E0A000000C80C333333330FA0
:10013000986E12831141EF8D2114893BE65516CF3D
:10014000FEE6DB18D1844B381BF77C1D901DA4BB49
:10015000E424203284725E228100C9F124ECA1E5FE
:100160003D2711241FBECFEFD8E0DEBFCDBF11E089
:10017000A0E0B1E0E2EAF4E102C005900D92AE30F9
:10018000B107D9F70E943C030C944F0A0C9400006D
:10019000AF92BF92CF92DF92EF92FF920F931F9395
:1001A000CF93DF93CDB7DEB768970FB6F894DEBF75
:1001B0000FBECDBFD82EC92EB62EA72ECA01B901AB
:1001C000202F8E010F5F1F4F40E00E940505E114B4
:1001D000F104C1F0F70180818823A1F0FF92EF9232
:1001E0001F930F9380E091E09F938F93AF92BF9204
:1001F000CF92DF920E9425050FB6F894DEBF0FBEA6
:10020000CDBF13C0CE0101969F938F9383E091E001
:100210009F938F93AF92BF92CF92DF920E9425055A
:100220000FB6F894DEBF0FBECDBF68960FB6F89438
:10023000DEBF0FBECDBFDF91CF911F910F91FF9019
:10024000EF90DF90CF90BF90AF90089585B181601F
:1002500085B985E08A95F1F7000085B18E7F85B973
:100260008FE891E00197F1F700C0000008959BB17D
:100270009F709BB980FF03C09BB190619BB981FFC8
:1002800003C09BB190629BB982FF03C09BB1906495
:100290009BB983FF03C08BB180688BB90E94260194
:1002A0000895CF93C82F85B18D7F85B98C2F829506
:1002B0008F700E9437018C2F8F700E943701CF9171
:1002C0000895CF93C82F85B1826085B98C2F829510
:1002D0008F700E9437018C2F8F700E943701CF9151
:1002E000089584B1836084B98AB1806F8AB92FEF91
:1002F00089EF90E0215080409040E1F700C000007D
:1003000083E00E9437018FE19EE40197F1F700C07E
:10031000000083E00E94370187E592E00197F1F742
:1003200000C0000083E00E94370182E00E94370194
:1003300088E20E9451018CE00E94510186E00E94F7
:10034000510181E00E9451018FE39FE10197F1F794
:1003500000C00000089587B1816087B988B18E7FA1
:1003600088B98FE797E00197F1F700C0000087B1E7
:100370008E7F87B9EFEEF0E03197F1F700C0000013
:1003800096B181E089278170EFE8F6E03197F1F7C7
:1003900000C00000089597B1916097B998B19E7F11
:1003A00098B9882371F085E08A95F1F7000087B14C
:1003B0008E7F87B98FEE90E00197F1F700C00000C3
:1003C00008958FEE90E00197F1F700C0000087B12B
:1003D0008E7F87B90895CF93DF93D82FC0E006C0F2
:1003E0008D2F81700E94CB01D695CF5FC830C0F3AE
:1003F000DF91CF91089587B1816087B988B18E7FF1
:1004000088B98AE08A95F1F700C087B18E7F87B9F5
:10041000E5E3EA95F1F7000086B18170E7ECF0E0E2
:100420003197F1F700C000000895CF93DF93C0E04B
:10043000D0E006C0D6950E94FB018111D068CF5F45
:10044000C830C0F38D2FDF91CF910895CF930E94D4
:10045000AB018CEC0E94EB0184E40E94EB012FEFD6
:100460008EE994E2215080409040E1F700C0000006
:100470000E94AB018CEC0E94EB018EEB0E94EB0121
:100480000E941502C82F0E941502682F70E0762F77
:1004900066276C2B072E000C880B990B0E940C040E
:1004A00020E030E040E85DE30E949804CF91089599
:1004B0008AB184608AB98AB1877F8AB908958BB17D
:1004C0008B7F8BB92FEF83EC99E0215080409040D7
:1004D000E1F700C000008BB184608BB92FEF83EC93
:1004E00099E0215080409040E1F700C000008BB1BE
:1004F0008B7F8BB908954B9BFECF60E070E0CB0102
:1005000008C025E02A95F1F700006F5F7F4F8F4FFD
:100510009F4F4B99F6CF0E940A0420E030E048E656
:1005200052E40E9469030E94DB03CB0108950E94FC
:100530005F020E947B02089584B1837C84B985B1F7
:100540008C6385B90895EF92FF920F931F93CF9319
:10055000DF93CDB7DEB7A0970FB6F894DEBF0FBE1E
:10056000CDBF7C018B0181E00E9451018FE39FE1AF
:100570000197F1F700C0000080E090E00BC0EFEFC2
:10058000EE1AFE0AE1E0F0E0EC0FFD1FE80FF91FA4
:10059000208301968C30910574F4F701208121119C
:1005A000EECF09C0E1E0F0E0EC0FFD1FE80FF91F0E
:1005B00020E2208301968C309105A4F38FE78D878C
:1005C0008DE28E878BE28F878EE7888B80E090E0CC
:1005D0000AC00F5F1F4FE1E1F0E0EC0FFD1FE80FD5
:1005E000F91F208301968031910574F4F801208170
:1005F0002111EFCF09C0E1E1F0E0EC0FFD1FE80FA2
:10060000F91F20E22083019680319105A4F380E850
:100610000E94510100E010E00BC0E1E0F0E0EC0FBF
:10062000FD1FE00FF11F80810E9461010F5F1F4FCE
:100630000031110594F380EC0E94510100E010E0BC
:100640000BC0E1E1F0E0EC0FFD1FE00FF11F808136
:100650000E9461010F5F1F4F0031110594F3A096B6
:100660000FB6F894DEBF0FBECDBFDF91CF911F91C3
:100670000F91FF90EF900895CF93DF93CDB7DEB742
:1006800060970FB6F894DEBF0FBECDBF0E94710118
:100690000E9458020E949C020E9426024B015C01AB
:1006A0000E9497020F2EF6E0EF2EF1E0FF2EF02DC4
:1006B00002E0A501940160E170E0CE0101960E9484
:1006C000C800BE016F5F7F4F88E091E00E94A302E7
:1006D000E3CF0E947D030C945E040E94570458F0FF
:1006E0000E94500440F029F45F3F29F00C94470425
:1006F00051110C9492040C944D040E946F0468F301
:100700009923B1F3552391F3951B550BBB27AA27CA
:1007100062177307840738F09F5F5F4F220F331F04
:10072000441FAA1FA9F335D00E2E3AF0E0E832D0CC
:1007300091505040E695001CCAF72BD0FE2F29D0CF
:10074000660F771F881FBB1F261737074807AB07A1
:10075000B0E809F0BB0B802DBF01FF2793585F4F16
:100760003AF09E3F510578F00C9447040C949204A3
:100770005F3FE4F3983ED4F3869577956795B795F8
:10078000F7959F5FC9F7880F911D9695879597F903
:100790000895E1E0660F771F881FBB1F621773077C
:1007A0008407BA0720F0621B730B840BBA0BEE1F91
:1007B00088F7E09508950E94770488F09F5798F095
:1007C000B92F9927B751B0F0E1F0660F771F881F56
:1007D000991F1AF0BA95C9F714C0B13091F00E9470
:1007E0009104B1E008950C949104672F782F882725
:1007F000B85F39F0B93FCCF3869577956795B39597
:10080000D9F73EF490958095709561957F4F8F4F05
:100810009F4F0895E89409C097FB3EF4909580950A
:10082000709561957F4F8F4F9F4F9923A9F0F92FB6
:1008300096E9BB279395F695879577956795B79534
:10084000F111F8CFFAF4BB0F11F460FF1BC06F5F1A
:100850007F4F8F4F9F4F16C0882311F096E911C02C
:10086000772321F09EE8872F762F05C0662371F04D
:1008700096E8862F70E060E02AF09A95660F771F61
:10088000881FDAF7880F9695879597F9089597F955
:100890009F6780E870E060E008959FEF80EC089526
:1008A00000240A941616170618060906089500244F
:1008B0000A9412161306140605060895092E0394C9
:1008C000000C11F4882352F0BB0F40F4BF2B11F43D
:1008D00060FF04C06F5F7F4F8F4F9F4F089557FD9C
:1008E0009058440F551F59F05F3F71F04795880F9E
:1008F00097FB991F61F09F3F79F087950895121635
:1009000013061406551FF2CF4695F1DF08C01616E0
:1009100017061806991FF1CF869571056105089491
:100920000895E894BB2766277727CB0197F90895A8
:100930000E94AB040C945E040E94500438F00E94A4
:10094000570420F0952311F00C9447040C944D04A7
:1009500011240C9492040E946F0470F3959FC1F3CC
:10096000950F50E0551F629FF001729FBB27F00D5D
:10097000B11D639FAA27F00DB11DAA1F649F6627B2
:10098000B00DA11D661F829F2227B00DA11D621F01
:10099000739FB00DA11D621F839FA00D611D221FBB
:1009A000749F3327A00D611D231F849F600D211D9F
:1009B000822F762F6A2F11249F5750409AF0F1F022
:1009C00088234AF0EE0FFF1FBB1F661F771F881F8B
:1009D00091505040A9F79E3F510580F00C94470478
:1009E0000C9492045F3FE4F3983ED4F38695779598
:1009F0006795B795F795E7959F5FC1F7FE2B880F31
:100A0000911D9695879597F90895EF920F931F93EF
:100A1000CF93DF93E80147FD02C034E001C034E129
:100A2000042E000C550B57FF03C0519541955109F9
:100A3000E32E022F242FAE010E943607CE01DF9154
:100A4000CF911F910F91EF900895AEE0B0E0EBE2EF
:100A5000F5E00C94260A0D891E898F89988D26E071
:100A60002C831A83098397FF02C080E090E80197E6
:100A70009E838D83AE01455E5F4F698D7A8DCE0179
:100A800001960E9455054D815E8157FD0AC02F8158
:100A90003885421753070CF49A01F801E20FF31F4F
:100AA00010822E96E4E00C94420AABE0B0E0EBE555
:100AB000F5E00C94180A6C017B018A01FC01178295
:100AC0001682838181FFCCC1CE0101963C01F601E3
:100AD0009381F70193FD859193FF81917F01882395
:100AE00009F4BAC1853239F493FD859193FF819160
:100AF0007F01853229F4B60190E00E947E09E7CF9C
:100B0000912C212C312CFFE1F315D8F08B3279F0A8
:100B100038F4803279F08332A1F4232D20611DC096
:100B20008D3261F0803369F4232D216016C0832D4E
:100B30008260382EE32DE4603E2E2AC0F32DF8604B
:100B40001DC037FC2DC020ED280F2A3040F08E321A
:100B5000B9F436FC81C1232D2064322E19C036FE33
:100B600006C08AE0989E200D1124922E11C0EAE062
:100B70002E9E200D1124222EF32DF0623F2E08C050
:100B80008C3621F4832D8068382E02C0883641F4DB
:100B9000F70193FD859193FF81917F018111B3CF7F
:100BA000982F9F7D9554933028F40C5F1F4F9FE33F
:100BB00099830DC0833631F0833771F0833509F0A6
:100BC00059C021C0F801808189830E5F1F4F88249E
:100BD0008394912C530113C02801F2E04F0E511C55
:100BE000F801A080B18036FE03C0692D70E002C01C
:100BF0006FEF7FEFC5010E9473094C018201F32D55
:100C0000FF773F2E16C0280122E0420E511CF8014A
:100C1000A080B18036FE03C0692D70E002C06FEF86
:100C20007FEFC5010E9468094C01F32DF0683F2E4B
:100C3000820133FC1BC0822D90E088169906B0F427
:100C4000B60180E290E00E947E092A94F4CFF5017B
:100C500037FC859137FE81915F01B60190E00E94DB
:100C60007E0921102A9421E0821A910881149104AE
:100C700071F7E8C0843611F0893641F5F80137FE86
:100C800007C060817181828193810C5F1F4F08C012
:100C900060817181072E000C880B990B0E5F1F4F2E
:100CA000F32DFF763F2E97FF09C0909580957095A4
:100CB00061957F4F8F4F9F4FF0683F2E2AE030E0C5
:100CC000A3010E94BA09882E861845C0853731F4E1
:100CD000232D2F7EB22E2AE030E025C0932D997F60
:100CE000B92E8F36C1F018F4883579F0B5C0803749
:100CF00019F0883721F0B0C0E92FE061BE2EB4FEB4
:100D00000DC0FB2DF460BF2E09C034FE0AC0292F90
:100D10002660B22E06C028E030E005C020E130E0B9
:100D200002C020E132E0F801B7FE07C060817181A6
:100D3000828193810C5F1F4F06C06081718180E0CA
:100D400090E00E5F1F4FA3010E94BA09882E8618FB
:100D5000FB2DFF773F2E36FE0DC0232D2E7FA22EBA
:100D6000891458F434FE0BC032FC09C0832D8E7EEA
:100D7000A82E05C0B82CA32C03C0B82C01C0B92CD8
:100D8000A4FE0FC0FE01E80DF11D8081803321F427
:100D90009A2D997EA92E09C0A2FE06C0B394B394E1
:100DA00004C08A2D867809F0B394A3FC11C0A0FE7C
:100DB00006C0B21488F4280C922C9B180EC0B214F2
:100DC00060F4B60180E290E00E947E09B394F7CF10
:100DD000B21418F42B1802C0982C212CA4FE10C0B9
:100DE000B60180E390E00E947E09A2FE17C0A1FC3C
:100DF00003C088E790E002C088E590E0B6010CC02F
:100E00008A2D867859F0A1FE02C08BE201C080E2F3
:100E1000A7FC8DE2B60190E00E947E09891438F4A7
:100E2000B60180E390E00E947E099A94F7CF8A94FD
:100E3000F301E80DF11D8081B60190E00E947E096A
:100E40008110F5CF222009F442CEB60180E290E075
:100E50000E947E092A94F6CFF6018681978102C00E
:100E60008FEF9FEF2B96E2E10C94340AA9E0B0E0FB
:100E7000ECE3F7E00C941E0A6A01122FB02E2BE36C
:100E8000201720F0FF24F394F00E02C02CE3F22E82
:100E90000F2D27E0AE014F5F5F4F0E949008BC010D
:100EA0004981842F8970813031F0E1FC06C0E0FE79
:100EB00006C090E205C09DE203C09BE201C090E045
:100EC0005E2D507143FF3CC0911102C083E001C010
:100ED00084E0811718F4212F281B01C020E0511154
:100EE0000BC0F601822F30E2882319F03193815034
:100EF000FBCFC20ED11C20E0992329F0D6019C9390
:100F0000F60131966F01C6010396E2FE0AC03EE487
:100F1000D6013C9341E411964C93119712963C9361
:100F200006C03EE6F601308341E641833283FC0190
:100F3000322F40E2332309F442C041933150FACFBB
:100F400042FF44C0911102C083E001C084E08117D8
:100F500018F4212F281B01C020E051110BC0F6010D
:100F6000822F30E2882319F031938150FBCFC20EDB
:100F7000D11C20E0992329F0D6019C93F6013196EB
:100F80006F01C6010396E2FE0BC039E4D6013C9323
:100F90003EE411963C93119736E412963C9307C0B9
:100FA00039E6F60130833EE6318336E63283FC01D2
:100FB000322F40E2332319F041933150FBCFFC0133
:100FC000E20FF11D10828EEF9FEFA6C021E030E00E
:100FD000911102C020E030E0161617061CF4FB0148
:100FE000319602C0E1E0F0E02E0F3F1FBB2021F060
:100FF000EB2DF0E0319602C0E0E0F0E02E0F3F1F55
:10100000E12FF0E02E173F071CF4121B212F01C027
:1010100020E08E2D887159F4F601822F30E288236A
:1010200019F031938150FBCFC20ED11C20E09923DF
:1010300029F0D6019C93F60131966F0151110BC036
:10104000F601822F90E3882319F091938150FBCF12
:10105000C20ED11C20E00F2D060F9A81342F307163
:1010600044FF03C0913309F40150101624F40930F1
:1010700018F008E001C001E0AB0177FF02C040E0DA
:1010800050E0FB01E41BF50BA1E0B0E0AC0FBD1F8D
:10109000EA0FFB1F8EE2A82E4B01801A91080B2D40
:1010A00010E01195019511094F3FBFEF5B0721F447
:1010B000D601AC9211966D01641775072CF0841659
:1010C000950614F4818101C080E3415051093196A5
:1010D000D60111967D014017510724F0D6018C935B
:1010E0006701E2CF6417750739F4963320F495331E
:1010F00019F4311101C081E3F6018083F701822FD9
:1011000090E2882319F091938150FBCFF701E20F11
:10111000F11D108280E090E02996ECE00C943A0AF0
:10112000283008F027E03327DA01990F311D87FDB9
:10113000916000966105710539F432602E5F3D9330
:1011400030E32A95E1F708959F3F30F0803871052C
:10115000610509F03C5F3C5F3D93913008F0806889
:10116000911DDF93CF931F930F93FF92EF92192F4F
:10117000987F9695E92F96959695E90FFF27EE5360
:10118000FF4F99273327EE24FF24A701E70105909D
:101190000894079428F4360FE71EF81E491F511DC6
:1011A000660F771F881F991F0694A1F70590079473
:1011B00028F4E70EF81E491F561FC11D770F881F20
:1011C000991F661F0694A1F70590079428F4F80E5E
:1011D000491F561FC71FD11D880F991F661F771FF4
:1011E0000694A1F70590079420F4490F561FC71FD6
:1011F000D81F990F661F771F881F0694A9F784913F
:101200001095177041F0D695C79557954795F79467
:10121000E7941A95C1F7E8E6F0E068941590159107
:1012200035916591959105907FE27395E118F10AEA
:10123000430B560BC90BD009C0F7E10CF11E431F3D
:10124000561FC91FD01D7EF4703311F48A95E6CF66
:10125000E894015030F0080F0AF40027021708F450
:10126000202F2395022F7A3328F079E37D932A9556
:10127000E9F710C07D932A9589F6069497956795AE
:10128000379517951794E118F10A430B560BC90BC4
:10129000D00998F023957E9173957A3308F070E326
:1012A0007C932013B8F77E9170617D9330F0839525
:1012B00071E37D9370E32A95E1F71124EF90FF909D
:1012C0000F911F91CF91DF91992787FD90950895F8
:1012D000FC010590615070400110D8F78095909501
:1012E0008E0F9F1F0895FC01615070400190011006
:1012F000D8F7809590958E0F9F1F08950F931F9399
:10130000CF93DF93FB01238121FD03C08FEF9FEF7C
:101310002CC022FF16C04681578124813581421797
:10132000530744F4A081B1819D012F5F3F4F31836A
:1013300020838C93268137812F5F3F4F378326830D
:1013400014C08B01EC01FB010084F185E02D0995AF
:10135000892BE1F6D80116968D919C9117970196ED
:1013600017969C938E931697CE01DF91CF911F9184
:101370000F910895FA01AA27283051F1203181F107
:10138000E8946F936E7F6E5F7F4F8F4F9F4FAF4F8D
:10139000B1E03ED0B4E03CD0670F781F891F9A1FA0
:1013A000A11D680F791F8A1F911DA11D6A0F711D54
:1013B000811D911DA11D20D009F468943F912AE060
:1013C000269F11243019305D3193DEF6CF01089548
:1013D000462F4770405D4193B3E00FD0C9F7F6CF79
:1013E000462F4F70405D4A3318F0495D31FD405241
:1013F000419302D0A9F7EACFB4E0A69597958795D7
:1014000077956795BA95C9F70097610571050895B5
:101410009B01AC010A2E0694579547953795279561
:10142000BA95C9F7620F731F841F951FA01D0895F9
:101430002F923F924F925F926F927F928F929F92E4
:10144000AF92BF92CF92DF92EF92FF920F931F93D2
:10145000CF93DF93CDB7DEB7CA1BDB0B0FB6F89483
:10146000DEBF0FBECDBF09942A88398848885F84C3
:101470006E847D848C849B84AA84B984C884DF8034
:10148000EE80FD800C811B81AA81B981CE0FD11D18
:101490000FB6F894DEBF0FBECDBFED010895F894EE
:0214A000FFCF7C
:0E14A200257320257300430054656D703A00D9
:00000001FF
