S0100000776F726B61626C652E73726563BD
S11300000C94B9000C94D6000C94D6000C94D60031
S11300100C94D6000C94D6000C94D6000C94D60004
S11300200C94D6000C946D0B0C94D6000C94D60052
S11300300C94D6000C94D6000C94D6000C94D600E4
S11300400C94D6000C94D6000C94D6000C94D600D4
S11300500C94D6000C94D6000C94D6000C94D600C4
S11300600C94D6000C94D600590677069506B30670
S1130070D1066F07CA07EE0700407A10F35A00A0B2
S1130080724E18090010A5D4E80000E8764817005D
S113009000E40B54020000CA9A3B000000E1F5059D
S11300A0000080969800000040420F000000A086E7
S11300B001000000102700000000E8030000000019
S11300C06400000000000A000000000001000000BD
S11300D000002C76D888DC674F0823DFC1DFAE59D7
S11300E0E1B1B796E5E3E453C63AE651997696E86A
S11300F0E6C28426EB898C9B62ED407C6FFCEFBCEE
S11301009C9F40F2BAA56FA5F490055A2AF75C9318
S11301106B6CF9676DC11BFCE0E40D47FEF520E64E
S1130120B500D0ED902E0300943577050080841E31
S1130130080000204E0A000000C80C333333330F8C
S1130140986E12831141EF8D2114893BE65516CF29
S1130150FEE6DB18D1844B381BF77C1D901DA4BB35
S1130160E424203284725E228100C9F124ECA1E5EA
S11301703D2711241FBECFEFD8E0DEBFCDBF14E072
S1130180A0E0B1E0E4E8F8E202C005900D92A037E7
S1130190B107D9F724E0A0E7B4E001C01D92A23D65
S11301A0B207E1F70E94A50B0C9440140C940000D4
S11301B0AF92BF92CF92DF92EF92FF920F931F9371
S11301C0CF93DF93CDB7DEB768970FB6F894DEBF51
S11301D00FBECDBFD82EC92EB62EA72ECA01B90187
S11301E0202F8E010F5F1F4F40E00E94E00EE114AC
S11301F0F104C1F0F70180818823A1F0FF92EF920E
S11302001F930F9388E691E09F938F93AF92BF92D1
S1130210CF92DF920E94160F0FB6F894DEBF0FBE86
S1130220CDBF13C0CE0101969F938F938BE691E0CF
S11302309F938F93AF92BF92CF92DF920E94160F3B
S11302400FB6F894DEBF0FBECDBF68960FB6F89414
S1130250DEBF0FBECDBFDF91CF911F910F91FF90F5
S1130260EF90DF90CF90BF90AF9008952FEF3FEFC6
S1130270FC01358B248B378B268B0895FC01248954
S1130280358981E02F3F3F4F09F080E090E00895E9
S1130290FC018689978901966AE070E00E94B20E9B
S11302A0AC012489358981E04217530709F080E0C5
S11302B090E008950F931F93CF93DF93EC01162FD3
S11302C0072F0E944801892B29F18C899D89019669
S11302D02AE030E0B9010E94B20E9D8B8C8B8E898E
S11302E09F890196B9010E94B20E9F8B8E8B880F55
S11302F0991FC80FD91F188309830F931F938EE783
S113030091E09F938F930E94000F0F900F900F9096
S11303100F9033C0CE010E943E01892B99F01D8AB3
S11303201C8A1F8A1E8A188309830F931F9385EAE8
S113033091E09F938F930E94000F0F900F900F9066
S11303400F901BC08E899F8901966AE070E00E941D
S1130350B20E9F8B8E8B880F991FC80FD91F1883DD
S113036009830F931F9385EA91E09F938F930E94D3
S1130370000F0F900F900F900F90DF91CF911F916E
S11303800F9108950F931F93CF93DF93EC018B018B
S11303900E943E01009761F4EC89FD89EE0FFF1F76
S11303A0EC0FFD1F20813181F8013183208302C0CD
S11303B08FEF9FEFDF91CF911F910F9108950F93CE
S11303C01F93CF93DF93EC018B010E943E010097B2
S11303D061F4EE89FF89EE0FFF1FEC0FFD1F2081F2
S11303E03181F8013183208302C08FEF9FEFDF91C9
S11303F0CF911F910F9108952FEF3FEFFC01358BA3
S1130400248B378B268B20E030E009C0F901EE0FF6
S1130410FF1FE80FF91F118210822F5F3F4F2A3010
S11304203105A4F30895FC012489358981E02F3F27
S11304303F4F09F080E090E008950F931F93CF930E
S1130440DF93EC018B010E941302009761F4EC89A5
S1130450FD89EE0FFF1FEC0FFD1F20813181F80194
S11304603183208302C08FEF9FEFDF91CF911F91E3
S11304700F91089587B1846087B988B18B7F88B95B
S11304801092B00087E08093B10081E08093700007
S11304907894089587B1826087B988B18D7F88B9CF
S11304A0089588B18D7F88B9089588B1826088B92C
S11304B0089585B1826085B985E08A95F1F70000D9
S11304C085B18D7F85B98FE891E00197F1F700C080
S11304D0000008959BB19F709BB980FF03C09BB13E
S11304E090619BB981FF03C09BB190629BB982FF6D
S11304F003C09BB190649BB983FF03C08BB1806838
S11305008BB90E9459020895CF93C82F85B18E7F6D
S113051085B98C2F82958F700E946A028C2F8F7000
S11305200E946A02CF910895CF93C82F85B181604C
S113053085B98C2F82958F700E946A028C2F8F70E0
S11305400E946A02CF9108950F931F93CF938B015A
S1130550877090E0880F991F880F991F880F991F43
S113056080640E948402C0E007C0F801EC0FF11D12
S113057080810E949402CF5FC830B8F380E80E9463
S11305808402CF911F910F91089584B1836084B93F
S11305908AB1806F8AB92FEF89EF90E021508040B3
S11305A09040E1F700C0000083E00E946A028FE1FE
S11305B09EE40197F1F700C0000083E00E946A0204
S11305C087E592E00197F1F700C0000083E00E9404
S11305D06A0282E00E946A0288E20E9484028CE03D
S11305E00E94840286E00E94840281E00E948402C8
S11305F08FE39FE10197F1F700C00000089587B1F0
S1130600816087B988B18E7F88B98FE797E00197B9
S1130610F1F700C0000087B18E7F87B9EFEEF0E0FC
S11306203197F1F700C0000096B181E0892781700D
S1130630EFE8F6E03197F1F700C00000089597B1B4
S1130640916097B998B19E7F98B9882371F085E03D
S11306508A95F1F7000087B18E7F87B98FEE90E01D
S11306600197F1F700C0000008958FEE90E0019724
S1130670F1F700C0000087B18E7F87B90895CF934A
S1130680DF93D82FC0E006C08D2F81700E941F0316
S1130690D695CF5FC830C0F3DF91CF91089587B16D
S11306A0816087B988B18E7F88B98AE08A95F1F72D
S11306B000C087B18E7F87B9E5E3EA95F1F70000C2
S11306C086B18170E7ECF0E03197F1F700C00000EB
S11306D00895CF93DF93C0E0D0E006C0D6950E9482
S11306E04F038111D068CF5FC830C0F38D2FDF91E5
S11306F0CF910895CF930E94FF028CEC0E943F0398
S113070084E40E943F032FEF8EE994E2215080405D
S11307109040E1F700C000000E94FF028CEC0E94B0
S11307203F038EEB0E943F030E946903C82F0E947F
S11307306903682F70E0762F66276C2B072E000C58
S1130740880B990B0E94900D20E030E040E85DE3B7
S11307500E94450ECF9108958AB184608AB98AB106
S1130760877F8AB908958BB18B7F8BB92FEF87E888
S113077093E1215080409040E1F700C000008BB12C
S113078084608BB92FEF87E893E12150804090403B
S1130790E1F700C000008BB18B7F8BB908954B9BB0
S11307A0FECF60E070E0CB0108C025E02A95F1F7A8
S11307B000006F5F7F4F8F4F9F4F4B99F6CF0E9482
S11307C08E0D20E030E048E652E40E94E60C0E94E0
S11307D05F0DCB0108950E94B3030E94CF030895D7
S11307E084B1837C84B985B18C6385B908951A9BDF
S11307F008C01B9B08C01C9B08C01D9908C084E04E
S1130800089581E0089582E0089583E0089585E0E5
S113081008950F931F93CF93DF93CDB7DEB7EC9773
S11308200FB6F894DEBF0FBECDBFDC018B018FE3A2
S11308309FE10197F1F700C0000020E030E00AC01A
S11308401196E1E0F0E0EC0FFD1FE20FF31F80834F
S11308502F5F3F4F2C30310574F48C918111F0CF10
S11308600AC0E1E0F0E0EC0FFD1FE20FF31F80E2AD
S113087080832F5F3F4F2C3031059CF388E0E8E400
S1130880F1E0DE015D9601900D928A95E1F788E032
S1130890E0E5F1E0DE01959601900D928A95E1F78D
S11308A088E0E8E5F1E0DE019D9601900D928A95DD
S11308B0E1F788E0E0E6F1E0DE01D59601900D92E3
S11308C08A95E1F7BE01635E7F4F80E00E94A40237
S11308D0BE016B5D7F4F81E00E94A402BE016B5C90
S11308E07F4F82E00E94A402BE01635D7F4F83E0DC
S11308F00E94A40280E090E00AC00F5F1F4FEDE069
S1130900F0E0EC0FFD1FE80FF91F20830196803102
S1130910910574F4F80120812111EFCF09C0EDE0B5
S1130920F0E0EC0FFD1FE80FF91F20E22083019691
S113093080319105A4F380E80E94840200E010E075
S11309400BC0E1E0F0E0EC0FFD1FE00FF11F808130
S11309500E9494020F5F1F4F0C30110594F382E044
S11309600E94940280E00E94940281E00E9494021A
S113097083E00E94940280EC0E94840200E010E074
S11309800BC0EDE0F0E0EC0FFD1FE00FF11F8081E4
S11309900E9494020F5F1F4F0031110594F3EC96EF
S11309A00FB6F894DEBF0FBECDBFDF91CF911F917C
S11309B00F910895CF92DF92EF92FF92BC01990FAD
S11309C0880B990B0E94900D9B01AC016AE979E9AF
S11309D089E791E40E94740C20ED3FE049E453E47C
S11309E00E94450E20E030E04AE754E40E94E60C01
S11309F06B017C0120E030E0A9010E94E10C882316
S1130A001CF4C12CD12C7601C701B601FF90EF90E4
S1130A10DF90CF900895CF92DF92EF92FF920E94E1
S1130A20EB03BC0180E090E00E948E0D20E030E0FA
S1130A3040EC5FE30E94450E0E945F0D80E090E071
S1130A400E948E0D9B01AC016AE979E989E791E482
S1130A500E94740C20ED3FE049E453E40E94450EEB
S1130A6020E030E04AE754E40E94E60C6B017C018C
S1130A7020E030E0A9010E94E10C88231CF4C12C81
S1130A80D12C7601C701B601FF90EF90DF90CF9093
S1130A9008958F929F92AF92BF92CF92DF92EF927E
S1130AA0FF92CF93DF9300D000D0CDB7DEB7BE0165
S1130AB06F5F7F4F8CE994E00E94DF01BE016D5FA0
S1130AC07F4F8CE994E00E94C20169817A81072EEC
S1130AD0000C880B990B0E94900D20E030E040EC54
S1130AE05FE30E94450E0E94580DCB010E94DA0478
S1130AF04B015C016B817C81072E000C880B990BE8
S1130B000E94900D20E030E040EC5FE30E94450E2F
S1130B100E94580DCB010E94DA046B017C019B01F9
S1130B20AC01C501B4010E94400E18169CF0A50149
S1130B309401C701B6010E94740C20E030E040E04B
S1130B405FE30E94450E20E030E040E752E40E945B
S1130B50450E03C060E070E0CB010F900F900F9042
S1130B600F90DF91CF91FF90EF90DF90CF90BF90E7
S1130B70AF909F908F9008958F929F92AF92BF9263
S1130B80CF92DF92EF92FF92CF93DF9300D000D009
S1130B90CDB7DEB7BE016F5F7F4F8CE994E00E9452
S1130BA0DF01BE016D5F7F4F8CE994E00E94C201BA
S1130BB069817A81072E000C880B990B0E94900D95
S1130BC020E030E040EC5FE30E94450E0E94580DA7
S1130BD0CB010E94DA046B017C016B817C81072EBE
S1130BE0000C880B990B0E94900D20E030E040EC43
S1130BF05FE30E94450E0E94580DCB010E94DA0467
S1130C004B015C019B01AC01C701B6010E94E10CE0
S1130C1088239CF0A5019401C701B6010E94740CBD
S1130C2020E030E040E05FE30E94450E20E030E049
S1130C3040E752E40E94450E03C060E070E0CB013F
S1130C400F900F900F900F90DF91CF91FF90EF9046
S1130C50DF90CF90BF90AF909F908F9008950E94A7
S1130C607A030895EF92FF920F93CF93DF9300D00E
S1130C70CDB7DEB7E0912001F0912101EF3F2FEFD6
S1130C80F20779F4E0918904F0918A04EE0FFF1FD2
S1130C90E85CFE4F608171818AE392E00E9409045E
S1130CA06FC2E830F10508F065C2EC5CFF4F0C94AC
S1130CB0C60E64E472E08FE492E00E9409040E948C
S1130CC00B059B01AC010F2EFDE5EF2EF2E0FF2E8C
S1130CD0F02D01E060E170E08CE894E00E94D8001F
S1130CE06CE874E08FE492E00E94090449C264E471
S1130CF072E082E692E00E9409040E9449059B0189
S1130D00AC010F2EFEE6EF2EF2E0FF2EF02D01E0F7
S1130D1060E170E08CE894E00E94D8006CE874E034
S1130D2082E692E00E9409042BC264E472E08CE73C
S1130D3092E00E9409040E94BC059B01AC010F2EA5
S1130D40F9E8EF2EF2E0FF2EF02D01E060E170E013
S1130D508CE894E00E94D8006CE874E08CE792E0A0
S1130D600E9409040DC264E472E086E992E00E94E4
S1130D7009040E942F069B01AC010F2EF7EAEF2E07
S1130D80F2E0FF2EF02D01E060E170E08CE894E0E9
S1130D900E94D8006CE874E086E992E00E9409049D
S1130DA0EFC180911A0190911B01019679F4E091B1
S1130DB08104F0918204EE0FFF1FE05DFE4F60811D
S1130DC071818FEA92E00E940904DAC18091810462
S1130DD0909182048130910539F11CF4892B41F002
S1130DE077C082309105E1F1039709F455C070C0D2
S1130DF020917D0430917E0440917F0450918004C1
S1130E000F2EFDE5EF2EF2E0FF2EF02D01E060E164
S1130E1070E08CE894E00E94D8006CE874E084E50B
S1130E2092E00E940904ACC12091790430917A04C3
S1130E3040917B0450917C040F2EF9E8EF2EF2E0F0
S1130E40FF2EF02D01E060E170E08CE894E00E9458
S1130E50D8006CE874E082E692E00E94090490C134
S1130E602091750430917604409177045091780470
S1130E700F2EF9E8EF2EF2E0FF2EF02D01E060E1F5
S1130E8070E08CE894E00E94D8006CE874E089EB90
S1130E9092E00E94090474C120917104309172049B
S1130EA040917304509174040F2EF7EAEF2EF2E090
S1130EB0FF2EF02D01E060E170E08CE894E00E94E8
S1130EC0D8006CE874E083EC92E00E94090458C1F5
S1130ED06DEC72E08FED92E00E94090451C18091A3
S1130EE01E0190911F018F3F2FEF920779F4E0913B
S1130EF08704F0918804EE0FFF1FE45DFE4F6081CC
S1130F0071818DE593E00E9409043AC1009719F0BC
S1130F100197E9F038C020911601309117014091F2
S1130F201801509119010F2EFDE5EF2EF2E0FF2E6E
S1130F30F02D01E060E170E08CE894E00E94D800BC
S1130F406CE874E085EE92E00E94090419C12091D6
S1130F5012013091130140911401509115010F2E8B
S1130F60F7EAEF2EF2E0FF2EF02D02E060E170E0F0
S1130F708CE894E00E94D8006CE874E082EF92E080
S1130F800E940904FDC06BEF72E08FED92E00E94B5
S1130F900904F6C01A82198284EB94E00E941302B9
S1130FA0892BA9F4BE016F5F7F4F84EB94E00E940C
S1130FB01D02892B09F0E4C069817A8161157105EC
S1130FC009F4DEC08BE093E00E940904D9C064E117
S1130FD073E08BE093E00E940904D2C080911C016D
S1130FE090911D018F3F2FEF920779F4E0918504D2
S1130FF0F0918604EE0FFF1FEE5DFE4F608171815C
S113100080E293E00E940904BBC08230910509F498
S113101046C02CF4009759F0019729F1A4C08330FD
S1131020910509F458C0049709F479C09CC0209133
S11310300E0130910F0140911001509111010F2EBA
S1131040F7E2EF2EF3E0FF2EF02D01E060E170E017
S11310508CE894E00E94D8006CE874E08DE293E0A0
S11310600E9409048DC0209106013091070140912E
S11310700801509109010F2EFDE5EF2EF2E0FF2E3D
S1131080F02D01E060E170E08CE894E00E94D8006B
S11310906CE874E087E393E00E94090471C0209136
S11310A002013091030140910401509105010F2E7A
S11310B0F7EAEF2EF2E0FF2EF02D01E060E170E0A0
S11310C08CE894E00E94D8006CE874E086E493E035
S11310D00E94090455C080910101882319F089E216
S11310E092E002C081E392E09F938F938BE691E0BC
S11310F09F938F931F9280E18F938CE894E09F934A
S11311008F930E94160F6CE874E086E593E00E94CA
S113111009040FB6F894DEBF0FBECDBF31C0809175
S11311200001882319F089E292E002C081E392E091
S11311309F938F938BE691E09F938F931F9280E10F
S11311408F938CE894E09F938F930E94160F6CE822
S113115074E086E693E00E9409040FB6F894DEBFBB
S11311600FBECDBF0DC064E773E08FED92E00E9427
S1131170090406C063E873E08FED92E00E9409045D
S11311800F900F90DF91CF910F91FF90EF90089502
S11311908130A9F58091200190912101019609F4F3
S11311A09BC280911E0190911F01019639F08FEF2F
S11311B09FEF90931F0180931E01089580911C015D
S11311C090911D01019639F08FEF9FEF90931D01CF
S11311D080931C01089580911A0190911B0101963E
S11311E039F08FEF9FEF90931B0180931A010895BC
S11311F08FEF9FEF90932101809320010895823017
S113120009F00EC180912001909121018F3F2FEFB1
S1131210920771F48091890490918A048730910532
S113122008F05AC2019690938A0480938904089521
S11312308430910571F4809181049091820483300B
S1131240910508F049C20196909382048093810429
S113125008958530910509F050C080911E01909148
S11312601F018F3F2FEF920769F4809187049091BB
S11312708804009709F030C2019690938804809303
S113128087040895009719F00197E1F008952091DB
S11312900E0130910F0140911001509111016091A4
S11312A016017091170180911801909119010E9403
S11312B0740C609316017093170180931801909336
S11312C01901089520910E0130910F0140911001F0
S11312D050911101609112017091130180911401D8
S11312E0909115010E94740C609312017093130184
S11312F0809314019093150108958630910571F43B
S11313008091830490918404833091050CF0E4C1AE
S1131310019690938404809383040895079709F0B9
S1131320DBC180911C0190911D018F3F2FEF92072B
S113133071F480918504909186048430910508F0BD
S1131340CBC10196909386048093850408958230DE
S1131350910509F444C02CF4009759F0019721F148
S113136008958330910509F455C0049709F455C0D4
S1131370089520910A0130910B0140910C01509184
S11313800D0160910E0170910F01809110019091F7
S113139011010E94740C60930E0170930F018093ED
S11313A0100190931101089520910E0130910F01C5
S11313B04091100150911101609106017091070153
S11313C080910801909109010E94740C60930601B8
S11313D07093070180930801909309010895209167
S11313E00E0130910F014091100150911101609153
S11313F002017091030180910401909105010E9402
S1131400740C609302017093030180930401909320
S113141005010895109201010895109200010895A4
S1131420833009F011C180912001909121018F3FF7
S11314302FEF920771F48091890490918A04181611
S113144019060CF049C1019790938A04809389048A
S113145008958430910571F48091810490918204FF
S1131460181619060CF038C10197909382048093E2
S1131470810408958530910509F051C080911E01C1
S113148090911F018F3F2FEF920771F48091870491
S113149090918804181619060CF01EC101979093B8
S11314A08804809387040895009719F00197E1F068
S11314B0089520910E0130910F0140911001509137
S11314C0110160911601709117018091180190919A
S11314D019010E94750C6093160170931701809393
S11314E0180190931901089520910E0130910F0174
S11314F040911001509111016091120170911301FA
S113150080911401909115010E94750C6093120151
S113151070931301809314019093150108958630FC
S1131520910571F48091830490918404181619062E
S11315300CF0D2C00197909384048093830408959F
S1131540079709F0C9C080911C0190911D018F3F3C
S11315502FEF920771F480918504909186041816F8
S113156019060CF0B9C00197909386048093850402
S113157008958230910509F444C02CF4009759F081
S1131580019721F108958330910509F455C004971A
S113159009F456C0089520910A0130910B0140913D
S11315A00C0150910D0160910E0170910F01809119
S11315B01001909111010E94750C60930E017093BB
S11315C00F018093100190931101089520910E0151
S11315D030910F0140911001509111016091060169
S11315E07091070180910801909109010E94750C86
S11315F06093060170930701809308019093090199
S1131600089520910E0130910F01409110015091E5
S11316101101609102017091030180910401909184
S113162005010E94750C609302017093030180937D
S1131630040190930501089581E0809301010895C8
S113164081E0809300010895843009F045C08091C1
S11316502001909121018F3F2FEF920749F480914F
S1131660890490918A049093210180932001089524
S11316708430910579F480911A0190911B010196AF
S113168059F5809181049091820490931B01809379
S11316901A0108958530910579F480911E01909185
S11316A01F010196C9F48091870490918804909356
S11316B01F0180931E010895079771F480911C0106
S11316C090911D01019641F48091850490918604C6
S11316D090931D0180931C0108951F920F920FB6E1
S11316E00F9211242F933F934F935F936F937F93A4
S11316F08F939F93AF93BF93EF93FF9380918B044A
S11317008F5F80938B0480918B048E3368F01092EA
S11317108B040E94EB03BC018CE994E00E945A0103
S113172098B184E0892788B9FF91EF91BF91AF9177
S11317309F918F917F916F915F914F913F912F91E5
S11317400F900FBE0F901F9018958CE994E00E94A3
S1131750360184EB94E00E94FC010E94C5020E94C1
S1131760AC030E94F0030E944A020E943A0299C00C
S11317700E945502809181049091820481309105E8
S113178019F11CF4892B41F066C082309105A1F156
S1131790039709F449C05FC080917004811109C0A6
S11317A060E973E084E592E00E94090481E080939B
S11317B070040E940B0560937D0470937E048093F3
S11317C07F049093800447C080917004811109C004
S11317D060E973E082E692E00E94090481E080936C
S11317E070040E9449056093790470937A0480938D
S11317F07B0490937C042FC080917004811109C0F4
S113180060E973E089EB92E00E94090481E080932F
S113181070040E94BC0560937504709376048093F1
S113182077049093780417C080917004811109C0E3
S113183060E973E083EC92E00E94090481E0809304
S113184070040E942F066093710470937204809355
S11318507304909374040E9451020E9432062FEF85
S113186083ED90E3215080409040E1F700C00000F8
S11318700E94F703C82F8530A1F0813051F48FEF17
S11318809FEF909321018093200110927004C5E092
S113189015C00E94C8080E94F7038530E1F701C013
S11318A0C5E08091200190912101049739F4809141
S11318B01A0190911B01019609F05ACF0E94320639
S11318C0C53029F40E94F703C82F8530D9F30E944C
S11318D0F703C813E5CF8C2F0E94C8080E94F703B2
S11318E08530E1F7C5E0DDCF5058BB27AA270E9419
S11318F08C0C0C94060E0E94F80D38F00E94FF0D1B
S113190020F039F49F3F19F426F40C94F50D0EF4ED
S1131910E095E7FB0C94EF0DE92F0E94170E58F3A6
S1131920BA17620773078407950720F079F4A6F5C0
S11319300C94390E0EF4E0950B2EBA2FA02D0B014A
S1131940B90190010C01CA01A0011124FF27591B00
S113195099F0593F50F4503E68F11A16F040A22F06
S1131960232F342F4427585FF3CF46953795279577
S1131970A795F0405395C9F77EF41F16BA0B620B76
S1131980730B840BBAF09150A1F0FF0FBB1F661FBD
S1131990771F881FC2F70EC0BA0F621F731F841F00
S11319A048F4879577956795B795F7959E3F08F026
S11319B0B0CF9395880F08F09927EE0F97958795E8
S11319C008950E94CB0D08F481E008950E94FA0C5A
S11319D00C94060E0E94FF0D58F00E94F80D40F082
S11319E029F45F3F29F00C94EF0D51110C943A0E39
S11319F00C94F50D0E94170E68F39923B1F3552347
S1131A0091F3951B550BBB27AA276217730784070D
S1131A1038F09F5F5F4F220F331F441FAA1FA9F3A3
S1131A2035D00E2E3AF0E0E832D091505040E69591
S1131A30001CCAF72BD0FE2F29D0660F771F881FF2
S1131A40BB1F261737074807AB07B0E809F0BB0BE5
S1131A50802DBF01FF2793585F4F3AF09E3F5105F9
S1131A6078F00C94EF0D0C943A0E5F3FE4F3983E3B
S1131A70D4F3869577956795B795F7959F5FC9F7E2
S1131A80880F911D9695879597F90895E1E0660F63
S1131A90771F881FBB1F621773078407BA0720F0DC
S1131AA0621B730B840BBA0BEE1F88F7E095089545
S1131AB00E945F0D6894B1110C943A0E08950E942F
S1131AC01F0E88F09F5798F0B92F9927B751B0F09F
S1131AD0E1F0660F771F881F991F1AF0BA95C9F7AE
S1131AE014C0B13091F00E94390EB1E008950C9405
S1131AF0390E672F782F8827B85F39F0B93FCCF3B8
S1131B00869577956795B395D9F73EF4909580952A
S1131B10709561957F4F8F4F9F4F0895E89409C04A
S1131B2097FB3EF490958095709561957F4F8F4F0C
S1131B309F4F9923A9F0F92F96E9BB279395F69522
S1131B40879577956795B795F111F8CFFAF4BB0FA0
S1131B5011F460FF1BC06F5F7F4F8F4F9F4F16C004
S1131B60882311F096E911C0772321F09EE8872F8E
S1131B70762F05C0662371F096E8862F70E060E04A
S1131B802AF09A95660F771F881FDAF7880F9695C3
S1131B90879597F90895990F0008550FAA0BE0E867
S1131BA0FEEF16161706E807F907C0F0121613061B
S1131BB0E407F50798F0621B730B840B950B39F45B
S1131BC00A2661F0232B242B252B21F408950A26C1
S1131BD009F4A140A6958FEF811D811D089597F901
S1131BE09F6780E870E060E008959FEF80EC0895BF
S1131BF000240A94161617061806090608950024E8
S1131C000A9412161306140605060895092E039461
S1131C10000C11F4882352F0BB0F40F4BF2B11F4D5
S1131C2060FF04C06F5F7F4F8F4F9F4F089557FD34
S1131C309058440F551F59F05F3F71F04795880F36
S1131C4097FB991F61F09F3F79F0879508951216CD
S1131C5013061406551FF2CF4695F1DF08C0161679
S1131C6017061806991FF1CF86957105610508942A
S1131C700895E894BB2766277727CB0197F9089541
S1131C800E94CB0D08F48FEF08950E94580E0C9417
S1131C90060E0E94F80D38F00E94FF0D20F09523E7
S1131CA011F00C94EF0D0C94F50D11240C943A0ED4
S1131CB00E94170E70F3959FC1F3950F50E0551FC6
S1131CC0629FF001729FBB27F00DB11D639FAA278D
S1131CD0F00DB11DAA1F649F6627B00DA11D661FDC
S1131CE0829F2227B00DA11D621F739FB00DA11DFD
S1131CF0621F839FA00D611D221F749F3327A00DB7
S1131D00611D231F849F600D211D822F762F6A2F52
S1131D1011249F5750409AF0F1F088234AF0EE0FB7
S1131D20FF1FBB1F661F771F881F91505040A9F7E4
S1131D309E3F510580F00C94EF0D0C943A0E5F3FDA
S1131D40E4F3983ED4F3869577956795B795F79520
S1131D50E7959F5FC1F7FE2B880F911D9695879598
S1131D6097F9089597FB072E16F4009407D077FD92
S1131D7009D00E94CC0E07FC05D03EF490958195C5
S1131D809F4F0895709561957F4F0895EE0FFF1F43
S1131D900590F491E02D0994AA1BBB1B51E107C0E7
S1131DA0AA1FBB1FA617B70710F0A61BB70B881FE7
S1131DB0991F5A95A9F780959095BC01CD01089576
S1131DC0EF920F931F93CF93DF93E80147FD02C077
S1131DD034E001C034E1042E000C550B57FF03C05E
S1131DE0519541955109E32E022F242FAE010E94F3
S1131DF02711CE01DF91CF911F910F91EF9008959C
S1131E00A0E0B0E0E6E0FFE00C941914AE014B5FF3
S1131E105F4FFA0161917191AF018091CE0490916D
S1131E20CF040E94460FE2E00C943514AEE0B0E01B
S1131E30ECE1FFE00C9417140D891E898F89988DAD
S1131E4026E02C831A83098397FF02C080E090E880
S1131E5001979E838D83AE01455E5F4F698D7A8DB8
S1131E60CE0101960E94460F4D815E8157FD0AC046
S1131E702F813885421753070CF49A01F801E20FB9
S1131E80F31F10822E96E4E00C943314ABE0B0E020
S1131E90ECE4FFE00C9409146C017B018A01FC0161
S1131EA017821682838181FFCCC1CE0101963C0149
S1131EB0F6019381F70193FD859193FF81917F0151
S1131EC0882309F4BAC1853239F493FD859193FFCF
S1131ED081917F01853229F4B60190E00E946F134D
S1131EE0E7CF912C212C312CFFE1F315D8F08B3264
S1131EF079F038F4803279F08332A1F4232D206113
S1131F001DC08D3261F0803369F4232D216016C029
S1131F10832D8260382EE32DE4603E2E2AC0F32DFB
S1131F20F8601DC037FC2DC020ED280F2A3040F08A
S1131F308E32B9F436FC81C1232D2064322E19C0AF
S1131F4036FE06C08AE0989E200D1124922E11C000
S1131F50EAE02E9E200D1124222EF32DF0623F2E56
S1131F6008C08C3621F4832D8068382E02C0883650
S1131F7041F4F70193FD859193FF81917F018111D4
S1131F80B3CF982F9F7D9554933028F40C5F1F4F47
S1131F909FE399830DC0833631F0833771F0833525
S1131FA009F059C021C0F801808189830E5F1F4F59
S1131FB088248394912C530113C02801F2E04F0E1E
S1131FC0511CF801A080B18036FE03C0692D70E079
S1131FD002C06FEF7FEFC5010E9464134C018201C0
S1131FE0F32DFF773F2E16C0280122E0420E511C2C
S1131FF0F801A080B18036FE03C0692D70E002C0F4
S11320006FEF7FEFC5010E9459134C01F32DF06867
S11320103F2E820133FC1BC0822D90E08816990666
S1132020B0F4B60180E290E00E946F132A94F4CFDA
S1132030F50137FC859137FE81915F01B60190E08F
S11320400E946F1321102A9421E0821A91088114AE
S1132050910471F7E8C0843611F0893641F5F8012E
S113206037FE07C060817181828193810C5F1F4FAD
S113207008C060817181072E000C880B990B0E5FDC
S11320801F4FF32DFF763F2E97FF09C09095809543
S1132090709561957F4F8F4F9F4FF0683F2E2AE0D8
S11320A030E0A3010E94AB13882E861845C0853703
S11320B031F4232D2F7EB22E2AE030E025C0932D5B
S11320C0997FB92E8F36C1F018F4883579F0B5C0F0
S11320D0803719F0883721F0B0C0E92FE061BE2EB7
S11320E0B4FE0DC0FB2DF460BF2E09C034FE0AC03F
S11320F0292F2660B22E06C028E030E005C020E17A
S113210030E002C020E132E0F801B7FE07C0608190
S11321107181828193810C5F1F4F06C06081718140
S113212080E090E00E5F1F4FA3010E94AB13882E46
S11321308618FB2DFF773F2E36FE0DC0232D2E7FF4
S1132140A22E891458F434FE0BC032FC09C0832D2E
S11321508E7EA82E05C0B82CA32C03C0B82C01C0B9
S1132160B92CA4FE0FC0FE01E80DF11D808180335F
S113217021F49A2D997EA92E09C0A2FE06C0B3941B
S1132180B39404C08A2D867809F0B394A3FC11C0DB
S1132190A0FE06C0B21488F4280C922C9B180EC022
S11321A0B21460F4B60180E290E00E946F13B3941D
S11321B0F7CFB21418F42B1802C0982C212CA4FECB
S11321C010C0B60180E390E00E946F13A2FE17C016
S11321D0A1FC03C088E790E002C088E590E0B60166
S11321E00CC08A2D867859F0A1FE02C08BE201C092
S11321F080E2A7FC8DE2B60190E00E946F1389147F
S113220038F4B60180E390E00E946F139A94F7CFFC
S11322108A94F301E80DF11D8081B60190E00E94DB
S11322206F138110F5CF222009F442CEB60180E26B
S113223090E00E946F132A94F6CFF601868197816D
S113224002C08FEF9FEF2B96E2E10C942514A9E0D6
S1132250B0E0EDE2F1E10C940F146A01122FB02EFC
S11322602BE3201720F0FF24F394F00E02C02CE39C
S1132270F22E0F2D27E0AE014F5F5F4F0E948112B7
S1132280BC014981842F8970813031F0E1FC06C0A2
S1132290E0FE06C090E205C09DE203C09BE201C0DF
S11322A090E05E2D507143FF3CC0911102C083E069
S11322B001C084E0811718F4212F281B01C020E0FD
S11322C051110BC0F601822F30E2882319F03193AB
S11322D08150FBCFC20ED11C20E0992329F0D601F6
S11322E09C93F60131966F01C6010396E2FE0AC083
S11322F03EE4D6013C9341E411964C931197129617
S11323003C9306C03EE6F601308341E641833283C6
S1132310FC01322F40E2332309F442C0419331508F
S1132320FACF42FF44C0911102C083E001C084E0AF
S1132330811718F4212F281B01C020E051110BC074
S1132340F601822F30E2882319F031938150FBCFBC
S1132350C20ED11C20E0992329F0D6019C93F601EA
S113236031966F01C6010396E2FE0BC039E4D60133
S11323703C933EE411963C93119736E412963C93B9
S113238007C039E6F60130833EE6318336E6328310
S1132390FC01322F40E2332319F041933150FBCF3B
S11323A0FC01E20FF11D10828EEF9FEFA6C021E029
S11323B030E0911102C020E030E0161617061CF43C
S11323C0FB01319602C0E1E0F0E02E0F3F1FBB207D
S11323D021F0EB2DF0E0319602C0E0E0F0E02E0FAA
S11323E03F1FE12FF0E02E173F071CF4121B212F93
S11323F001C020E08E2D887159F4F601822F30E25D
S1132400882319F031938150FBCFC20ED11C20E0F8
S1132410992329F0D6019C93F60131966F0151114D
S11324200BC0F601822F90E3882319F09193815019
S1132430FBCFC20ED11C20E00F2D060F9A81342F42
S1132440307144FF03C0913309F40150101624F491
S1132450093018F008E001C001E0AB0177FF02C0C9
S113246040E050E0FB01E41BF50BA1E0B0E0AC0F51
S1132470BD1FEA0FFB1F8EE2A82E4B01801A9108A4
S11324800B2D10E01195019511094F3FBFEF5B072C
S113249021F4D601AC9211966D01641775072CF0E6
S11324A08416950614F4818101C080E341505109DA
S11324B03196D60111967D014017510724F0D601BB
S11324C08C936701E2CF6417750739F4963320F4CF
S11324D0953319F4311101C081E3F6018083F701CA
S11324E0822F90E2882319F091938150FBCFF7015A
S11324F0E20FF11D108280E090E02996ECE00C944C
S11325002B14283008F027E03327DA01990F311D06
S113251087FD916000966105710539F432602E5F84
S11325203D9330E32A95E1F708959F3F30F08038DA
S11325307105610509F03C5F3C5F3D93913008F003
S11325408068911DDF93CF931F930F93FF92EF92B7
S1132550192F987F9695E92F96959695E90FFF2761
S1132560EE52FF4F99273327EE24FF24A701E701FA
S113257005900894079428F4360FE71EF81E491FA7
S1132580511D660F771F881F991F0694A1F70590A8
S1132590079428F4E70EF81E491F561FC11D770F34
S11325A0881F991F661F0694A1F70590079428F4C5
S11325B0F80E491F561FC71FD11D880F991F661F8C
S11325C0771F0694A1F70590079420F4490F561F2E
S11325D0C71FD81F990F661F771F881F0694A9F776
S11325E084911095177041F0D695C79557954795E6
S11325F0F794E7941A95C1F7E8E7F0E0689415902A
S1132600159135916591959105907FE27395E11847
S1132610F10A430B560BC90BD009C0F7E10CF11EAC
S1132620431F561FC91FD01D7EF4703311F48A95C1
S1132630E6CFE894015030F0080F0AF4002702179F
S113264008F4202F2395022F7A3328F079E37D9321
S11326502A95E9F710C07D932A9589F606949795F3
S11326606795379517951794E118F10A430B560BA4
S1132670C90BD00998F023957E9173957A3308F0AD
S113268070E37C932013B8F77E9170617D9330F0F2
S1132690839571E37D9370E32A95E1F71124EF901C
S11326A0FF900F911F91CF91DF91992787FD90950E
S11326B00895FC010590615070400110D8F7809591
S11326C090958E0F9F1F0895FC01615070400190FA
S11326D00110D8F7809590958E0F9F1F08950F9342
S11326E01F93CF93DF93FB01238121FD03C08FEF61
S11326F09FEF2CC022FF16C046815781248135816B
S11327004217530744F4A081B1819D012F5F3F4FCD
S1132710318320838C93268137812F5F3F4F37830A
S1132720268314C08B01EC01FB010084F185E02DAC
S11327300995892BE1F6D80116968D919C911797EE
S1132740019617969C938E931697CE01DF91CF91A5
S11327501F910F910895FA01AA27283051F12031D1
S113276081F1E8946F936E7F6E5F7F4F8F4F9F4F21
S1132770AF4FB1E03ED0B4E03CD0670F781F891F63
S11327809A1FA11D680F791F8A1F911DA11D6A0F31
S1132790711D811D911DA11D20D009F468943F91E4
S11327A02AE0269F11243019305D3193DEF6CF01E3
S11327B00895462F4770405D4193B3E00FD0C9F7A9
S11327C0F6CF462F4F70405D4A3318F0495D31FD16
S11327D04052419302D0A9F7EACFB4E0A695979569
S11327E0879577956795BA95C9F70097610571053F
S11327F008959B01AC010A2E069457954795379589
S11328002795BA95C9F7620F731F841F951FA01DE2
S113281008952F923F924F925F926F927F928F9280
S11328209F92AF92BF92CF92DF92EF92FF920F935B
S11328301F93CF93DF93CDB7DEB7CA1BDB0B0FB665
S1132840F894DEBF0FBECDBF09942A883988488822
S11328505F846E847D848C849B84AA84B984C884B8
S1132860DF80EE80FD800C811B81AA81B981CE0FAF
S1132870D11D0FB6F894DEBF0FBECDBFED01089594
S1072880F894FFCFF6
S113288401010000C0410000A0410000803E00009E
S1132894003F0000E4410000803FFFFFFFFFFFFF13
S11328A4FFFF9C03A603B803CB03DB03E502F20298
S11328B4E903F203FE030804120420042F043C0475
S11328C44D04570460046904000404041F0E040046
S11328D400040E1F040404000004061F0604000080
S11328E400040C1F0C04000025732025730051758B
S11328F465756520697320656D707479210051755F
S11329046575652066756C6C2C206F7665727772BC
S11329146F7465206F6C6465737420776974683AA6
S11329242025640A00456E7175657565643A202531
S1132934640A00537472696E672071756575652045
S1132944697320656D7074792100656E71756575A0
S1132954655374723A206D616C6C6F6320666169AF
S11329646C6564004D657373616765207175657585
S1132974652066756C6C2C206F76657277726F7443
S113298465206F6C6465737420776974683A2025D4
S1132994730A00456E717565756564206D6573739E
S11329A46167653A2025730A00456E61626C65644B
S11329B40044697361626C6564004D41494E204D65
S11329C4454E55004C6F6164696E672E2E2E00547B
S11329D4414E4B204341504143495459004C747275
S11329E47300524546494C4C2052415445004C74A2
S11329F472732070657220686F7572004C45414B88
S1132A044147452052415445004C7472732070650B
S1132A1472206D696E00534F494C2054454D504506
S1132A245241545552450064656772656573004CA0
S1132A344956452056494557004C45414B2052417F
S1132A44544500534F494C2054454D5000496E762B
S1132A54616C6964206C69766520766965770045E4
S1132A6452524F52004D494E204341504143495420
S1132A7459004D41582054454D5000496E76616CBF
S1132A8469642074726967676572004D45535341E4
S1132A94474553004E6F206D65737361676573001A
S1132AA4434F4E46494700556E6974730053544569
S1132AB4502053495A450050554D502054485245CE
S1132AC453484F4C440053505241592054485245A2
S1132AD453484F4C4400454E41424C4520545249BE
S1132AE4474745525300454E41424C4520414C45CD
S1132AF452545300496E76616C696420636F6E6648
S1132B04696700496E76616C6964206D656E750051
S1132B145570646174696E672E2E2E00537465704B
S1132B242073697A650050756D70696E67207468E6
S1132B34726573686F6C64005370726179696E674F
S1132B44207468726573686F6C6400456E61626CAE
S1132B546520747269676765727300456E61626C9F
S1132B646520616C65727473004361706163697498
S1132B747900526566696C6C2052617465004C6519
S1132B84616B205261746500536F696C2054656DE8
S1132B94700054616E6B20636170616369747900C1
S1132BA4526566696C6C696E672072617465004C69
S1132BB465616B616765207261746500536F696C4C
S1132BC42074656D7065726174757265004C697604
S1132BD46520566965770054726967676572730086
S1132BE44D6573736167657300436F6E666967004F
S9030000FC
