:100000000C94B8000C94D5000C94D5000C94D50039
:100010000C94D5000C94D5000C94D5000C94D5000C
:100020000C94D5000C94D5000C94D5000C94D500FC
:100030000C94D5000C94D5000C94D5000C94D500EC
:100040000C94D5000C94D5000C94D5000C94D500DC
:100050000C94D5000C94D5000C94D5000C94D500CC
:100060000C94D5000C94D50072049004AE04CC041A
:10007000EA044505540500407A10F35A00A0724E78
:1000800018090010A5D4E80000E87648170000E43D
:100090000B54020000CA9A3B000000E1F505000085
:1000A00080969800000040420F000000A0860100EA
:1000B0000000102700000000E803000000006400BA
:1000C000000000000A000000000001000000000025
:1000D0002C76D888DC674F0823DFC1DFAE59E1B149
:1000E000B796E5E3E453C63AE651997696E8E6C258
:1000F0008426EB898C9B62ED407C6FFCEFBC9C9F5F
:1001000040F2BAA56FA5F490055A2AF75C936B6C80
:10011000F9676DC11BFCE0E40D47FEF520E6B50074
:10012000D0ED902E0300943577050080841E0800E2
:1001300000204E0A000000C80C333333330F986E92
:1001400012831141EF8D2114893BE65516CFFEE64F
:10015000DB18D1844B381BF77C1D901DA4BBE42415
:10016000203284725E228100C9F124ECA1E53D2792
:1001700011241FBECFEFD8E0DEBFCDBF13E0A0E05B
:10018000B1E0EEE8F0E202C005900D92A433B107B1
:10019000D9F723E0A4E3B3E001C01D92AC34B20769
:1001A000E1F70E9493080C9445100C940000AF9264
:1001B000BF92CF92DF92EF92FF920F931F93CF9354
:1001C000DF93CDB7DEB768970FB6F894DEBF0FBEEA
:1001D000CDBFD82EC92EB62EA72ECA01B901202F09
:1001E0008E010F5F1F4F40E00E94FB0AE114F104F3
:1001F000C1F0F70180818823A1F0FF92EF921F9355
:100200000F9384E691E09F938F93AF92BF92CF922A
:10021000DF920E941B0B0FB6F894DEBF0FBECDBF5E
:1002200013C0CE0101969F938F9387E691E09F9331
:100230008F93AF92BF92CF92DF920E941B0B0FB6AB
:10024000F894DEBF0FBECDBF68960FB6F894DEBF40
:100250000FBECDBFDF91CF911F910F91FF90EF9017
:10026000DF90CF90BF90AF90089585B1816085B940
:1002700085E08A95F1F7000085B18E7F85B98FE81A
:1002800091E00197F1F700C0000008959BB19F70C5
:100290009BB980FF03C09BB190619BB981FF03C0F4
:1002A0009BB190629BB982FF03C09BB190649BB9E4
:1002B00083FF03C08BB180688BB90E94350108951C
:1002C000CF93C82F85B18D7F85B98C2F82958F7084
:1002D0000E9446018C2F8F700E944601CF91089595
:1002E000CF93C82F85B1826085B98C2F82958F708E
:1002F0000E9446018C2F8F700E944601CF91089575
:100300000F931F93CF938B01877090E0880F991FF5
:10031000880F991F880F991F80640E946001C0E0B8
:1003200007C0F801EC0FF11D80810E947001CF5FC2
:10033000C830B8F380E80E946001CF911F910F91FF
:10034000089584B1836084B98AB1806F8AB92FEF30
:1003500089EF90E0215080409040E1F700C000001C
:1003600083E00E9446018FE19EE40197F1F700C00F
:10037000000083E00E94460187E592E00197F1F7D3
:1003800000C0000083E00E94460182E00E94460116
:1003900088E20E9460018CE00E94600186E00E9479
:1003A000600181E00E9460018FE39FE10197F1F716
:1003B00000C00000089587B1816087B988B18E7F41
:1003C00088B98FE797E00197F1F700C0000087B187
:1003D0008E7F87B9EFEEF0E03197F1F700C00000B3
:1003E00096B181E089278170EFE8F6E03197F1F767
:1003F00000C00000089597B1916097B998B19E7FB1
:1004000098B9882371F085E08A95F1F7000087B1EB
:100410008E7F87B98FEE90E00197F1F700C0000062
:1004200008958FEE90E00197F1F700C0000087B1CA
:100430008E7F87B90895CF93DF93D82FC0E006C091
:100440008D2F81700E94FB01D695CF5FC830C0F31D
:10045000DF91CF91089587B1816087B988B18E7F90
:1004600088B98AE08A95F1F700C087B18E7F87B995
:10047000E5E3EA95F1F7000086B18170E7ECF0E082
:100480003197F1F700C000000895CF93DF93C0E0EB
:10049000D0E006C0D6950E942B028111D068CF5FB4
:1004A000C830C0F38D2FDF91CF910895CF930E9474
:1004B000DB018CEC0E941B0284E40E941B022FEFE4
:1004C0008EE994E2215080409040E1F700C00000A6
:1004D0000E94DB018CEC0E941B028EEB0E941B022F
:1004E0000E944502C82F0E944502682F70E0762FB7
:1004F00066276C2B072E000C880B990B0E94D309E2
:1005000020E030E040E85DE30E94880ACF91089542
:100510008AB184608AB98AB1877F8AB908958BB11C
:100520008B7F8BB92FEF83EC99E021508040904076
:10053000E1F700C000008BB184608BB92FEF83EC32
:1005400099E0215080409040E1F700C000008BB15D
:100550008B7F8BB908954B9BFECF60E070E0CB01A1
:1005600008C025E02A95F1F700006F5F7F4F8F4F9D
:100570009F4F4B99F6CF0E94D10920E030E048E62A
:1005800052E40E9430090E94A209CB0108950E9402
:100590008F020E94AB02089584B1837C84B985B137
:1005A0008C6385B908951A9B08C01B9B08C01C9BCF
:1005B00008C01D9908C084E0089581E0089582E094
:1005C000089583E0089585E008950F931F93CF93D6
:1005D000DF93CDB7DEB7EC970FB6F894DEBF0FBE52
:1005E000CDBFDC018B018FE39FE10197F1F700C0E4
:1005F000000020E030E00AC01196E1E0F0E0EC0FEE
:10060000FD1FE20FF31F80832F5F3F4F2C3031051A
:1006100074F48C918111F0CF0AC0E1E0F0E0EC0FAE
:10062000FD1FE20FF31F80E280832F5F3F4F2C30CE
:1006300031059CF388E0E4E4F1E0DE015D96019091
:100640000D928A95E1F788E0ECE4F1E0DE01959601
:1006500001900D928A95E1F788E0E4E5F1E0DE0192
:100660009D9601900D928A95E1F788E0ECE5F1E026
:10067000DE01D59601900D928A95E1F7BE01635E89
:100680007F4F80E00E948001BE016B5D7F4F81E063
:100690000E948001BE016B5C7F4F82E00E9480015E
:1006A000BE01635D7F4F83E00E94800180E090E0A7
:1006B0000AC00F5F1F4FEDE0F0E0EC0FFD1FE80FE9
:1006C000F91F208301968031910574F4F80120818F
:1006D0002111EFCF09C0EDE0F0E0EC0FFD1FE80FB6
:1006E000F91F20E22083019680319105A4F380E870
:1006F0000E94600100E010E00BC0E1E0F0E0EC0FD0
:10070000FD1FE00FF11F80810E9470010F5F1F4FDE
:100710000C30110594F382E00E94700180E00E9489
:10072000700181E00E94700183E00E94700180EC02
:100730000E94600100E010E00BC0EDE0F0E0EC0F83
:10074000FD1FE00FF11F80810E9470010F5F1F4F9E
:100750000031110594F3EC960FB6F894DEBF0FBE8E
:10076000CDBFDF91CF911F910F9108950E94C702D5
:1007700060E273E0681B790B80E090E00E94D10991
:100780002AE534E14DE952E40E94880A20E030E095
:100790004AE754E40E94300908958F929F92AF92E5
:1007A000BF92CF92DF92EF92FF920E94B6034B016D
:1007B0005C012FEF87EA91E6215080409040E1F7FD
:1007C00000C000000E94B6036B017C019B01AC01DC
:1007D000C501B4010E94830A18169CF0A50194017A
:1007E000C701B6010E94BE0820E030E040E05FE3B0
:1007F0000E94880A20E030E040E752E40E94880A24
:1008000003C060E070E0CB01FF90EF90DF90CF90ED
:10081000BF90AF909F908F9008958F929F92AF92CC
:10082000BF92CF92DF92EF92FF920E94B6036B01CC
:100830007C012FEF87EA91E6215080409040E1F75C
:1008400000C000000E94B6034B015C019B01AC019B
:10085000C701B6010E942B0988239CF0A5019401D1
:10086000C701B6010E94BE0820E030E040E05FE32F
:100870000E94880A20E030E040E752E40E94880AA3
:1008800003C060E070E0CB01FF90EF90DF90CF906D
:10089000BF90AF909F908F9008950E945602089548
:1008A000EF92FF920F93E0911E01F0911F01EF3F35
:1008B0002FEFF20779F4E0913A03F0913B03EE0F4A
:1008C000FF1FEA5CFE4F608171818BE791E00E941F
:1008D000E502C2C1E730F10508F0B8C1EC5CFF4F9A
:1008E0000C94F50A65E871E080E991E00E94E50268
:1008F0000E94B6039B01AC010F2EFEE9EF2EF1E042
:10090000FF2EF02D01E060E170E08CE393E00E94A7
:10091000D7006CE373E080E991E00E94E5029CC19E
:1009200065E871E083EA91E00E94E5020E94CD0350
:100930009B01AC010F2EFFEAEF2EF1E0FF2EF02D10
:1009400001E060E170E08CE393E00E94D7006CE38B
:1009500073E083EA91E00E94E5027EC165E871E000
:100960008CEB91E00E94E5020E940D049B01AC011A
:100970000F2EFFEAEF2EF1E0FF2EF02D01E060E1F7
:1009800070E08CE393E00E94D7006CE373E08CEBA3
:1009900091E00E94E50260C165E871E089EC91E0B8
:1009A0000E94E5020E944D049B01AC010F2EFAED5E
:1009B000EF2EF1E0FF2EF02D01E060E170E08CE31E
:1009C00093E00E94D7006CE373E089EC91E00E9411
:1009D000E50242C180911C0190911D018F3F2FEFD4
:1009E000920779F4E0913803F0913903EE0FFF1F7D
:1009F000EE5CFE4F6081718184E592E00E94E50229
:100A00002BC1009719F00197E9F038C02091160129
:100A10003091170140911801509119010F2EFEE9F4
:100A2000EF2EF1E0FF2EF02D01E060E170E08CE3AD
:100A300093E00E94D7006CE373E082EE91E00E94A5
:100A4000E5020AC120911201309113014091140175
:100A5000509115010F2EFAEDEF2EF1E0FF2EF02D43
:100A600002E060E170E08CE393E00E94D7006CE369
:100A700073E08FEE91E00E94E502EEC068EF71E056
:100A800088E092E00E94E502E7C0E0913403F09133
:100A90003503EE0FFF1FE05EFE4F608171818EE037
:100AA00092E00E94E502D8C080911A0190911B014A
:100AB0008F3F2FEF920779F4E0913603F0913703DF
:100AC000EE0FFF1FE85DFE4F6081718187E192E0CC
:100AD0000E94E502C1C08230910509F446C02CF4A1
:100AE000009759F0019729F1AAC08330910509F4C4
:100AF00058C0049709F47CC0A2C020910E01309127
:100B00000F0140911001509111010F2EFEE1EF2EC7
:100B1000F2E0FF2EF02D01E060E170E08CE393E065
:100B20000E94D7006CE373E084E292E00E94E50249
:100B300093C0209106013091070140910801509126
:100B400009010F2EFEE9EF2EF1E0FF2EF02D01E05E
:100B500060E170E08CE393E00E94D7006CE373E007
:100B60008EE292E00E94E50277C02091020130916E
:100B7000030140910401509105010F2EFAEDEF2E73
:100B8000F1E0FF2EF02D01E060E170E08CE393E0F6
:100B90000E94D7006CE373E08DE392E00E94E502CF
:100BA0005BC080910101882319F08AE691E002C0C0
:100BB00082E791E09F938F9387E691E09F938F93D5
:100BC0001F9280E18F938CE393E09F938F930E9419
:100BD0001B0B6CE373E08DE492E00E94E5028DB79D
:100BE0009EB708960FB6F8949EBF0FBE8DBF34C057
:100BF00080910001882319F08AE691E002C082E723
:100C000091E09F938F9387E691E09F938F931F923C
:100C100080E18F938CE393E09F938F930E941B0B53
:100C20006CE373E08DE592E00E94E5028DB79EB71C
:100C300008960FB6F8949EBF0FBE8DBF0DC06BE631
:100C400072E088E092E00E94E50206C06AE772E086
:100C500088E092E00E94E5020F91FF90EF900895E6
:100C6000813041F580911E0190911F01019609F498
:100C700059C280911C0190911D01019639F08FEFAE
:100C80009FEF90931D0180931C01089580911A019C
:100C900090911B01019639F08FEF9FEF90931B010C
:100CA00080931A0108958FEF9FEF90931F01809317
:100CB0001E010895823009F0FDC080911E019091BF
:100CC0001F018F3F2FEF920771F480913A039091AB
:100CD0003B03863091050CF025C2019690933B03AF
:100CE00080933A0308958430910509F050C08091B3
:100CF0001C0190911D018F3F2FEF920769F48091A5
:100D0000380390913903009709F00CC20196909333
:100D10003903809338030895009719F00197E1F0A3
:100D2000089520910E0130910F01409110015091D2
:100D30001101609116017091170180911801909135
:100D400019010E94BE0860931601709317018093E9
:100D5000180190931901089520910E0130910F010F
:100D60004091100150911101609112017091130195
:100D700080911401909115010E94BE0860931201A8
:100D80007093130180931401909315010895853099
:100D9000910571F48091340390913503833091056E
:100DA0000CF0C0C1019690933503809334030895ED
:100DB000069709F0B7C180911A0190911B018F3FEE
:100DC0002FEF920771F480913603909137038430AE
:100DD000910508F0A7C101969093370380933603DD
:100DE00008958230910509F444C02CF4009759F01D
:100DF000019721F108958330910509F455C00497B6
:100E000009F455C0089520910A0130910B014091D9
:100E10000C0150910D0160910E0170910F018091B4
:100E20001001909111010E94BE0860930E01709311
:100E30000F018093100190931101089520910E01EC
:100E400030910F0140911001509111016091060104
:100E50007091070180910801909109010E94BE08DC
:100E60006093060170930701809308019093090134
:100E7000089520910E0130910F0140911001509181
:100E80001101609102017091030180910401909120
:100E900005010E94BE0860930201709303018093D4
:100EA0000401909305010895109201010895109294
:100EB00000010895833009F000C180911E019091D6
:100EC0001F018F3F2FEF920771F480913A039091A9
:100ED0003B03181619060CF025C1019790933B03AC
:100EE00080933A0308958430910509F051C08091B0
:100EF0001C0190911D018F3F2FEF920771F480919B
:100F0000380390913903181619060CF00BC101979C
:100F100090933903809338030895009719F001974F
:100F2000E1F0089520910E0130910F0140911001E0
:100F30005091110160911601709117018091180173
:100F4000909119010E94BF086093160170931701D8
:100F50008093180190931901089520910E0130910A
:100F60000F01409110015091110160911201709197
:100F7000130180911401909115010E94BF086093A4
:100F80001201709313018093140190931501089539
:100F90008530910571F480913403909135031816D2
:100FA00019060CF0BFC0019790933503809334036A
:100FB0000895069709F0B6C080911A0190911B011F
:100FC0008F3F2FEF920771F4809136039091370392
:100FD000181619060CF0A6C001979093370380935A
:100FE000360308958230910509F444C02CF400972B
:100FF00059F0019721F108958330910509F455C006
:10100000049709F456C0089520910A0130910B010C
:1010100040910C0150910D0160910E0170910F01F2
:1010200080911001909111010E94BF0860930E0100
:1010300070930F01809310019093110108952091F6
:101040000E0130910F0140911001509111016091FA
:1010500006017091070180910801909109010E9499
:10106000BF08609306017093070180930801909375
:101070000901089520910E0130910F014091100156
:10108000509111016091020170910301809104015E
:10109000909105010E94BF086093020170930301C3
:1010A0008093040190930501089581E080930101EC
:1010B000089581E0809300010895843099F580912E
:1010C0001E0190911F018F3F2FEF920749F48091ED
:1010D0003A0390913B0390931F0180931E01089562
:1010E0008430910579F480911C0190911D01019645
:1010F000C9F4809138039091390390931D01809336
:101100001C010895069771F480911A0190911B01BA
:10111000019641F4809136039091370390931B011F
:1011200080931A0108950E94A1010E9488020E94E2
:10113000CC020E9450042FEF89EF90E021508040B4
:101140009040E1F700C000000E94D302C82F853014
:10115000D9F32FEF89EF90E0215080409040E1F7E4
:1011600000C000000E94D302C813E3CF8C2F0E945E
:1011700030060E94D3028530E1F7DBCF5058BB2701
:10118000AA270E94D6080C94490A0E943B0A38F00C
:101190000E94420A20F039F49F3F19F426F40C947F
:1011A000380A0EF4E095E7FB0C94320AE92F0E940E
:1011B0005A0A58F3BA17620773078407950720F095
:1011C00079F4A6F50C947C0A0EF4E0950B2EBA2F58
:1011D000A02D0B01B90190010C01CA01A00111243D
:1011E000FF27591B99F0593F50F4503E68F11A16E9
:1011F000F040A22F232F342F4427585FF3CF46957A
:1012000037952795A795F0405395C9F77EF41F169B
:10121000BA0B620B730B840BBAF09150A1F0FF0F65
:10122000BB1F661F771F881FC2F70EC0BA0F621F51
:10123000731F841F48F4879577956795B795F79541
:101240009E3F08F0B0CF9395880F08F09927EE0FD6
:101250009795879508950E940E0A08F481E00895F5
:101260000E9444090C94490A0E94420A58F00E94C4
:101270003B0A40F029F45F3F29F00C94320A5111E7
:101280000C947D0A0C94380A0E945A0A68F3992338
:10129000B1F3552391F3951B550BBB27AA27621772
:1012A0007307840738F09F5F5F4F220F331F441F7F
:1012B000AA1FA9F335D00E2E3AF0E0E832D09150B3
:1012C0005040E695001CCAF72BD0FE2F29D0660FA0
:1012D000771F881FBB1F261737074807AB07B0E8E3
:1012E00009F0BB0B802DBF01FF2793585F4F3AF0E9
:1012F0009E3F510578F00C94320A0C947D0A5F3FB2
:10130000E4F3983ED4F3869577956795B795F7956E
:101310009F5FC9F7880F911D9695879597F9089556
:10132000E1E0660F771F881FBB1F621773078407F2
:10133000BA0720F0621B730B840BBA0BEE1F88F701
:10134000E09508950E94620A88F09F5798F0B92F9F
:101350009927B751B0F0E1F0660F771F881F991FEA
:101360001AF0BA95C9F714C0B13091F00E947C0A06
:10137000B1E008950C947C0A672F782F8827B85F16
:1013800039F0B93FCCF3869577956795B395D9F742
:101390003EF490958095709561957F4F8F4F9F4F4C
:1013A0000895E89409C097FB3EF490958095709558
:1013B00061957F4F8F4F9F4F9923A9F0F92F96E9A1
:1013C000BB279395F695879577956795B795F11116
:1013D000F8CFFAF4BB0F11F460FF1BC06F5F7F4FB3
:1013E0008F4F9F4F16C0882311F096E911C07723C5
:1013F00021F09EE8872F762F05C0662371F096E8CE
:10140000862F70E060E02AF09A95660F771F881F9C
:10141000DAF7880F9695879597F90895990F000840
:10142000550FAA0BE0E8FEEF16161706E807F907B6
:10143000C0F012161306E407F50798F0621B730B51
:10144000840B950B39F40A2661F0232B242B252BD2
:1014500021F408950A2609F4A140A6958FEF811D75
:10146000811D089597F99F6780E870E060E0089516
:101470009FEF80EC089500240A94161617061806AC
:101480000906089500240A94121613061406050688
:101490000895092E0394000C11F4882352F0BB0F19
:1014A00040F4BF2B11F460FF04C06F5F7F4F8F4F7C
:1014B0009F4F089557FD9058440F551F59F05F3FB7
:1014C00071F04795880F97FB991F61F09F3F79F066
:1014D00087950895121613061406551FF2CF4695E8
:1014E000F1DF08C0161617061806991FF1CF86956A
:1014F0007105610508940895E894BB27662777274E
:10150000CB0197F908950E940E0A08F48FEF089511
:101510000E949B0A0C94490A0E943B0A38F00E94E0
:10152000420A20F0952311F00C94320A0C94380AE8
:1015300011240C947D0A0E945A0A70F3959FC1F3FE
:10154000950F50E0551F629FF001729FBB27F00D71
:10155000B11D639FAA27F00DB11DAA1F649F6627C6
:10156000B00DA11D661F829F2227B00DA11D621F15
:10157000739FB00DA11D621F839FA00D611D221FCF
:10158000749F3327A00D611D231F849F600D211DB3
:10159000822F762F6A2F11249F5750409AF0F1F036
:1015A00088234AF0EE0FFF1FBB1F661F771F881F9F
:1015B00091505040A9F79E3F510580F00C94320A9B
:1015C0000C947D0A5F3FE4F3983ED4F386957795BB
:1015D0006795B795F795E7959F5FC1F7FE2B880F45
:1015E000911D9695879597F90895EE0FFF1F059029
:1015F000F491E02D0994EF920F931F93CF93DF9313
:10160000E80147FD02C034E001C034E1042E000CC3
:10161000550B57FF03C0519541955109E32E022FF9
:10162000242FAE010E942C0DCE01DF91CF911F918E
:101630000F91EF900895AEE0B0E0E1E2FBE00C9492
:101640001C100D891E898F89988D26E02C831A83A2
:10165000098397FF02C080E090E801979E838D8305
:10166000AE01455E5F4F698D7A8DCE0101960E9475
:101670004B0B4D815E8157FD0AC02F813885421783
:1016800053070CF49A01F801E20FF31F10822E9613
:10169000E4E00C943810ABE0B0E0E1E5FBE00C9442
:1016A0000E106C017B018A01FC0117821682838176
:1016B00081FFCCC1CE0101963C01F6019381F70177
:1016C00093FD859193FF81917F01882309F4BAC12D
:1016D000853239F493FD859193FF81917F018532A5
:1016E00029F4B60190E00E94740FE7CF912C212CD1
:1016F000312CFFE1F315D8F08B3279F038F48032D9
:1017000079F08332A1F4232D20611DC08D3261F068
:10171000803369F4232D216016C0832D8260382E1A
:10172000E32DE4603E2E2AC0F32DF8601DC037FC87
:101730002DC020ED280F2A3040F08E32B9F436FC4F
:1017400081C1232D2064322E19C036FE06C08AE0E6
:10175000989E200D1124922E11C0EAE02E9E200D9D
:101760001124222EF32DF0623F2E08C08C3621F476
:10177000832D8068382E02C0883641F4F70193FD2E
:10178000859193FF81917F018111B3CF982F9F7D28
:101790009554933028F40C5F1F4F9FE399830DC03D
:1017A000833631F0833771F0833509F059C021C099
:1017B000F801808189830E5F1F4F88248394912CC8
:1017C000530113C02801F2E04F0E511CF801A08014
:1017D000B18036FE03C0692D70E002C06FEF7FEF6D
:1017E000C5010E94690F4C018201F32DFF773F2E46
:1017F00016C0280122E0420E511CF801A080B180E1
:1018000036FE03C0692D70E002C06FEF7FEFC501A7
:101810000E945E0F4C01F32DF0683F2E820133FCD5
:101820001BC0822D90E088169906B0F4B60180E2C4
:1018300090E00E94740F2A94F4CFF50137FC859153
:1018400037FE81915F01B60190E00E94740F211074
:101850002A9421E0821A91088114910471F7E8C05A
:10186000843611F0893641F5F80137FE07C06081F2
:101870007181828193810C5F1F4F08C060817181EB
:10188000072E000C880B990B0E5F1F4FF32DFF7670
:101890003F2E97FF09C090958095709561957F4F79
:1018A0008F4F9F4FF0683F2E2AE030E0A3010E9447
:1018B000B00F882E861845C0853731F4232D2F7E32
:1018C000B22E2AE030E025C0932D997FB92E8F36B5
:1018D000C1F018F4883579F0B5C0803719F0883731
:1018E00021F0B0C0E92FE061BE2EB4FE0DC0FB2D8B
:1018F000F460BF2E09C034FE0AC0292F2660B22E24
:1019000006C028E030E005C020E130E002C020E160
:1019100032E0F801B7FE07C0608171818281938156
:101920000C5F1F4F06C06081718180E090E00E5F08
:101930001F4FA3010E94B00F882E8618FB2DFF7742
:101940003F2E36FE0DC0232D2E7FA22E891458F473
:1019500034FE0BC032FC09C0832D8E7EA82E05C03C
:10196000B82CA32C03C0B82C01C0B92CA4FE0FC006
:10197000FE01E80DF11D8081803321F49A2D997EBE
:10198000A92E09C0A2FE06C0B394B39404C08A2D48
:10199000867809F0B394A3FC11C0A0FE06C0B2146F
:1019A00088F4280C922C9B180EC0B21460F4B60177
:1019B00080E290E00E94740FB394F7CFB21418F451
:1019C0002B1802C0982C212CA4FE10C0B60180E375
:1019D00090E00E94740FA2FE17C0A1FC03C088E72C
:1019E00090E002C088E590E0B6010CC08A2D8678B0
:1019F00059F0A1FE02C08BE201C080E2A7FC8DE29B
:101A0000B60190E00E94740F891438F4B60180E3A7
:101A100090E00E94740F9A94F7CF8A94F301E80D36
:101A2000F11D8081B60190E00E94740F8110F5CF06
:101A3000222009F442CEB60180E290E00E94740FA9
:101A40002A94F6CFF6018681978102C08FEF9FEF2F
:101A50002B96E2E10C942A10A9E0B0E0E2E3FDE06D
:101A60000C9414106A01122FB02E2BE3201720F0D3
:101A7000FF24F394F00E02C02CE3F22E0F2D27E08A
:101A8000AE014F5F5F4F0E94860EBC014981842FDB
:101A90008970813031F0E1FC06C0E0FE06C090E2C2
:101AA00005C09DE203C09BE201C090E05E2D507135
:101AB00043FF3CC0911102C083E001C084E0811764
:101AC00018F4212F281B01C020E051110BC0F60192
:101AD000822F30E2882319F031938150FBCFC20E60
:101AE000D11C20E0992329F0D6019C93F601319670
:101AF0006F01C6010396E2FE0AC03EE4D6013C93A4
:101B000041E411964C93119712963C9306C03EE621
:101B1000F601308341E641833283FC01322F40E2FB
:101B2000332309F442C041933150FACF42FF44C0FD
:101B3000911102C083E001C084E0811718F4212FC5
:101B4000281B01C020E051110BC0F601822F30E2AA
:101B5000882319F031938150FBCFC20ED11C20E0B5
:101B6000992329F0D6019C93F60131966F01C601A5
:101B70000396E2FE0BC039E4D6013C933EE4119695
:101B80003C93119736E412963C9307C039E6F60170
:101B900030833EE6318336E63283FC01322F40E269
:101BA000332319F041933150FBCFFC01E20FF11DBB
:101BB00010828EEF9FEFA6C021E030E0911102C0AD
:101BC00020E030E0161617061CF4FB01319602C027
:101BD000E1E0F0E02E0F3F1FBB2021F0EB2DF0E005
:101BE000319602C0E0E0F0E02E0F3F1FE12FF0E061
:101BF0002E173F071CF4121B212F01C020E08E2D51
:101C0000887159F4F601822F30E2882319F031935C
:101C10008150FBCFC20ED11C20E0992329F0D601C0
:101C20009C93F60131966F0151110BC0F601822F82
:101C300090E3882319F091938150FBCFC20ED11C01
:101C400020E00F2D060F9A81342F307144FF03C01E
:101C5000913309F40150101624F4093018F008E00B
:101C600001C001E0AB0177FF02C040E050E0FB01A2
:101C7000E41BF50BA1E0B0E0AC0FBD1FEA0FFB1FAA
:101C80008EE2A82E4B01801A91080B2D10E01195C1
:101C9000019511094F3FBFEF5B0721F4D601AC92CC
:101CA00011966D01641775072CF08416950614F4CF
:101CB000818101C080E3415051093196D6011196CE
:101CC0007D014017510724F0D6018C936701E2CFC4
:101CD0006417750739F4963320F4953319F43111EC
:101CE00001C081E3F6018083F701822F90E288230F
:101CF00019F091938150FBCFF701E20FF11D108293
:101D000080E090E02996ECE00C943010283008F048
:101D100027E03327DA01990F311D87FD9160009686
:101D20006105710539F432602E5F3D9330E32A95E9
:101D3000E1F708959F3F30F080387105610509F0A3
:101D40003C5F3C5F3D93913008F08068911DDF93CC
:101D5000CF931F930F93FF92EF92192F987F969531
:101D6000E92F96959695E90FFF27E053FF4F9927A6
:101D70003327EE24FF24A701E70105900894079478
:101D800028F4360FE71EF81E491F511D660F771FF6
:101D9000881F991F0694A1F70590079428F4E70E71
:101DA000F81E491F561FC11D770F881F991F661FF8
:101DB0000694A1F70590079428F4F80E491F561FC2
:101DC000C71FD11D880F991F661F771F0694A1F7A3
:101DD0000590079420F4490F561FC71FD81F990F6D
:101DE000661F771F881F0694A9F7849110951770B6
:101DF00041F0D695C79557954795F794E7941A956E
:101E0000C1F7E6E7F0E0689415901591359165917A
:101E1000959105907FE27395E118F10A430B560BFB
:101E2000C90BD009C0F7E10CF11E431F561FC91F93
:101E3000D01D7EF4703311F48A95E6CFE8940150FA
:101E400030F0080F0AF40027021708F4202F23951A
:101E5000022F7A3328F079E37D932A95E9F710C0B1
:101E60007D932A9589F606949795679537951795EA
:101E70001794E118F10A430B560BC90BD00998F0DF
:101E800023957E9173957A3308F070E37C93201349
:101E9000B8F77E9170617D9330F0839571E37D9307
:101EA00070E32A95E1F71124EF90FF900F911F91B5
:101EB000CF91DF91992787FD90950895FC010590BA
:101EC000615070400110D8F7809590958E0F9F1F3C
:101ED0000895FC016150704001900110D8F7809581
:101EE00090958E0F9F1F08950F931F93CF93DF93AD
:101EF000FB01238121FD03C08FEF9FEF2CC022FF48
:101F000016C046815781248135814217530744F416
:101F1000A081B1819D012F5F3F4F318320838C933E
:101F2000268137812F5F3F4F3783268314C08B0173
:101F3000EC01FB010084F185E02D0995892BE1F688
:101F4000D80116968D919C911797019617969C93A0
:101F50008E931697CE01DF91CF911F910F91089527
:101F6000FA01AA27283051F1203181F1E8946F93CA
:101F70006E7F6E5F7F4F8F4F9F4FAF4FB1E03ED070
:101F8000B4E03CD0670F781F891F9A1FA11D680F0E
:101F9000791F8A1F911DA11D6A0F711D811D911D41
:101FA000A11D20D009F468943F912AE0269F1124B6
:101FB0003019305D3193DEF6CF010895462F47701A
:101FC000405D4193B3E00FD0C9F7F6CF462F4F7075
:101FD000405D4A3318F0495D31FD4052419302D0D3
:101FE000A9F7EACFB4E0A695979587957795679579
:101FF000BA95C9F700976105710508959B01AC0179
:102000000A2E06945795479537952795BA95C9F79F
:10201000620F731F841F951FA01D08952F923F927A
:102020004F925F926F927F928F929F92AF92BF92E8
:10203000CF92DF92EF92FF920F931F93CF93DF9394
:10204000CDB7DEB7CA1BDB0B0FB6F894DEBF0FBEF1
:10205000CDBF09942A88398848885F846E847D843E
:102060008C849B84AA84B984C884DF80EE80FD8040
:102070000C811B81AA81B981CE0FD11D0FB6F894B6
:0E208000DEBF0FBECDBFED010895F894FFCF77
:10208E0001010000C0410000A0410000803E0000A0
:10209E00003F0000E4410000803FFFFFFFFFFFFF15
:1020AE00870287028702870292029C02AE02C10259
:1020BE00D102E201EF01DF02ED02FC0209031A0375
:1020CE0023032C03000404041F0E040000040E1F3F
:1020DE00040404000004061F0604000000040C1F84
:1020EE000C040000257320257300456E61626C653B
:1020FE00640044697361626C6564004D41494E2011
:10210E004D454E55004C6F6164696E672E2E2E0044
:10211E0054414E4B204341504143495459004C7455
:10212E00727300524546494C4C2052415445004C66
:10213E0074727320706572206D696E004C45414B50
:10214E00414745205241544500534F494C20544578
:10215E004D50455241545552450064656772656550
:10216E0073004D494E204341504143495459004D4F
:10217E0041582054454D5000496E76616C6964207B
:10218E0074726967676572004552524F52004D4531
:10219E0053534147455300434F4E46494700556EF2
:1021AE0069747300535445502053495A4500505595
:1021BE004D50205448524553484F4C4400535052B2
:1021CE004159205448524553484F4C4400454E41C6
:1021DE00424C4520545249474745525300454E41C3
:1021EE00424C4520414C4552545300496E76616C29
:1021FE00696420636F6E66696700496E76616C690B
:10220E0064206D656E75004E6F206D65737361672A
:10221E006500537465702073697A650050756D7032
:10222E00696E67207468726573686F6C64005370B2
:10223E00726179696E67207468726573686F6C6419
:10224E0000456E61626C65207472696767657273B2
:10225E0000456E61626C6520616C6572747300542A
:10226E00616E6B206361706163697479005265669B
:10227E00696C6C696E672072617465004C65616B88
:10228E00616765207261746500536F696C207465B7
:10229E006D706572617475726500547269676765F9
:1022AE007273004D6573736167657300436F6E667D
:0422BE00696700004C
:00000001FF
