S0100000776F726B61626C652E73726563BD
S11300000C94B9000C94D6000C94D6000C94D60031
S11300100C94D6000C94D6000C94D6000C94D60004
S11300200C94D6000C94170B0C94D6000C94D600A8
S11300300C94D6000C94D6000C94D6000C94D600E4
S11300400C94D6000C94D6000C94D6000C94D600D4
S11300500C94D6000C94D6000C94D6000C94D600C4
S11300600C94D6000C94D60016063406520670067C
S11300708E062C078707960700407A10F35A00A0D3
S1130080724E18090010A5D4E80000E8764817005D
S113009000E40B54020000CA9A3B000000E1F5059D
S11300A0000080969800000040420F000000A086E7
S11300B001000000102700000000E8030000000019
S11300C06400000000000A000000000001000000BD
S11300D000002C76D888DC674F0823DFC1DFAE59D7
S11300E0E1B1B796E5E3E453C63AE651997696E86A
S11300F0E6C28426EB898C9B62ED407C6FFCEFBCEE
S11301009C9F40F2BAA56FA5F490055A2AF75C9318
S11301106B6CF9676DC11BFCE0E40D47FEF520E64E
S1130120B500D0ED902E0300943577050080841E31
S1130130080000204E0A000000C80C333333330F8C
S1130140986E12831141EF8D2114893BE65516CF29
S1130150FEE6DB18D1844B381BF77C1D901DA4BB35
S1130160E424203284725E228100C9F124ECA1E5EA
S11301703D2711241FBECFEFD8E0DEBFCDBF14E072
S1130180A0E0B1E0E2E0F8E202C005900D92A230F6
S1130190B107D9F724E0A2E0B4E001C01D92AC3469
S11301A0B207E1F70E944F0B0C94FF130C9400006C
S11301B0AF92BF92CF92DF92EF92FF920F931F9371
S11301C0CF93DF93CDB7DEB768970FB6F894DEBF51
S11301D00FBECDBFD82EC92EB62EA72ECA01B90187
S11301E0202F8E010F5F1F4F40E00E949F0EE114ED
S11301F0F104C1F0F70180818823A1F0FF92EF920E
S11302001F930F9380E791E09F938F93AF92BF92D8
S1130210CF92DF920E94D50E0FB6F894DEBF0FBEC8
S1130220CDBF13C0CE0101969F938F9383E791E0D6
S11302309F938F93AF92BF92CF92DF920E94D50E7D
S11302400FB6F894DEBF0FBECDBF68960FB6F89414
S1130250DEBF0FBECDBFDF91CF911F910F91FF90F5
S1130260EF90DF90CF90BF90AF9008952FEF3FEFC6
S1130270FC01358B248B378B268B0895FC01248954
S1130280358981E02F3F3F4F09F080E090E00895E9
S1130290FC018689978901966AE070E00E94710EDC
S11302A0AC012489358981E04217530709F080E0C5
S11302B090E008950F931F93CF93DF93EC01162FD3
S11302C0072F0E944801892B29F18C899D89019669
S11302D02AE030E0B9010E94710E9D8B8C8B8E89CF
S11302E09F890196B9010E94710E9F8B8E8B880F96
S11302F0991FC80FD91F188309830F931F9386E88A
S113030091E09F938F930E94BF0E0F900F900F90D8
S11303100F9033C0CE010E943E01892B99F01D8AB3
S11303201C8A1F8A1E8A188309830F931F938DEAE0
S113033091E09F938F930E94BF0E0F900F900F90A8
S11303400F901BC08E899F8901966AE070E00E941D
S1130350710E9F8B8E8B880F991FC80FD91F18831E
S113036009830F931F938DEA91E09F938F930E94CB
S1130370BF0E0F900F900F900F90DF91CF911F91B0
S11303800F9108950F931F93CF93DF93EC018B018B
S11303900E943E01009761F4EC89FD89EE0FFF1F76
S11303A0EC0FFD1F20813181F8013183208302C0CD
S11303B08FEF9FEFDF91CF911F910F9108950F93CE
S11303C01F93CF93DF93EC018B010E943E010097B2
S11303D061F4EE89FF89EE0FFF1FEC0FFD1F2081F2
S11303E03181F8013183208302C08FEF9FEFDF91C9
S11303F0CF911F910F91089587B1846087B988B117
S11304008B7F88B91092B00087E08093B10081E0BF
S1130410809370007894089587B1826087B988B119
S11304208D7F88B9089588B18D7F88B9089588B182
S1130430826088B9089585B1826085B985E08A951E
S1130440F1F7000085B18D7F85B98FE891E00197C0
S1130450F1F700C0000008959BB19F709BB980FF25
S113046003C09BB190619BB981FF03C09BB19062B3
S11304709BB982FF03C09BB190649BB983FF03C007
S11304808BB180688BB90E941B020895CF93C82F4B
S113049085B18E7F85B98C2F82958F700E942C0236
S11304A08C2F8F700E942C02CF910895CF93C82F68
S11304B085B1816085B98C2F82958F700E942C0242
S11304C08C2F8F700E942C02CF9108950F931F934D
S11304D0CF938B01877090E0880F991F880F991F25
S11304E0880F991F80640E944602C0E007C0F8018B
S11304F0EC0FF11D80810E945602CF5FC830B8F323
S113050080E80E944602CF911F910F91089584B113
S1130510836084B98AB1806F8AB92FEF89EF90E044
S1130520215080409040E1F700C0000083E00E9429
S11305302C028FE19EE40197F1F700C0000083E0F4
S11305400E942C0287E592E00197F1F700C00000B9
S113055083E00E942C0282E00E942C0288E20E9426
S113056046028CE00E94460286E00E94460281E038
S11305700E9446028FE39FE10197F1F700C000005B
S1130580089587B1816087B988B18E7F88B98FE774
S113059097E00197F1F700C0000087B18E7F87B91B
S11305A0EFEEF0E03197F1F700C0000096B181E082
S11305B089278170EFE8F6E03197F1F700C0000079
S11305C0089597B1916097B998B19E7F98B988239F
S11305D071F085E08A95F1F7000087B18E7F87B9C5
S11305E08FEE90E00197F1F700C0000008958FEEC0
S11305F090E00197F1F700C0000087B18E7F87B9C2
S11306000895CF93DF93D82FC0E006C08D2F81705B
S11306100E94E102D695CF5FC830C0F3DF91CF913D
S1130620089587B1816087B988B18E7F88B98AE0DF
S11306308A95F1F700C087B18E7F87B9E5E3EA9523
S1130640F1F7000086B18170E7ECF0E03197F1F743
S113065000C000000895CF93DF93C0E0D0E006C04F
S1130660D6950E9411038111D068CF5FC830C0F3C2
S11306708D2FDF91CF910895CF930E94C1028CEC0E
S11306800E94010384E40E9401032FEF8EE994E2A7
S1130690215080409040E1F700C000000E94C10258
S11306A08CEC0E9401038EEB0E9401030E942B0339
S11306B0C82F0E942B03682F70E0762F66276C2BBF
S11306C0072E000C880B990B0E944F0D20E030E0A0
S11306D040E85DE30E94040ECF9108958AB18460DE
S11306E08AB98AB1877F8AB908958BB18B7F8BB918
S11306F02FEF87E893E1215080409040E1F700C05C
S113070000008BB184608BB92FEF87E893E121500F
S113071080409040E1F700C000008BB18B7F8BB923
S113072008954B9BFECF60E070E0CB0108C025E04C
S11307302A95F1F700006F5F7F4F8F4F9F4F4B99C2
S1130740F6CF0E944D0D20E030E048E652E40E94CE
S1130750A50C0E941E0DCB0108950E9475030E94F2
S11307609103089584B1837C84B985B18C6385B980
S113077008951A9B08C01B9B08C01C9B08C01D99A8
S113078008C084E0089581E0089582E0089583E03C
S1130790089585E008950F931F93CF93DF93CDB70A
S11307A0DEB7EC970FB6F894DEBF0FBECDBFDC0109
S11307B08B018FE39FE10197F1F700C0000020E077
S11307C030E00AC01196E1E0F0E0EC0FFD1FE20F0B
S11307D0F31F80832F5F3F4F2C30310574F48C91CD
S11307E08111F0CF0AC0E1E0F0E0EC0FFD1FE20F51
S11307F0F31F80E280832F5F3F4F2C3031059CF341
S113080088E0E0E5F1E0DE015D9601900D928A95C5
S1130810E1F788E0E8E5F1E0DE01959601900D92BC
S11308208A95E1F788E0E0E6F1E0DE019D9601902B
S11308300D928A95E1F788E0E8E6F1E0DE01D596CD
S113084001900D928A95E1F7BE01635E7F4F80E0CF
S11308500E946602BE016B5D7F4F81E00E946602CA
S1130860BE016B5C7F4F82E00E946602BE01635D45
S11308707F4F83E00E94660280E090E00AC00F5F31
S11308801F4FEDE0F0E0EC0FFD1FE80FF91F208390
S113089001968031910574F4F80120812111EFCF84
S11308A009C0EDE0F0E0EC0FFD1FE80FF91F20E2B6
S11308B02083019680319105A4F380E80E944602CA
S11308C000E010E00BC0E1E0F0E0EC0FFD1FE00FF2
S11308D0F11F80810E9456020F5F1F4F0C301105DB
S11308E094F382E00E94560280E00E94560281E066
S11308F00E94560283E00E94560280EC0E94460247
S113090000E010E00BC0EDE0F0E0EC0FFD1FE00FA5
S1130910F11F80810E9456020F5F1F4F00311105A5
S113092094F3EC960FB6F894DEBF0FBECDBFDF9103
S1130930CF911F910F910895CF92DF92EF92FF9282
S1130940BC01990F880B990B0E944F0D9B01AC01C0
S11309506AE979E989E791E40E94330C20ED3FE0EC
S113096049E453E40E94040E20E030E04AE754E4F2
S11309700E94A50C6B017C0120E030E0A9010E94DB
S1130980A00C88231CF4C12CD12C7601C701B6011C
S1130990FF90EF90DF90CF900895CF92DF92EF9287
S11309A0FF920E94AD03BC0180E090E00E944D0DD7
S11309B020E030E040EC5FE30E94040E0E941E0D34
S11309C080E090E00E944D0D9B01AC016AE979E959
S11309D089E791E40E94330C20ED3FE049E453E4BD
S11309E00E94040E20E030E04AE754E40E94A50C83
S11309F06B017C0120E030E0A9010E94A00C882357
S1130A001CF4C12CD12C7601C701B601FF90EF90E4
S1130A10DF90CF9008958F929F92AF92BF92CF9222
S1130A20DF92EF92FF92CF93DF9300D000D0CDB747
S1130A30DEB7BE016F5F7F4F8EE294E00E94DF015C
S1130A40BE016D5F7F4F8EE294E00E94C201698116
S1130A507A81072E000C880B990B0E944F0D20E021
S1130A6030E040EC5FE30E94040E0E94170DCB01BE
S1130A700E949C044B015C016B817C81072E000C5D
S1130A80880B990B0E944F0D20E030E040EC5FE3AF
S1130A900E94040E0E94170DCB010E949C046B015E
S1130AA07C019B01AC01C501B4010E94FF0D181625
S1130AB09CF0A5019401C701B6010E94330C20E00B
S1130AC030E040E05FE30E94040E20E030E040E7C5
S1130AD052E40E94040E03C060E070E0CB010F906A
S1130AE00F900F900F90DF91CF91FF90EF90DF90D8
S1130AF0CF90BF90AF909F908F9008958F929F92C8
S1130B00AF92BF92CF92DF92EF92FF92CF93DF9397
S1130B1000D000D0CDB7DEB7BE016F5F7F4F8EE24D
S1130B2094E00E94DF01BE016D5F7F4F8EE294E08E
S1130B300E94C20169817A81072E000C880B990BEF
S1130B400E944F0D20E030E040EC5FE30E94040E71
S1130B500E94170DCB010E949C046B017C016B81E8
S1130B607C81072E000C880B990B0E944F0D20E00E
S1130B7030E040EC5FE30E94040E0E94170DCB01AD
S1130B800E949C044B015C019B01AC01C701B601AE
S1130B900E94A00C88239CF0A5019401C701B60112
S1130BA00E94330C20E030E040E05FE30E94040E3A
S1130BB020E030E040E752E40E94040E03C060E00D
S1130BC070E0CB010F900F900F900F90DF91CF91B9
S1130BD0FF90EF90DF90CF90BF90AF909F908F9059
S1130BE008950E943C030895EF92FF920F93E091C1
S1130BF02001F0912101EF3F2FEFF20779F4E0910A
S1130C001B04F0911C04EE0FFF1FE05CFE4F60819B
S1130C1071818CEC91E00E94CB0360C2E830F10555
S1130C2008F056C2EC5CFF4F0C94850E66ED71E043
S1130C3081EE91E00E94CB030E94CD049B01AC01A4
S1130C400F2EFFEEEF2EF1E0FF2EF02D01E060E11C
S1130C5070E08EE194E00E94D8006EE174E081EED1
S1130C6091E00E94CB033AC266ED71E084EF91E01B
S1130C700E94CB030E940B059B01AC010F2EF0E0F8
S1130C80EF2EF2E0FF2EF02D01E060E170E08EE146
S1130C9094E00E94D8006EE174E084EF91E00E9439
S1130CA0CB031CC266ED71E08EE092E00E94CB03A0
S1130CB00E947E059B01AC010F2EFBE1EF2EF2E0BA
S1130CC0FF2EF02D01E060E170E08EE194E00E94DF
S1130CD0D8006EE174E08EE092E00E94CB03FEC186
S1130CE066ED71E088E292E00E94CB030E94F10578
S1130CF09B01AC010F2EF9E3EF2EF2E0FF2EF02D55
S1130D0001E060E170E08EE194E00E94D8006EE1C1
S1130D1074E088E292E00E94CB03E0C180911A0162
S1130D2090911B01019679F4E0911304F09114045D
S1130D30EE0FFF1FE85CFE4F6081718181E492E059
S1130D400E94CB03CBC18091130490911404813091
S1130D50910539F11CF4892B41F077C0823091055B
S1130D60E1F1039709F455C070C020910F0430914C
S1130D70100440911104509112040F2EFFEEEF2E37
S1130D80F1E0FF2EF02D01E060E170E08EE194E0EF
S1130D900E94D8006EE174E086EE91E00E94CB03DD
S1130DA09DC120910B0430910C0440910D0450918D
S1130DB00E040F2EFBE1EF2EF2E0FF2EF02D01E0EA
S1130DC060E170E08EE194E00E94D8006EE174E08E
S1130DD084EF91E00E94CB0381C1209107043091FC
S1130DE008044091090450910A040F2EFBE1EF2EF0
S1130DF0F2E0FF2EF02D01E060E170E08EE194E07E
S1130E000E94D8006EE174E08BE492E00E94CB0370
S1130E1065C120910304309104044091050450916C
S1130E2006040F2EF9E3EF2EF2E0FF2EF02D01E081
S1130E3060E170E08EE194E00E94D8006EE174E01D
S1130E4085E592E00E94CB0349C16FE572E081E73A
S1130E5092E00E94CB0342C180911E0190911F0138
S1130E608F3F2FEF920779F4E0911904F0911A045F
S1130E70EE0FFF1FEC5CFE4F6081718183EE92E008
S1130E800E94CB032BC1009719F00197E9F038C0F9
S1130E9020911601309117014091180150911901C8
S1130EA00F2EFFEEEF2EF1E0FF2EF02D01E060E1BA
S1130EB070E08EE194E00E94D8006EE174E087E770
S1130EC092E00E94CB030AC12091120130911301D8
S1130ED040911401509115010F2EF9E3EF2EF2E029
S1130EE0FF2EF02D02E060E170E08EE194E00E94BC
S1130EF0D8006EE174E084E892E00E94CB03EEC077
S1130F006DE872E081E792E00E94CB03E7C0E091D4
S1130F101504F0911604EE0FFF1FEE5DFE4F608185
S1130F2071818DE992E00E94CB03D8C080911C01AD
S1130F3090911D018F3F2FEF920779F4E0911704F0
S1130F40F0911804EE0FFF1FE65DFE4F6081718182
S1130F5086EA92E00E94CB03C1C08230910509F475
S1130F6046C02CF4009759F0019729F1AAC08330A8
S1130F70910509F458C0049709F47CC0A2C02091DB
S1130F800E0130910F0140911001509111010F2E6B
S1130F90FDEAEF2EF2E0FF2EF02D01E060E170E0BB
S1130FA08EE194E00E94D8006EE174E083EB92E05D
S1130FB00E94CB0393C02091060130910701409118
S1130FC00801509109010F2EFFEEEF2EF1E0FF2EE4
S1130FD0F02D01E060E170E08EE194E00E94D80021
S1130FE06EE174E08DEB92E00E94CB0377C0209118
S1130FF002013091030140910401509105010F2E2B
S1131000F9E3EF2EF2E0FF2EF02D01E060E170E055
S11310108EE194E00E94D8006EE174E08CEC92E0E2
S11310200E94CB035BC080910101882319F08BEBF4
S113103091E002C083EC91E09F938F9383E791E06A
S11310409F938F931F9280E18F938EE194E09F93FF
S11310508F930E94D50E6EE174E08CED92E00E94B5
S1131060CB038DB79EB708960FB6F8949EBF0FBEFC
S11310708DBF34C080910001882319F08BEB91E07F
S113108002C083EC91E09F938F9383E791E09F9359
S11310908F931F9280E18F938EE194E09F938F93BF
S11310A00E94D50E6EE174E08CEE92E00E94CB03B8
S11310B08DB79EB708960FB6F8949EBF0FBE8DBF2E
S11310C00DC06AEF72E081E792E00E94CB0306C094
S11310D069E073E081E792E00E94CB030F91FF90F7
S11310E0EF9008958130A9F580912001909121011C
S11310F0019609F49BC280911E0190911F010196F3
S113110039F08FEF9FEF90931F0180931E01089594
S113111080911C0190911D01019639F08FEF9FEF92
S113112090931D0180931C01089580911A01909160
S11311301B01019639F08FEF9FEF90931B01809371
S11311401A0108958FEF9FEF90932101809320015E
S11311500895823009F00EC18091200190912101FF
S11311608F3F2FEF920771F480911B0490911C0420
S11311708730910508F05AC2019690931C0480931D
S11311801B0408958430910571F4809113049091A7
S113119014048330910508F049C201969093140415
S11311A08093130408958530910509F050C080910F
S11311B01E0190911F018F3F2FEF920769F48091D8
S11311C0190490911A04009709F030C20196909383
S11311D01A04809319040895009719F00197E1F017
S11311E0089520910E0130910F014091100150910A
S11311F0110160911601709117018091180190916D
S113120019010E94330C60931601709317018093A7
S1131210180190931901089520910E0130910F0146
S113122040911001509111016091120170911301CC
S113123080911401909115010E94330C6093120166
S113124070931301809314019093150108958630CF
S1131250910571F4809115049091160483309105E1
S11312600CF0E4C10196909316048093150408953C
S1131270079709F0DBC180911C0190911D018F3FFC
S11312802FEF920771F48091170490911804843021
S1131290910508F0CBC1019690931804809317042C
S11312A008958230910509F444C02CF4009759F054
S11312B0019721F108958330910509F455C00497ED
S11312C009F455C0089520910A0130910B01409111
S11312D00C0150910D0160910E0170910F018091EC
S11312E01001909111010E94330C60930E017093D0
S11312F00F018093100190931101089520910E0124
S113130030910F014091100150911101609106013B
S11313107091070180910801909109010E94330C9A
S1131320609306017093070180930801909309016B
S1131330089520910E0130910F01409110015091B8
S11313401101609102017091030180910401909157
S113135005010E94330C6093020170930301809392
S113136004019093050108951092010108951092CB
S113137000010895833009F011C1809120019091FA
S113138021018F3F2FEF920771F480911B049091FC
S11313901C04181619060CF049C1019790931C04FB
S11313A080931B0408958430910571F48091130493
S11313B090911404181619060CF038C101979093F3
S11313C014048093130408958530910509F051C0E5
S11313D080911E0190911F018F3F2FEF920771F4AE
S11313E08091190490911A04181619060CF01EC164
S11313F0019790931A04809319040895009719F0A3
S11314000197E1F0089520910E0130910F01409170
S11314101001509111016091160170911701809192
S11314201801909119010E94340C60931601709375
S113143017018093180190931901089520910E01CA
S113144030910F01409110015091110160911201EE
S11314507091130180911401909115010E94340C34
S113146060931201709313018093140190931501FA
S113147008958630910571F48091150490911604B5
S1131480181619060CF0D2C0019790931604809395
S113149015040895079709F0C9C080911C01909123
S11314A01D018F3F2FEF920771F4809117049091E3
S11314B01804181619060CF0B9C001979093180473
S11314C08093170408958230910509F444C02CF4E4
S11314D0009759F0019721F108958330910509F49B
S11314E055C0049709F456C0089520910A0130911B
S11314F00B0140910C0150910D0160910E0170910E
S11315000F0180911001909111010E94340C60939D
S11315100E0170930F0180931001909311010895AF
S113152020910E0130910F01409110015091110151
S11315306091060170910701809108019091090161
S11315400E94340C60930601709307018093080194
S113155090930901089520910E0130910F0140915B
S11315601001509111016091020170910301809169
S11315700401909105010E94340C60930201709360
S113158003018093040190930501089581E0809301
S11315900101089581E0809300010895843009F0E9
S11315A045C080912001909121018F3F2FEF920738
S11315B049F480911B0490911C0490932101809321
S11315C0200108958430910579F480911A01909155
S11315D01B01019659F58091130490911404909382
S11315E01B0180931A0108958530910579F4809147
S11315F01E0190911F010196C9F4809119049091E4
S11316001A0490931F0180931E010895079771F4A3
S113161080911C0190911D01019641F48091170461
S11316209091180490931D0180931C0108951F92BA
S11316300F920FB60F9211242F933F934F935F9302
S11316406F937F938F939F93AF93BF93EF93FF9386
S113165080911D048F5F80931D0480911D048E333F
S113166068F010921D040E94AD03BC018EE294E068
S11316700E945A0198B184E0892788B9FF91EF91BB
S1131680BF91AF919F918F917F916F915F914F9196
S11316903F912F910F900FBE0F901F9018958EE2DF
S11316A094E00E9436010E9487020E946E030E9409
S11316B0B2030E940C020E94FC01B89B07C087B3CE
S11316C0816087BB95B181E0892785B9C5E097C062
S11316D00E941702809113049091140481309105A3
S11316E019F11CF4892B41F066C082309105A1F1F7
S11316F0039709F449C05FC080910204811109C0B5
S113170066E173E086EE91E00E94CB0381E0809372
S113171002040E94CD0460930F047093100480931C
S113172011049093120447C080910204811109C0EE
S113173066E173E084EF91E00E94CB0381E0809343
S113174002040E940B0560930B0470930C048093B5
S11317500D0490930E042FC080910204811109C0DE
S113176066E173E08BE492E00E94CB0381E0809316
S113177002040E947E05609307047093080480931A
S1131780090490930A0417C080910204811109C0CE
S113179066E173E085E592E00E94CB0381E08093EB
S11317A002040E94F105609303047093040480937F
S11317B00504909306040E9413020E94F4052FEF7F
S11317C083ED90E3215080409040E1F700C0000099
S11317D00E94B903C82F853091F0813051F48FEF06
S11317E09FEF909321018093200110920204C5E0A1
S11317F013C00E9472080E94B9038530E1F78091FA
S1131800200190912101049739F480911A0190915B
S11318101B01019609F05CCF0E94F4058FEF99EF4C
S113182020E0815090402040E1F700C00000C53026
S113183029F40E94B903C82F8530D9F38FEF99EFAB
S113184020E0815090402040E1F700C000000E9459
S1131850B903C81332CF8C2F0E9472080E94B903B7
S11318608530E1F72ACF5058BB27AA270E944B0C9A
S11318700C94C50D0E94B70D38F00E94BE0D20F0E7
S113188039F49F3F19F426F40C94B40D0EF4E0954A
S1131890E7FB0C94AE0DE92F0E94D60D58F3BA174E
S11318A0620773078407950720F079F4A6F50C9472
S11318B0F80D0EF4E0950B2EBA2FA02D0B01B901F3
S11318C090010C01CA01A0011124FF27591B99F0B2
S11318D0593F50F4503E68F11A16F040A22F232FBE
S11318E0342F4427585FF3CF469537952795A7950E
S11318F0F0405395C9F77EF41F16BA0B620B730BB5
S1131900840BBAF09150A1F0FF0FBB1F661F771F25
S1131910881FC2F70EC0BA0F621F731F841F48F4DA
S1131920879577956795B795F7959E3F08F0B0CF63
S11319309395880F08F09927EE0F9795879508954A
S11319400E948A0D08F481E008950E94B90C0C9459
S1131950C50D0E94BE0D58F00E94B70D40F029F449
S11319605F3F29F00C94AE0D51110C94F90D0C94B9
S1131970B40D0E94D60D68F39923B1F3552391F366
S1131980951B550BBB27AA2762177307840738F0EA
S11319909F5F5F4F220F331F441FAA1FA9F335D047
S11319A00E2E3AF0E0E832D091505040E695001CFB
S11319B0CAF72BD0FE2F29D0660F771F881FBB1FB5
S11319C0261737074807AB07B0E809F0BB0B802D93
S11319D0BF01FF2793585F4F3AF09E3F510578F0BF
S11319E00C94AE0D0C94F90D5F3FE4F3983ED4F3E0
S11319F0869577956795B795F7959F5FC9F7880F93
S1131A00911D9695879597F90895E1E0660F771FE4
S1131A10881FBB1F621773078407BA0720F0621B75
S1131A20730B840BBA0BEE1F88F7E09508950E94A0
S1131A301E0D6894B1110C94F90D08950E94DE0DE9
S1131A4088F09F5798F0B92F9927B751B0F0E1F07B
S1131A50660F771F881F991F1AF0BA95C9F714C02B
S1131A60B13091F00E94F80DB1E008950C94F80D96
S1131A70672F782F8827B85F39F0B93FCCF3869564
S1131A8077956795B395D9F73EF4909580957095C1
S1131A9061957F4F8F4F9F4F0895E89409C097FB3E
S1131AA03EF490958095709561957F4F8F4F9F4F31
S1131AB09923A9F0F92F96E9BB279395F695879575
S1131AC077956795B795F111F8CFFAF4BB0F11F438
S1131AD060FF1BC06F5F7F4F8F4F9F4F16C08823DF
S1131AE011F096E911C0772321F09EE8872F762F15
S1131AF005C0662371F096E8862F70E060E02AF056
S1131B009A95660F771F881FDAF7880F9695879541
S1131B1097F90895990F0008550FAA0BE0E8FEEF16
S1131B2016161706E807F907C0F012161306E4079D
S1131B30F50798F0621B730B840B950B39F40A2696
S1131B4061F0232B242B252B21F408950A2609F474
S1131B50A140A6958FEF811D811D089597F99F6778
S1131B6080E870E060E008959FEF80EC0895002421
S1131B700A941616170618060906089500240A94EE
S1131B8012161306140605060895092E0394000C74
S1131B9011F4882352F0BB0F40F4BF2B11F460FF03
S1131BA004C06F5F7F4F8F4F9F4F089557FD90582C
S1131BB0440F551F59F05F3F71F04795880F97FB0D
S1131BC0991F61F09F3F79F08795089512161306C7
S1131BD01406551FF2CF4695F1DF08C016161706F6
S1131BE01806991FF1CF869571056105089408952B
S1131BF0E894BB2766277727CB0197F908950E94BD
S1131C008A0D08F48FEF08950E94170E0C94C50DE9
S1131C100E94B70D38F00E94BE0D20F0952311F0FC
S1131C200C94AE0D0C94B40D11240C94F90D0E9477
S1131C30D60D70F3959FC1F3950F50E0551F629F29
S1131C40F001729FBB27F00DB11D639FAA27F00D11
S1131C50B11DAA1F649F6627B00DA11D661F829F38
S1131C602227B00DA11D621F739FB00DA11D621F1D
S1131C70839FA00D611D221F749F3327A00D611D3A
S1131C80231F849F600D211D822F762F6A2F11241C
S1131C909F5750409AF0F1F088234AF0EE0FFF1F4F
S1131CA0BB1F661F771F881F91505040A9F79E3FA6
S1131CB0510580F00C94AE0D0C94F90D5F3FE4F3E4
S1131CC0983ED4F3869577956795B795F795E795FC
S1131CD09F5FC1F7FE2B880F911D9695879597F905
S1131CE0089597FB072E16F4009407D077FD09D0CA
S1131CF00E948B0E07FC05D03EF4909581959F4F72
S1131D000895709561957F4F0895EE0FFF1F05901C
S1131D10F491E02D0994AA1BBB1B51E107C0AA1F33
S1131D20BB1FA617B70710F0A61BB70B881F991F78
S1131D305A95A9F780959095BC01CD010895EF922D
S1131D400F931F93CF93DF93E80147FD02C034E064
S1131D5001C034E1042E000C550B57FF03C051950C
S1131D6041955109E32E022F242FAE010E94E61063
S1131D70CE01DF91CF911F910F91EF900895A0E0D4
S1131D80B0E0E5ECFEE00C94D813AE014B5F5F4F7E
S1131D90FA0161917191AF018091480490914904D5
S1131DA00E94050FE2E00C94F413AEE0B0E0EBED1A
S1131DB0FEE00C94D6130D891E898F89988D26E038
S1131DC02C831A83098397FF02C080E090E801976F
S1131DD09E838D83AE01455E5F4F698D7A8DCE0102
S1131DE001960E94050F4D815E8157FD0AC02F8127
S1131DF03885421753070CF49A01F801E20FF31FD8
S1131E0010822E96E4E00C94F213ABE0B0E0EBE029
S1131E10FFE00C94C8136C017B018A01FC0117825A
S1131E201682838181FFCCC1CE0101963C01F6016B
S1131E309381F70193FD859193FF81917F0188231D
S1131E4009F4BAC1853239F493FD859193FF8191E8
S1131E507F01853229F4B60190E00E942E13E7CF6A
S1131E60912C212C312CFFE1F315D8F08B3279F031
S1131E7038F4803279F08332A1F4232D20611DC01F
S1131E808D3261F0803369F4232D216016C0832DD7
S1131E908260382EE32DE4603E2E2AC0F32DF860D4
S1131EA01DC037FC2DC020ED280F2A3040F08E32A3
S1131EB0B9F436FC81C1232D2064322E19C036FEBC
S1131EC006C08AE0989E200D1124922E11C0EAE0EB
S1131ED02E9E200D1124222EF32DF0623F2E08C0D9
S1131EE08C3621F4832D8068382E02C0883641F464
S1131EF0F70193FD859193FF81917F018111B3CF08
S1131F00982F9F7D9554933028F40C5F1F4F9FE3C7
S1131F1099830DC0833631F0833771F0833509F02E
S1131F2059C021C0F801808189830E5F1F4F882426
S1131F308394912C530113C02801F2E04F0E511CDD
S1131F40F801A080B18036FE03C0692D70E002C0A4
S1131F506FEF7FEFC5010E9423134C018201F32D23
S1131F60FF773F2E16C0280122E0420E511CF801D3
S1131F70A080B18036FE03C0692D70E002C06FEF0F
S1131F807FEFC5010E9418134C01F32DF0683F2E1A
S1131F90820133FC1BC0822D90E088169906B0F4B0
S1131FA0B60180E290E00E942E132A94F4CFF5014A
S1131FB037FC859137FE81915F01B60190E00E9464
S1131FC02E1321102A9421E0821A9108811491047D
S1131FD071F7E8C0843611F0893641F5F80137FE0F
S1131FE007C060817181828193810C5F1F4F08C09B
S1131FF060817181072E000C880B990B0E5F1F4FB7
S1132000F32DFF763F2E97FF09C09095809570952C
S113201061957F4F8F4F9F4FF0683F2E2AE030E04D
S1132020A3010E946A13882E861845C0853731F4AF
S1132030232D2F7EB22E2AE030E025C0932D997FE8
S1132040B92E8F36C1F018F4883579F0B5C08037D1
S113205019F0883721F0B0C0E92FE061BE2EB4FE3C
S11320600DC0FB2DF460BF2E09C034FE0AC0292F19
S11320702660B22E06C028E030E005C020E130E042
S113208002C020E132E0F801B7FE07C0608171812F
S1132090828193810C5F1F4F06C06081718180E053
S11320A090E00E5F1F4FA3010E946A13882E8618CA
S11320B0FB2DFF773F2E36FE0DC0232D2E7FA22E43
S11320C0891458F434FE0BC032FC09C0832D8E7E73
S11320D0A82E05C0B82CA32C03C0B82C01C0B92C61
S11320E0A4FE0FC0FE01E80DF11D8081803321F4B0
S11320F09A2D997EA92E09C0A2FE06C0B394B3946A
S113210004C08A2D867809F0B394A3FC11C0A0FE04
S113211006C0B21488F4280C922C9B180EC0B2147A
S113212060F4B60180E290E00E942E13B394F7CFDE
S1132130B21418F42B1802C0982C212CA4FE10C041
S1132140B60180E390E00E942E13A2FE17C0A1FC0A
S113215003C088E790E002C088E590E0B6010CC0B7
S11321608A2D867859F0A1FE02C08BE201C080E27C
S1132170A7FC8DE2B60190E00E942E13891438F476
S1132180B60180E390E00E942E139A94F7CF8A94CC
S1132190F301E80DF11D8081B60190E00E942E1339
S11321A08110F5CF222009F442CEB60180E290E0FE
S11321B00E942E132A94F6CFF6018681978102C0DD
S11321C08FEF9FEF2B96E2E10C94E413A9E0B0E0CB
S11321D0ECEEF0E10C94CE136A01122FB02E2BE337
S11321E0201720F0FF24F394F00E02C02CE3F22E0B
S11321F00F2D27E0AE014F5F5F4F0E944012BC01DC
S11322004981842F8970813031F0E1FC06C0E0FE01
S113221006C090E205C09DE203C09BE201C090E0CD
S11322205E2D507143FF3CC0911102C083E001C098
S113223084E0811718F4212F281B01C020E05111DC
S11322400BC0F601822F30E2882319F031938150BC
S1132250FBCFC20ED11C20E0992329F0D6019C9318
S1132260F60131966F01C6010396E2FE0AC03EE410
S1132270D6013C9341E411964C93119712963C93EA
S113228006C03EE6F601308341E641833283FC0119
S1132290322F40E2332309F442C041933150FACF44
S11322A042FF44C0911102C083E001C084E0811761
S11322B018F4212F281B01C020E051110BC0F60196
S11322C0822F30E2882319F031938150FBCFC20E64
S11322D0D11C20E0992329F0D6019C93F601319674
S11322E06F01C6010396E2FE0BC039E4D6013C93AC
S11322F03EE411963C93119736E412963C9307C042
S113230039E6F60130833EE6318336E63283FC015A
S1132310322F40E2332319F041933150FBCFFC01BB
S1132320E20FF11D10828EEF9FEFA6C021E030E096
S1132330911102C020E030E0161617061CF4FB01D0
S1132340319602C0E1E0F0E02E0F3F1FBB2021F0E8
S1132350EB2DF0E0319602C0E0E0F0E02E0F3F1FDD
S1132360E12FF0E02E173F071CF4121B212F01C0B0
S113237020E08E2D887159F4F601822F30E28823F3
S113238019F031938150FBCFC20ED11C20E0992368
S113239029F0D6019C93F60131966F0151110BC0BF
S11323A0F601822F90E3882319F091938150FBCF9B
S11323B0C20ED11C20E00F2D060F9A81342F3071EC
S11323C044FF03C0913309F40150101624F409307A
S11323D018F008E001C001E0AB0177FF02C040E063
S11323E050E0FB01E41BF50BA1E0B0E0AC0FBD1F16
S11323F0EA0FFB1F8EE2A82E4B01801A91080B2DC9
S113240010E01195019511094F3FBFEF5B0721F4CF
S1132410D601AC9211966D01641775072CF08416E1
S1132420950614F4818101C080E34150510931962D
S1132430D60111967D014017510724F0D6018C93E3
S11324406701E2CF6417750739F4963320F49533A6
S113245019F4311101C081E3F6018083F701822F61
S113246090E2882319F091938150FBCFF701E20F9A
S1132470F11D108280E090E02996ECE00C94EA13C0
S1132480283008F027E03327DA01990F311D87FD42
S1132490916000966105710539F432602E5F3D93B9
S11324A030E32A95E1F708959F3F30F080387105B5
S11324B0610509F03C5F3C5F3D93913008F0806812
S11324C0911DDF93CF931F930F93FF92EF92192FD8
S11324D0987F9695E92F96959695E90FFF27EE52EA
S11324E0FF4F99273327EE24FF24A701E701059026
S11324F00894079428F4360FE71EF81E491F511D4F
S1132500660F771F881F991F0694A1F705900794FB
S113251028F4E70EF81E491F561FC11D770F881FA8
S1132520991F661F0694A1F70590079428F4F80EE6
S1132530491F561FC71FD11D880F991F661F771F7C
S11325400694A1F70590079420F4490F561FC71F5E
S1132550D81F990F661F771F881F0694A9F78491C7
S11325601095177041F0D695C79557954795F794F0
S1132570E7941A95C1F7E8E7F0E06894159015918F
S113258035916591959105907FE27395E118F10A73
S1132590430B560BC90BD009C0F7E10CF11E431FC6
S11325A0561FC91FD01D7EF4703311F48A95E6CFEF
S11325B0E894015030F0080F0AF40027021708F4D9
S11325C0202F2395022F7A3328F079E37D932A95DF
S11325D0E9F710C07D932A9589F606949795679537
S11325E0379517951794E118F10A430B560BC90B4D
S11325F0D00998F023957E9173957A3308F070E3AF
S11326007C932013B8F77E9170617D9330F08395AD
S113261071E37D9370E32A95E1F71124EF90FF9025
S11326200F911F91CF91DF91992787FD9095089580
S1132630FC010590615070400110D8F78095909589
S11326408E0F9F1F0895FC0161507040019001108E
S1132650D8F7809590958E0F9F1F08950F931F9321
S1132660CF93DF93FB01238121FD03C08FEF9FEF05
S11326702CC022FF16C04681578124813581421720
S1132680530744F4A081B1819D012F5F3F4F3183F3
S113269020838C93268137812F5F3F4F3783268396
S11326A014C08B01EC01FB010084F185E02D099538
S11326B0892BE1F6D80116968D919C911797019676
S11326C017969C938E931697CE01DF91CF911F910D
S11326D00F910895FA01AA27283051F1203181F190
S11326E0E8946F936E7F6E5F7F4F8F4F9F4FAF4F16
S11326F0B1E03ED0B4E03CD0670F781F891F9A1F29
S1132700A11D680F791F8A1F911DA11D6A0F711DDC
S1132710811D911DA11D20D009F468943F912AE0E8
S1132720269F11243019305D3193DEF6CF010895D0
S1132730462F4770405D4193B3E00FD0C9F7F6CF01
S1132740462F4F70405D4A3318F0495D31FD4052C9
S1132750419302D0A9F7EACFB4E0A695979587955F
S113276077956795BA95C9F700976105710508953E
S11327709B01AC010A2E06945795479537952795EA
S1132780BA95C9F7620F731F841F951FA01D089582
S11327902F923F924F925F926F927F928F929F926D
S11327A0AF92BF92CF92DF92EF92FF920F931F935B
S11327B0CF93DF93CDB7DEB7CA1BDB0B0FB6F8940C
S11327C0DEBF0FBECDBF09942A88398848885F844C
S11327D06E847D848C849B84AA84B984C884DF80BD
S11327E0EE80FD800C811B81AA81B981CE0FD11DA1
S11327F00FB6F894DEBF0FBECDBFED010895F89477
S1052800FFCF04
S113280201010000C0410000A0410000803E000020
S1132812003F0000E4410000803FFFFFFFFFFFFF95
S1132822FFFF22032203220322032D03370349035A
S11328325C036C03770284027A0383038F03990394
S1132842A303B103C003CD03DE03E803F103FA03D8
S1132852000404041F0E040000040E1F04040400F8
S11328620004061F0604000000040C1F0C040000F0
S1132872257320257300517565756520697320657C
S11328826D707479210051756575652066756C6C7F
S11328922C206F76657277726F7465206F6C646535
S11328A2737420776974683A2025640A00456E714E
S11328B275657565643A2025640A00456E61626C2B
S11328C265640044697361626C6564004D41494EFC
S11328D2204D454E55004C6F6164696E672E2E2E55
S11328E20054414E4B204341504143495459004CFA
S11328F274727300524546494C4C2052415445006F
S11329024C7472732070657220686F7572004C4546
S1132912414B4147452052415445004C7472732047
S1132922706572206D696E00534F494C2054454DB9
S1132932504552415455524500646567726565734A
S1132942004C4956452056494557004C45414B20B9
S11329525241544500534F494C2054454D5000496F
S11329626E76616C6964206C697665207669657738
S1132972004552524F52004D494E2043415041436B
S1132982495459004D41582054454D5000496E76E2
S1132992616C69642074726967676572004D45539E
S11329A2534147455300434F4E46494700556E69CC
S11329B2747300535445502053495A450050554DA1
S11329C250205448524553484F4C440053505241AE
S11329D259205448524553484F4C4400454E4142B5
S11329E24C4520545249474745525300454E4142B3
S11329F24C4520414C4552545300496E76616C69F2
S1132A026420636F6E66696700496E76616C6964FF
S1132A12206D656E75005570646174696E672E2E43
S1132A222E004E6F206D6573736167650053746584
S1132A32702073697A650050756D70696E672074D1
S1132A4268726573686F6C64005370726179696E41
S1132A5267207468726573686F6C6400456E6162A6
S1132A626C6520747269676765727300456E616292
S1132A726C6520616C657274730043617061636993
S1132A82747900526566696C6C2052617465004CFD
S1132A9265616B205261746500536F696C205465E3
S1132AA26D700054616E6B20636170616369747947
S1132AB200526566696C6C696E67207261746500A8
S1132AC24C65616B616765207261746500536F695F
S1132AD26C2074656D7065726174757265004C6901
S1132AE27665205669657700547269676765727303
S1132AF2004D6573736167657300436F6E66696742
S1052B020000CD
S9030000FC
