S0100000776F726B61626C652E73726563BD
S11300000C94B9000C94D6000C94D6000C94D60031
S11300100C94D6000C94D6000C94D6000C94D60004
S11300200C94D6000C94080C0C94D6000C94D600B6
S11300300C94D6000C94D6000C94D6000C94D600E4
S11300400C94D6000C94D6000C94D6000C94D600D4
S11300500C94D6000C94D6000C94D6000C94D600C4
S11300600C94D6000C94D600F406120730074E0701
S11300706C070A086508890800407A10F35A00A042
S1130080724E18090010A5D4E80000E8764817005D
S113009000E40B54020000CA9A3B000000E1F5059D
S11300A0000080969800000040420F000000A086E7
S11300B001000000102700000000E8030000000019
S11300C06400000000000A000000000001000000BD
S11300D000002C76D888DC674F0823DFC1DFAE59D7
S11300E0E1B1B796E5E3E453C63AE651997696E86A
S11300F0E6C28426EB898C9B62ED407C6FFCEFBCEE
S11301009C9F40F2BAA56FA5F490055A2AF75C9318
S11301106B6CF9676DC11BFCE0E40D47FEF520E64E
S1130120B500D0ED902E0300943577050080841E31
S1130130080000204E0A000000C80C333333330F8C
S1130140986E12831141EF8D2114893BE65516CF29
S1130150FEE6DB18D1844B381BF77C1D901DA4BB35
S1130160E424203284725E228100C9F124ECA1E5EA
S11301703D2711241FBECFEFD8E0DEBFCDBF14E072
S1130180A0E0B1E0EEEDF0E302C005900D92A23BD9
S1130190B107D9F725E0A2EBB4E001C01D92AE325D
S11301A0B207E1F70E94220C0C946D180C94000025
S11301B0AF92BF92CF92DF92EF92FF920F931F9371
S11301C0CF93DF93CDB7DEB768970FB6F894DEBF51
S11301D00FBECDBFD82EC92EB62EA72ECA01B90187
S11301E0202F8E010F5F1F4F40E00E94AC11E114DD
S11301F0F104C1F0F70180818823A1F0FF92EF920E
S11302001F930F9386E791E09F938F93AF92BF92D2
S1130210CF92DF920E9443130FB6F894DEBF0FBE55
S1130220CDBF13C0CE0101969F938F9389E791E0D0
S11302309F938F93AF92BF92CF92DF920E9443130A
S11302400FB6F894DEBF0FBECDBF68960FB6F89414
S1130250DEBF0FBECDBFDF91CF911F910F91FF90F5
S1130260EF90DF90CF90BF90AF9008952FEF3FEFC6
S1130270FC01358B248B378B268B0895FC01248954
S1130280358981E02F3F3F4F09F080E090E00895E9
S1130290FC018689978901966AE070E00E947E11CC
S11302A0AC012489358981E04217530709F080E0C5
S11302B090E008950F931F93CF93DF93EC01062FE3
S11302C0172F0E944801892B29F18C899D89019659
S11302D02AE030E0B9010E947E119D8B8C8B8E89BF
S11302E09F890196B9010E947E119F8B8E8B880F86
S11302F0991FC80FD91F088319831F930F938CE884
S113030091E09F938F930E94FD120F900F900F9096
S11303100F901BC0CE010E943E01892B39F01D8A2B
S11303201C8A1F8A1E8A088319830FC08E899F899D
S113033001966AE070E00E947E119F8B8E8B880F7D
S1130340991FC80FD91F08831983DF91CF911F917B
S11303500F9108950F931F93CF93DF93EC018B01BB
S11303600E943E01009761F4EC89FD89EE0FFF1FA6
S1130370EC0FFD1F20813181F8013183208302C0FD
S11303808FEF9FEFDF91CF911F910F9108950F93FE
S11303901F93CF93DF93EC018B010E943E010097E2
S11303A061F4EE89FF89EE0FFF1FEC0FFD1F208122
S11303B03181F8013183208302C08FEF9FEFDF91F9
S11303C0CF911F910F910895CF93DF93EC010E9479
S11303D03E01892B99F48E899F894C895D89841704
S11303E0950724F0841B950B01960AC02AE030E09F
S11303F0241B350B820F931F019602C080E090E00E
S1130400DF91CF9108952FEF3FEFFC01358B248BC3
S1130410378B268B20E030E009C0F901EE0FFF1F77
S1130420E80FF91F118210822F5F3F4F2A303105E8
S1130430A4F30895FC012489358981E02F3F3F4FBF
S113044009F080E090E00895FC018689978901967F
S11304506AE070E00E947E11AC012489358981E054
S11304604217530709F080E090E00895EF92FF925D
S11304700F931F93CF93DF936115710509F45BC04C
S11304808B01EC01FB0101900020E9F73197CF01CA
S1130490861B970B01960E94CC117C01009729F4CE
S11304A08AEC91E00E94131346C0B8010E94F61230
S11304B0CE010E942402892B19F1EC89FD89EE0FEB
S11304C0FF1FEC0FFD1F808191810E9464128C89B3
S11304D09D8901962AE030E0B9010E947E119D8B2E
S11304E08C8B8E899F890196B9010E947E119F8B06
S11304F08E8B880F991FC80FD91FF982E8821BC001
S1130500CE010E941A02892B39F01D8A1C8A1F8A87
S11305101E8AF982E8820FC08E899F8901966AE05B
S113052070E00E947E119F8B8E8B880F991FC80FDD
S1130530D91FF982E882DF91CF911F910F91FF902B
S1130540EF9008950F931F93CF93DF93EC018B01EA
S11305500E941A02009761F4EC89FD89EE0FFF1FD7
S1130560EC0FFD1F20813181F8013183208302C00B
S11305708FEF9FEFDF91CF911F910F91089510920C
S1130580B00087E08093B10081E08093700078949C
S1130590089587B1826087B988B18D7F88B908953D
S11305A088B18D7F88B9089588B1826088B908952B
S11305B085B1826085B985E08A95F1F7000085B13F
S11305C08D7F85B98FE891E00197F1F700C00000B5
S11305D008959BB19F709BB980FF03C09BB190614C
S11305E09BB981FF03C09BB190629BB982FF03C09A
S11305F09BB190649BB983FF03C08BB180688BB9B6
S11306000E94D8020895CF93C82F85B18E7F85B9F3
S11306108C2F82958F700E94E9028C2F8F700E941C
S1130620E902CF910895CF93C82F85B1816085B930
S11306308C2F82958F700E94E9028C2F8F700E94FC
S1130640E902CF9108950F931F93CF938B01877085
S113065090E0880F991F880F991F880F991F806455
S11306600E940303C0E007C0F801EC0FF11D808174
S11306700E941303CF5FC830B8F380E80E940303DD
S1130680CF911F910F910895CF93DF93CDB7DEB72C
S1130690A8970FB6F894DEBF0FBECDBF84B18360B8
S11306A084B98AB1806F8AB92FEF89EF90E0215025
S11306B080409040E1F700C0000083E00E94E9021E
S11306C08FE19EE40197F1F700C0000083E00E94EF
S11306D0E90287E592E00197F1F700C0000083E0AA
S11306E00E94E90282E00E94E90288E20E94030378
S11306F08CE00E94030386E00E94030381E00E94D1
S113070003038FE39FE10197F1F700C0000088E045
S1130710EEE4F1E0DE01119601900D928A95E1F785
S113072088E0E6E5F1E0DE01199601900D928A95E4
S1130730E1F788E0EEE5F1E0DE01519601900D92DB
S11307408A95E1F788E0E6E6F1E0DE01599601904A
S11307500D928A95E1F788E0EEE6F1E0DE019196EC
S113076001900D928A95E1F7BE016F5F7F4F80E0A3
S11307700E942303BE01675F7F4F81E00E94230331
S1130780BE01675E7F4F82E00E942303BE016F5E5D
S11307907F4F83E00E942303BE016F5D7F4F84E09F
S11307A00E942303A8960FB6F894DEBF0FBECDBFF8
S11307B0DF91CF91089587B1816087B988B18E7F29
S11307C088B98FE797E00197F1F700C0000087B17F
S11307D08E7F87B9EFEEF0E03197F1F700C00000AB
S11307E096B181E089278170EFE8F6E03197F1F75F
S11307F000C00000089597B1916097B998B19E7FA9
S113080098B9882371F085E08A95F1F7000087B1E3
S11308108E7F87B98FEE90E00197F1F700C000005A
S113082008958FEE90E00197F1F700C0000087B1C2
S11308308E7F87B90895CF93DF93D82FC0E006C089
S11308408D2F81700E94FB03D695CF5FC830C0F313
S1130850DF91CF91089587B1816087B988B18E7F88
S113086088B98AE08A95F1F700C087B18E7F87B98D
S1130870E5E3EA95F1F7000086B18170E7ECF0E07A
S11308803197F1F700C000000895CF93DF93C0E0E3
S1130890D0E006C0D6950E942B048111D068CF5FAA
S11308A0C830C0F38D2FDF91CF910895CF930E946C
S11308B0DB038CEC0E941B0484E40E941B042FEFD6
S11308C08EE994E2215080409040E1F700C000009E
S11308D00E94DB038CEC0E941B048EEB0E941B0421
S11308E00E944504C82F0E944504682F70E0762FAB
S11308F066276C2B072E000C880B990B0E945C104A
S113090020E030E040E85DE30E941111CF910895AA
S11309108AB184608AB98AB1877F8AB908958BB114
S11309208B7F8BB98AE08A95F1F700C08BB1846024
S11309308BB985E38A95F1F700008BB18B7F8BB976
S113094008954B9BFECF60E070E0CB0108C025E02A
S11309502A95F1F700006F5F7F4F8F4F9F4F4B99A0
S1130960F6CF0E945A1020E030E048E652E40E949C
S1130970B20F0E942B10CB0108950E948F040E9495
S1130980A104089584B1837C84B985B18C6385B94D
S113099008951A9B08C01B9B08C01C9B08C01D9986
S11309A008C084E0089581E0089582E0089583E01A
S11309B0089585E00895CF92DF92EF92FF920F930E
S11309C01F93CF93DF93CDB7DEB76C970FB6F89430
S11309D0DEBF0FBECDBFC82ED92EDB018FE39FE152
S11309E00197F1F700C00000EC2CFD2C80E090E0B2
S11309F00BC0EFEFEE1AFE0AE1E0F0E0EC0FFD1F92
S1130A00E80FF91F208301968C30910574F4F701E7
S1130A1020812111EECF09C0E1E0F0E0EC0FFD1FD1
S1130A20E80FF91F20E2208301968C309105A4F38E
S1130A3080E090E009C01196EDE0F0E0EC0FFD1FBE
S1130A40E80FF91F20830196803191056CF42C91F5
S1130A502111F1CF09C0EDE0F0E0EC0FFD1FE80F2C
S1130A60F91F20E22083019680319105A4F380E8E8
S1130A700E94030300E010E00BC0E1E0F0E0EC0FA3
S1130A80FD1FE00FF11F80810E9413030F5F1F4FB2
S1130A900C30110594F3EF28C1F064EE71E08C2D55
S1130AA09D2D0E94ED12892B39F00FC080E20E9427
S1130AB013030F5F1F4F02C00CE010E00F3011054D
S1130AC0ACF384E00E9413030CC082E00E94130381
S1130AD080E00E94130381E00E94130383E00E94DC
S1130AE0130380EC0E94030300E010E00BC0EDE070
S1130AF0F0E0EC0FFD1FE00FF11F80810E94130353
S1130B000F5F1F4F0031110594F36C960FB6F894E4
S1130B10DEBF0FBECDBFDF91CF911F910F91FF902C
S1130B20EF90DF90CF900895CF92DF92EF92FF92F3
S1130B30BC01990F880B990B0E945C109B01AC01BE
S1130B406AE979E989E791E40E94400F20ED3FE0EA
S1130B5049E453E40E94111120E030E04AE754E4F0
S1130B600E94B20F6B017C0120E030E0A9010E94D9
S1130B70AD0F88231CF4C12CD12C7601C701B6011A
S1130B80FF90EF90DF90CF9008950E94BD04BC01C8
S1130B9080E090E00E945A1020E030E040EC5FE3F7
S1130BA00E9411110E942B10CB010E9494050895FC
S1130BB08F929F92AF92BF92CF92DF92EF92FF9269
S1130BC0CF93DF9300D000D0CDB7DEB7BE016F5F07
S1130BD07F4F84EF94E00E94C701BE016D5F7F4F99
S1130BE084EF94E00E94AA0169817A81072E000CA7
S1130BF0880B990B0E945C1020E030E040EC5FE32E
S1130C000E9411110E942410CB010E9494054B01F3
S1130C105C016B817C81072E000C880B990B0E9470
S1130C205C1020E030E040EC5FE30E9411110E9470
S1130C302410CB010E9494056B017C019B01AC0143
S1130C40C501B4010E940C1118169CF0A501940171
S1130C50C701B6010E94400F20E030E040E05FE3AE
S1130C600E94111120E030E040E752E40E9411118B
S1130C7003C060E070E0CB010F900F900F900F90D5
S1130C80DF91CF91FF90EF90DF90CF90BF90AF9026
S1130C909F908F9008958F929F92AF92BF92CF9220
S1130CA0DF92EF92FF92CF93DF9300D000D0CDB7C5
S1130CB0DEB7BE016F5F7F4F84EF94E00E94C701EF
S1130CC0BE016D5F7F4F84EF94E00E94AA016981A9
S1130CD07A81072E000C880B990B0E945C1020E08F
S1130CE030E040EC5FE30E9411110E942410CB011C
S1130CF00E9494056B017C016B817C81072E000CA2
S1130D00880B990B0E945C1020E030E040EC5FE31C
S1130D100E9411110E942410CB010E9494054B01E2
S1130D205C019B01AC01C701B6010E94AD0F882391
S1130D30FCF0A5019401C701B6010E94400F6B01AC
S1130D407C0184EF94E00E94E401BC01990F880BBC
S1130D50990B0E945C109B01AC01C701B6010E9473
S1130D60B20F20E030E040E752E40E94111103C0CA
S1130D7060E070E0CB010F900F900F900F90DF9127
S1130D80CF91FF90EF90DF90CF90BF90AF909F9066
S1130D908F9008950E9456040895EF92FF920F9346
S1130DA0CF93DF9300D0CDB7DEB7E0912601F09169
S1130DB02701EF3F2FEFF20779F4E091E004F0917F
S1130DC0E104EE0FFF1FE25CFE4F608171818BEF47
S1130DD091E00E94DB046FC2E830F10508F065C2BF
S1130DE0EC5CFF4F0C94921165E072E080E192E0BC
S1130DF00E94DB040E94C5059B01AC010F2EFBEA97
S1130E00EF2EF3E0FF2EF02D01E060E170E084EEC0
S1130E1094E00E94D80064EE74E080E192E00E94C5
S1130E20DB0449C265E072E08EE192E00E94DB04DB
S1130E300E94D8059B01AC010F2EFAE2EF2EF2E0DE
S1130E40FF2EF02D01E060E170E084EE94E00E945A
S1130E50D80064EE74E08EE192E00E94DB042BC2C1
S1130E6065E072E088E392E00E94DB040E944B0696
S1130E709B01AC010F2EF5E4EF2EF2E0FF2EF02DD6
S1130E8001E060E170E084EE94E00E94D80064EE3A
S1130E9074E088E392E00E94DB040DC265E072E036
S1130EA082E592E00E94DB040E94CA069B01AC0129
S1130EB00F2EF9ECEF2EF3E0FF2EF02D01E060E1B0
S1130EC070E084EE94E00E94D80064EE74E082E561
S1130ED092E00E94DB04EFC18091200190912101F6
S1130EE0019679F4E091D804F091D904EE0FFF1F34
S1130EF0EA5CFE4F6081718183E692E00E94DB042C
S1130F00DAC18091D8049091D9048130910539F1E6
S1130F101CF4892B41F077C082309105E1F10397ED
S1130F2009F455C070C02091C0043091C1044091AF
S1130F30C2045091C3040F2EFBEAEF2EF3E0FF2E00
S1130F40F02D01E060E170E084EE94E00E94D800AE
S1130F5064EE74E085E192E00E94DB04ACC1209170
S1130F60BC043091BD044091BE045091BF040F2EC7
S1130F70F5E4EF2EF2E0FF2EF02D01E060E170E0E9
S1130F8084EE94E00E94D80064EE74E08EE192E076
S1130F900E94DB0490C12091B8043091B9044091BF
S1130FA0BA045091BB040F2EF5E4EF2EF2E0FF2EAD
S1130FB0F02D01E060E170E084EE94E00E94D8003E
S1130FC064EE74E08DE692E00E94DB0474C120912B
S1130FD0B4043091B5044091B6045091B7040F2E77
S1130FE0F9ECEF2EF3E0FF2EF02D01E060E170E06C
S1130FF084EE94E00E94D80064EE74E087E792E007
S11310000E94DB0458C161E872E083E992E00E9427
S1131010DB0451C180912401909125018F3F2FEF72
S1131020920779F4E091DE04F091DF04EE0FFF1FE4
S1131030EE5CFE4F6081718181E193E00E94DB04EC
S11310403AC1009719F00197E9F038C020911C01CA
S113105030911D0140911E0150911F010F2EFBEA9A
S1131060EF2EF3E0FF2EF02D01E060E170E084EE5E
S113107094E00E94D80064EE74E089E992E00E9452
S1131080DB0419C1209118013091190140911A0112
S113109050911B010F2EF9ECEF2EF3E0FF2EF02DF3
S11310A002E060E170E084EE94E00E94D80064EE17
S11310B074E086EA92E00E94DB04FDC06FEA72E00D
S11310C083E992E00E94DB04F6C01A8219828CE064
S11310D095E00E941A02892BA9F4BE016F5F7F4F2D
S11310E08CE095E00E94A202892B09F0E4C069819A
S11310F07A816115710509F4DEC08FEB92E00E94DC
S1131100DB04D9C068EC72E08FEB92E00E94DB0450
S1131110D2C080912201909123018F3F2FEF92073B
S113112079F4E091DC04F091DD04EE0FFF1FE85D3B
S1131130FE4F6081718184ED92E00E94DB04BBC0AC
S11311408230910509F446C02CF4009759F00197B8
S113115029F1A4C08330910509F458C0049709F417
S113116079C09CC020911401309115014091160161
S1131170509117010F2EFBEDEF2EF2E0FF2EF02D14
S113118001E060E170E084EE94E00E94D80064EE37
S113119074E081EE92E00E94DB048DC020910C018A
S11311A030910D0140910E0150910F010F2EFBEA79
S11311B0EF2EF3E0FF2EF02D01E060E170E084EE0D
S11311C094E00E94D80064EE74E08BEE92E00E94FA
S11311D0DB0471C0209108013091090140910A019A
S11311E050910B010F2EF9ECEF2EF3E0FF2EF02DB2
S11311F001E060E170E084EE94E00E94D80064EEC7
S113120074E08AEF92E00E94DB0455C080910701EC
S1131210882319F08AEE91E002C082EF91E09F9357
S11312208F9389E791E09F938F931F9280E18F932F
S113123084EE94E09F938F930E94431364EE74E0D2
S11312408AE093E00E94DB040FB6F894DEBF0FBE81
S1131250CDBF31C080910601882319F08AEE91E058
S113126002C082EF91E09F938F9389E791E09F936F
S11312708F931F9280E18F9384EE94E09F938F93DA
S11312800E94431364EE74E08AE193E00E94DB045D
S11312900FB6F894DEBF0FBECDBF0DC068E273E099
S11312A083E992E00E94DB0406C067E373E083E90C
S11312B092E00E94DB040F900F90DF91CF910F9189
S11312C0FF90EF9008958130A9F5809126019091C7
S11312D02701019609F49BC2809124019091250174
S11312E0019639F08FEF9FEF9093250180932401AD
S11312F008958091220190912301019639F08FEF96
S11313009FEF9093230180932201089580912001FF
S113131090912101019639F08FEF9FEF9093210175
S11313208093200108958FEF9FEF9093270180937E
S113133026010895823009F00EC180912601909112
S113134027018F3F2FEF920771F48091E004909171
S1131350E1048730910508F05AC201969093E104A4
S11313608093E00408958430910571F48091D80449
S11313709091D9048330910508F049C20196909365
S1131380D9048093D80408958530910509F050C09C
S113139080912401909125018F3F2FEF920769F4EA
S11313A08091DE049091DF04009709F030C2019629
S11313B09093DF048093DE040895009719F0019759
S11313C0E1F0089520911401309115014091160126
S11313D05091170160911C0170911D0180911E01B3
S11313E090911F010E94400F60931C0170931D0196
S11313F080931E0190931F01089520911401309150
S113140015014091160150911701609118017091D6
S1131410190180911A0190911B010E94400F609361
S113142018017093190180931A0190931B01089578
S11314308630910571F48091DA049091DB04833055
S113144091050CF0E4C101969093DB048093DA04D7
S11314500895079709F0DBC180912201909123013F
S11314608F3F2FEF920771F48091DC049091DD049B
S11314708430910508F0CBC101969093DD048093EC
S1131480DC0408958230910509F444C02CF40097DB
S113149059F0019721F108958330910509F455C05D
S11314A0049709F455C00895209110013091110159
S11314B04091120150911301609114017091150132
S11314C080911601909117010E94400F60931401BE
S11314D0709315018093160190931701089520913C
S11314E0140130911501409116015091170160913A
S11314F00C0170910D0180910E0190910F010E94D9
S1131500400F60930C0170930D0180930E01909332
S11315100F01089520911401309115014091160195
S113152050911701609108017091090180910A019D
S113153090910B010E94400F609308017093090180
S113154080930A0190930B01089510920701089566
S1131550109206010895833009F011C1809126018B
S1131560909127018F3F2FEF920771F48091E0044F
S11315709091E104181619060CF049C10197909353
S1131580E1048093E00408958430910571F480911E
S1131590D8049091D904181619060CF038C1019793
S11315A09093D9048093D80408958530910509F067
S11315B051C080912401909125018F3F2FEF920714
S11315C071F48091DE049091DF04181619060CF072
S11315D01EC101979093DF048093DE040895009761
S11315E019F00197E1F0089520911401309115014B
S11315F0409116015091170160911C0170911D01D9
S113160080911E0190911F010E94410F60931C0163
S113161070931D0180931E0190931F0108952091E2
S113162014013091150140911601509117016091F8
S113163018017091190180911A0190911B010E9467
S1131640410F609318017093190180931A019093CC
S11316501B0108958630910571F48091DA0490910C
S1131660DB04181619060CF0D2C001979093DB0422
S11316708093DA040895079709F0C9C08091220184
S1131680909123018F3F2FEF920771F48091DC0436
S11316909091DD04181619060CF0B9C001979093C7
S11316A0DD048093DC0408958230910509F444C07C
S11316B02CF4009759F0019721F108958330910596
S11316C009F455C0049709F456C0089520911001F7
S11316D03091110140911201509113016091140154
S11316E07091150180911601909117010E94410F8C
S11316F06093140170931501809316019093170160
S113170008952091140130911501409116015091D2
S1131710170160910C0170910D0180910E0190915F
S11317200F010E94410F60930C0170930D0180938F
S11317300E0190930F010895209114013091150129
S113174040911601509117016091080170910901AF
S113175080910A0190910B010E94410F609308014E
S11317607093090180930A0190930B01089581E01D
S113177080930701089581E08093060108958430E1
S113178009F045C080912601909127018F3F2FEFEA
S1131790920749F48091E0049091E1049093270129
S11317A08093260108958430910579F48091200175
S11317B090912101019659F58091D8049091D90412
S11317C0909321018093200108958530910579F447
S11317D080912401909125010196C9F48091DE0441
S11317E09091DF0490932501809324010895079735
S11317F071F48091220190912301019641F480912A
S1131800DC049091DD0490932301809322010895D8
S11318101F920F920FB60F9211248F938091E304BD
S11318208F5F8093E3048091E304883F28F0109253
S1131830E30481E08093E2048F910F900FBE0F9038
S11318401F901895CF93DF93CDB7DEB7C054D1095D
S11318500FB6F894DEBF0FBECDBF84EF94E00E94B4
S113186036018CE095E00E9403020E9444030E942A
S113187088040E94C2040E94C9020E94BF020E94FE
S1131880BD04BC0184EF94E00E945A018091B2042B
S11318908823E1F11A8219821092B20400E010E068
S11318A02CC0BE016F5F7F4F8CE095E00E94A202C6
S11318B069817A816115710511F464E473E084EE41
S11318C091E00E94DB042FEF82E597E021508040F5
S11318D09040E1F700C0000061E573E084EE91E020
S11318E00E94DB042FEF80E792E02150804090407B
S11318F0E1F700C000000F5F1F4F0530110534F4FD
S11319008CE095E00E941A02892B59F20E94CD06C0
S11319108091E204882309F48FC21092E20480913A
S1131920D4049091D504A091D604B091D704019623
S1131930A11DB11D8093D4049093D504A093D60423
S1131940B093D7040E94BD048C01BC0184EF94E0E1
S11319500E945A01B801110F880B990B0E945C1068
S113196020E030E040EC5FE30E9411110E9424105B
S1131970CB010E949405162F072FF82EE92E0E9402
S1131980CA06862E972EC82ED92E80910701882349
S113199009F452C220911C0130911D0140911E0195
S11319A050911F01612F702F8F2D9E2D0E94AD0F1E
S11319B018160CF444C04091D4045091D50460919D
S11319C0D6047091D7048091D0049091D104A09151
S11319D0D204B091D304481759076A077B0779F1F9
S11319E0EF92FF920F931F9383E593E09F938F935E
S11319F01F9280E48F93CE0101965C019F938F9395
S1131A000E944313B5018CE095E00E94360281E008
S1131A108093B2048091D4049091D504A091D6040B
S1131A20B091D7048093D0049093D104A093D204AE
S1131A30B093D3040FB6F894DEBF0FBECDBF209190
S1131A4018013091190140911A0150911B01682D20
S1131A50792D8C2D9D2D0E940C1188230CF444C0EB
S1131A604091D4045091D5046091D6047091D70468
S1131A708091CC049091CD04A091CE04B091CF0478
S1131A80481759076A077B0779F1DF92CF929F9233
S1131A908F9281E793E09F938F931F9280E48F93BB
S1131AA0CE0101965C019F938F930E944313B5016D
S1131AB08CE095E00E94360281E08093B20480912C
S1131AC0D4049091D504A091D604B091D704809306
S1131AD0CC049093CD04A093CE04B093CF040FB65E
S1131AE0F894DEBF0FBECDBF20910C0130910D01E3
S1131AF040910E0150910F01612F702F8F2D9E2D5B
S1131B000E940C1188230CF444C04091D4045091D9
S1131B10D5046091D6047091D7048091C804909143
S1131B20C904A091CA04B091CB04481759076A07A5
S1131B307B0779F1EF92FF920F931F9383E993E070
S1131B409F938F931F9280E48F938E010F5F1F4F9B
S1131B501F930F930E944313B8018CE095E00E94F9
S1131B60360281E08093B2048091D4049091D5042C
S1131B70A091D604B091D7048093C8049093C9046B
S1131B80A093CA04B093CB040FB6F894DEBF0FBE83
S1131B90CDBF209108013091090140910A01509173
S1131BA00B01682D792D8C2D9D2D0E94AD0F1816DB
S1131BB00CF442C14091D4045091D5046091D604F0
S1131BC07091D7048091C4049091C504A091C60477
S1131BD0B091C704481759076A077B0709F42CC159
S1131BE0DF92CF929F928F9280EB93E09F938F939B
S1131BF01F9280E48F938E010F5F1F4F1F930F93EB
S1131C000E944313B8018CE095E00E94360281E003
S1131C108093B2048091D4049091D504A091D60409
S1131C20B091D7048093C4049093C504A093C604D0
S1131C30B093C7040FB6F894DEBF0FBECDBFFCC08F
S1131C408091D8049091D9048130910509F440C061
S1131C501CF4892B49F0D7C08230910509F46CC07B
S1131C60039709F49DC0CFC08091B304811114C0BF
S1131C7061ED73E085E192E00E94DB0481E08093F2
S1131C80B3040E94C5056093C0047093C10480939B
S1131C90C2049093C304B7C02091C0043091C1041E
S1131CA04091C2045091C3040F2EFBEAEF2EF3E0DF
S1131CB0FF2EF02D01E060E170E084EE94E00E94DC
S1131CC0D80064EE74E085E192E00E94DB049BC0DE
S1131CD08091B304811114C061ED73E08EE192E050
S1131CE00E94DB0481E08093B3040E94D8056093D2
S1131CF0BC047093BD048093BE049093BF0483C05E
S1131D002091BC043091BD044091BE045091BF04A5
S1131D100F2EF5E4EF2EF2E0FF2EF02D01E060E14E
S1131D2070E084EE94E00E94D80064EE74E08EE1EA
S1131D3092E00E94DB0467C08091B304811114C057
S1131D4061ED73E08DE692E00E94DB0481E0809314
S1131D50B3040E944B066093B8047093B904809353
S1131D60BA049093BB044FC02091B8043091B904D5
S1131D704091BA045091BB040F2EF5E4EF2EF2E02B
S1131D80FF2EF02D01E060E170E084EE94E00E940B
S1131D90D80064EE74E08DE692E00E94DB0433C068
S1131DA08091B304811114C061ED73E087E792E080
S1131DB00E94DB0481E08093B3040E94CA0660930E
S1131DC0B4047093B5048093B6049093B7041BC015
S1131DD02091B4043091B5044091B6045091B704F5
S1131DE00F2EF9ECEF2EF3E0FF2EF02D01E060E171
S1131DF070E084EE94E00E94D80064EE74E087E71B
S1131E0092E00E94DB040E94C904182F853009F473
S1131E1017CF1092B304813041F48FEF9FEF90936A
S1131E2027018093260115E014C00E9463090E94D3
S1131E30C9048530E1F701C015E080912601909135
S1131E402701049731F4809120019091210101969A
S1131E50D1F6153049F40E94D4020E94C904182F07
S1131E608530D9F30E94D0020E94C90418130ECD04
S1131E70812F0E9463090E94C9048530E1F706CDD1
S1131E805058BB27AA270E94580F0C94D2100E94C6
S1131E90C41038F00E94CB1020F039F49F3F19F49D
S1131EA026F40C94C1100EF4E095E7FB0C94BB10DF
S1131EB0E92F0E94E31058F3BA17620773078407E7
S1131EC0950720F079F4A6F50C9405110EF4E0952D
S1131ED00B2EBA2FA02D0B01B90190010C01CA01E0
S1131EE0A0011124FF27591B99F0593F50F4503E8B
S1131EF068F11A16F040A22F232F342F4427585F7D
S1131F00F3CF469537952795A795F0405395C9F794
S1131F107EF41F16BA0B620B730B840BBAF091504C
S1131F20A1F0FF0FBB1F661F771F881FC2F70EC0EB
S1131F30BA0F621F731F841F48F4879577956795BE
S1131F40B795F7959E3F08F0B0CF9395880F08F0AA
S1131F509927EE0F9795879508950E94971008F496
S1131F6081E008950E94C60F0C94D2100E94CB10F9
S1131F7058F00E94C41040F029F45F3F29F00C94FB
S1131F80BB1051110C9406110C94C1100E94E31063
S1131F9068F39923B1F3552391F3951B550BBB2794
S1131FA0AA2762177307840738F09F5F5F4F220FD9
S1131FB0331F441FAA1FA9F335D00E2E3AF0E0E8D0
S1131FC032D091505040E695001CCAF72BD0FE2F1A
S1131FD029D0660F771F881FBB1F261737074807AE
S1131FE0AB07B0E809F0BB0B802DBF01FF27935866
S1131FF05F4F3AF09E3F510578F00C94BB100C945F
S113200006115F3FE4F3983ED4F386957795679580
S1132010B795F7959F5FC9F7880F911D969587959A
S113202097F90895E1E0660F771F881FBB1F6217B9
S113203073078407BA0720F0621B730B840BBA0B77
S1132040EE1F88F7E09508950E942B106894B11153
S11320500C94061108950E94EB1088F09F5798F095
S1132060B92F9927B751B0F0E1F0660F771F881F99
S1132070991F1AF0BA95C9F714C0B13091F00E94B3
S11320800511B1E008950C940511672F782F882766
S1132090B85F39F0B93FCCF3869577956795B395DA
S11320A0D9F73EF490958095709561957F4F8F4F49
S11320B09F4F0895E89409C097FB3EF4909580954E
S11320C0709561957F4F8F4F9F4F9923A9F0F92FFA
S11320D096E9BB279395F695879577956795B79578
S11320E0F111F8CFFAF4BB0F11F460FF1BC06F5F5E
S11320F07F4F8F4F9F4F16C0882311F096E911C070
S1132100772321F09EE8872F762F05C0662371F090
S113211096E8862F70E060E02AF09A95660F771FA4
S1132120881FDAF7880F9695879597F90895990F80
S11321300008550FAA0BE0E8FEEF16161706E8078D
S1132140F907C0F012161306E407F50798F0621BAE
S1132150730B840B950B39F40A2661F0232B242B83
S1132160252B21F408950A2609F4A140A6958FEFA2
S1132170811D811D089597F99F6780E870E060E0F4
S113218008959FEF80EC089500240A94161617060C
S113219018060906089500240A9412161306140654
S11321A005060895092E0394000C11F4882352F0B7
S11321B0BB0F40F4BF2B11F460FF04C06F5F7F4F6F
S11321C08F4F9F4F089557FD9058440F551F59F056
S11321D05F3F71F04795880F97FB991F61F09F3F10
S11321E079F087950895121613061406551FF2CF39
S11321F04695F1DF08C0161617061806991FF1CF89
S113220086957105610508940895E894BB276627AF
S11322107727CB0197F908950E94971008F48FEF60
S113222008950E9424110C94D2100E94C41038F016
S11322300E94CB1020F0952311F00C94BB100C9449
S1132240C11011240C9406110E94E31070F3959FA1
S1132250C1F3950F50E0551F629FF001729FBB2799
S1132260F00DB11D639FAA27F00DB11DAA1F649F35
S11322706627B00DA11D661F829F2227B00DA11DE8
S1132280621F739FB00DA11D621F839FA00D611D6E
S1132290221F749F3327A00D611D231F849F600D8F
S11322A0211D822F762F6A2F11249F5750409AF0B8
S11322B0F1F088234AF0EE0FFF1FBB1F661F771F44
S11322C0881F91505040A9F79E3F510580F00C940F
S11322D0BB100C9406115F3FE4F3983ED4F386954B
S11322E077956795B795F795E7959F5FC1F7FE2BAF
S11322F0880F911D9695879597F9089597FB072E5A
S113230016F4009407D077FD09D00E94981107FCB9
S113231005D03EF4909581959F4F089570956195F1
S11323207F4F0895EE0FFF1F0590F491E02D09945F
S1132330AA1BBB1B51E107C0AA1FBB1FA617B707E7
S113234010F0A61BB70B881F991F5A95A9F7809503
S11323509095BC01CD010895EF920F931F93CF93F5
S1132360DF93E80147FD02C034E001C034E1042EEC
S1132370000C550B57FF03C0519541955109E32EAD
S1132380022F242FAE010E945415CE01DF91CF916C
S11323901F910F91EF9008950F931F93CF93DF93A5
S11323A08230910510F482E090E0E0912605F091EE
S11323B0270520E030E0A0E0B0E0309719F140813B
S11323C051810281138148175907C8F08417950772
S11323D069F4109731F012960C93129713961C938C
S11323E027C0009326051093270522C02115310527
S11323F019F04217530718F49A01BD01EF01DF01E8
S1132400F801DBCF21153105F9F0281B390B2430F5
S1132410310580F48A819B816115710521F0FB01EE
S11324209383828304C09093270580932605FE013D
S1132430329644C0FE01E20FF31F81939193225020
S11324403109398328833AC0209124053091250528
S1132450232B41F42091020130910301309325058F
S113246020932405209100013091010121153105AB
S113247041F42DB73EB74091040150910501241B4E
S1132480350BE0912405F0912505E217F307A0F43C
S11324902E1B3F0B2817390778F0AC014E5F5F4FB6
S11324A02417350748F04E0F5F1F509325054093BE
S11324B024058193919302C0E0E0F0E0CF01DF9125
S11324C0CF911F910F910895CF93DF93009709F453
S11324D081C0FC01329713821282A0912605B0912B
S11324E02705109781F420813181820F931F209159
S11324F02405309125052817390751F5F093250552
S1132500E093240567C0ED0120E030E0CE17DF073B
S113251040F44A815B819E0141155105F1F0EA01C5
S1132520F5CFD383C28340815181840F951FC8178F
S1132530D90759F488819981840F951F0296918354
S113254080838A819B81938382832115310529F4B9
S1132550F0932705E09326053DC0E901FB83EA8358
S113256049915991C40FD51FEC17FD0761F480817F
S11325709181840F951F0296E90199838883828152
S113258093819B838A83E0E0F0E012968D919C9185
S11325901397009719F0FD01DC01F7CF8D919C9101
S11325A011979D012E5F3F4F820F931F20912405A9
S11325B0309125052817390769F4309729F41092CA
S11325C027051092260502C013821282B0932505B6
S11325D0A0932405DF91CF910895FB01DC018D9137
S11325E0019080190110D9F3990B0895FB01DC01C6
S11325F001900D920020E1F70895A0E0B0E0E3E03F
S1132600F3E10C944618AE014B5F5F4FFA01619100
S11326107191AF0180912A0590912B050E9473134B
S1132620E2E00C9462180F931F93CF93DF93E09131
S11326302A05F0912B05238121FF1BC08C01D0E0DA
S1132640C0E0F80181918F0160912A0570912B05FA
S1132650DB011896ED91FC911997882331F00995C7
S1132660892B79F3DFEFCFEFECCF8AE00995892B43
S113267019F08FEF9FEF02C08D2F9C2FDF91CF9128
S11326801F910F910895AEE0B0E0E9E4F3E10C94FA
S113269044180D891E898F89988D26E02C831A830E
S11326A0098397FF02C080E090E801979E838D83A1
S11326B0AE01455E5F4F698D7A8DCE0101960E9411
S11326C073134D815E8157FD0AC02F8138854217EF
S11326D053070CF49A01F801E20FF31F10822E96AF
S11326E0E4E00C946018ABE0B0E0E9E7F3E10C94AB
S11326F036186C017B018A01FC01178216828381E2
S113270081FFCCC1CE0101963C01F6019381F70112
S113271093FD859193FF81917F01882309F4BAC1C8
S1132720853239F493FD859193FF81917F01853240
S113273029F4B60190E00E949C17E7CF912C212C3C
S1132740312CFFE1F315D8F08B3279F038F4803274
S113275079F08332A1F4232D20611DC08D3261F004
S1132760803369F4232D216016C0832D8260382EB6
S1132770E32DE4603E2E2AC0F32DF8601DC037FC23
S11327802DC020ED280F2A3040F08E32B9F436FCEB
S113279081C1232D2064322E19C036FE06C08AE082
S11327A0989E200D1124922E11C0EAE02E9E200D39
S11327B01124222EF32DF0623F2E08C08C3621F412
S11327C0832D8068382E02C0883641F4F70193FDCA
S11327D0859193FF81917F018111B3CF982F9F7DC4
S11327E09554933028F40C5F1F4F9FE399830DC0D9
S11327F0833631F0833771F0833509F059C021C035
S1132800F801808189830E5F1F4F88248394912C63
S1132810530113C02801F2E04F0E511CF801A080AF
S1132820B18036FE03C0692D70E002C06FEF7FEF08
S1132830C5010E9491174C018201F32DFF773F2EB1
S113284016C0280122E0420E511CF801A080B1807C
S113285036FE03C0692D70E002C06FEF7FEFC50143
S11328600E9486174C01F32DF0683F2E820133FC41
S11328701BC0822D90E088169906B0F4B60180E260
S113288090E00E949C172A94F4CFF50137FC8591BF
S113289037FE81915F01B60190E00E949C172110E0
S11328A02A9421E0821A91088114910471F7E8C0F6
S11328B0843611F0893641F5F80137FE07C060818E
S11328C07181828193810C5F1F4F08C06081718187
S11328D0072E000C880B990B0E5F1F4FF32DFF760C
S11328E03F2E97FF09C090958095709561957F4F15
S11328F08F4F9F4FF0683F2E2AE030E0A3010E94E3
S1132900D817882E861845C0853731F4232D2F7E9D
S1132910B22E2AE030E025C0932D997FB92E8F3650
S1132920C1F018F4883579F0B5C0803719F08837CC
S113293021F0B0C0E92FE061BE2EB4FE0DC0FB2D26
S1132940F460BF2E09C034FE0AC0292F2660B22EBF
S113295006C028E030E005C020E130E002C020E1FC
S113296032E0F801B7FE07C06081718182819381F2
S11329700C5F1F4F06C06081718180E090E00E5FA4
S11329801F4FA3010E94D817882E8618FB2DFF77AE
S11329903F2E36FE0DC0232D2E7FA22E891458F40F
S11329A034FE0BC032FC09C0832D8E7EA82E05C0D8
S11329B0B82CA32C03C0B82C01C0B92CA4FE0FC0A2
S11329C0FE01E80DF11D8081803321F49A2D997E5A
S11329D0A92E09C0A2FE06C0B394B39404C08A2DE4
S11329E0867809F0B394A3FC11C0A0FE06C0B2140B
S11329F088F4280C922C9B180EC0B21460F4B60113
S1132A0080E290E00E949C17B394F7CFB21418F4BC
S1132A102B1802C0982C212CA4FE10C0B60180E310
S1132A2090E00E949C17A2FE17C0A1FC03C088E797
S1132A3090E002C088E590E0B6010CC08A2D86784B
S1132A4059F0A1FE02C08BE201C080E2A7FC8DE236
S1132A50B60190E00E949C17891438F4B60180E313
S1132A6090E00E949C179A94F7CF8A94F301E80DA2
S1132A70F11D8081B60190E00E949C178110F5CF72
S1132A80222009F442CEB60180E290E00E949C1715
S1132A902A94F6CFF6018681978102C08FEF9FEFCB
S1132AA02B96E2E10C945218A9E0B0E0EAE5F5E1D6
S1132AB00C943C186A01122FB02E2BE3201720F03F
S1132AC0FF24F394F00E02C02CE3F22E0F2D27E026
S1132AD0AE014F5F5F4F0E94AE16BC014981842F47
S1132AE08970813031F0E1FC06C0E0FE06C090E25E
S1132AF005C09DE203C09BE201C090E05E2D5071D1
S1132B0043FF3CC0911102C083E001C084E08117FF
S1132B1018F4212F281B01C020E051110BC0F6012D
S1132B20822F30E2882319F031938150FBCFC20EFB
S1132B30D11C20E0992329F0D6019C93F60131960B
S1132B406F01C6010396E2FE0AC03EE4D6013C933F
S1132B5041E411964C93119712963C9306C03EE6BD
S1132B60F601308341E641833283FC01322F40E297
S1132B70332309F442C041933150FACF42FF44C099
S1132B80911102C083E001C084E0811718F4212F61
S1132B90281B01C020E051110BC0F601822F30E246
S1132BA0882319F031938150FBCFC20ED11C20E051
S1132BB0992329F0D6019C93F60131966F01C60141
S1132BC00396E2FE0BC039E4D6013C933EE4119631
S1132BD03C93119736E412963C9307C039E6F6010C
S1132BE030833EE6318336E63283FC01322F40E205
S1132BF0332319F041933150FBCFFC01E20FF11D57
S1132C0010828EEF9FEFA6C021E030E0911102C048
S1132C1020E030E0161617061CF4FB01319602C0C2
S1132C20E1E0F0E02E0F3F1FBB2021F0EB2DF0E0A0
S1132C30319602C0E0E0F0E02E0F3F1FE12FF0E0FC
S1132C402E173F071CF4121B212F01C020E08E2DEC
S1132C50887159F4F601822F30E2882319F03193F8
S1132C608150FBCFC20ED11C20E0992329F0D6015C
S1132C709C93F60131966F0151110BC0F601822F1E
S1132C8090E3882319F091938150FBCFC20ED11C9D
S1132C9020E00F2D060F9A81342F307144FF03C0BA
S1132CA0913309F40150101624F4093018F008E0A7
S1132CB001C001E0AB0177FF02C040E050E0FB013E
S1132CC0E41BF50BA1E0B0E0AC0FBD1FEA0FFB1F46
S1132CD08EE2A82E4B01801A91080B2D10E011955D
S1132CE0019511094F3FBFEF5B0721F4D601AC9268
S1132CF011966D01641775072CF08416950614F46B
S1132D00818101C080E3415051093196D601119669
S1132D107D014017510724F0D6018C936701E2CF5F
S1132D206417750739F4963320F4953319F4311187
S1132D3001C081E3F6018083F701822F90E28823AA
S1132D4019F091938150FBCFF701E20FF11D10822E
S1132D5080E090E02996ECE00C945818283008F0B4
S1132D6027E03327DA01990F311D87FD9160009622
S1132D706105710539F432602E5F3D9330E32A9585
S1132D80E1F708959F3F30F080387105610509F03F
S1132D903C5F3C5F3D93913008F08068911DDF9368
S1132DA0CF931F930F93FF92EF92192F987F9695CD
S1132DB0E92F96959695E90FFF27EE52FF4F992735
S1132DC03327EE24FF24A701E70105900894079414
S1132DD028F4360FE71EF81E491F511D660F771F92
S1132DE0881F991F0694A1F70590079428F4E70E0D
S1132DF0F81E491F561FC11D770F881F991F661F94
S1132E000694A1F70590079428F4F80E491F561F5D
S1132E10C71FD11D880F991F661F771F0694A1F73E
S1132E200590079420F4490F561FC71FD81F990F08
S1132E30661F771F881F0694A9F784911095177051
S1132E4041F0D695C79557954795F794E7941A9509
S1132E50C1F7E8E7F0E06894159015913591659114
S1132E60959105907FE27395E118F10A430B560B97
S1132E70C90BD009C0F7E10CF11E431F561FC91F2F
S1132E80D01D7EF4703311F48A95E6CFE894015096
S1132E9030F0080F0AF40027021708F4202F2395B6
S1132EA0022F7A3328F079E37D932A95E9F710C04D
S1132EB07D932A9589F60694979567953795179586
S1132EC01794E118F10A430B560BC90BD00998F07B
S1132ED023957E9173957A3308F070E37C932013E5
S1132EE0B8F77E9170617D9330F0839571E37D93A3
S1132EF070E32A95E1F71124EF90FF900F911F9151
S1132F00CF91DF91992787FD90950895FC01059055
S1132F10615070400110D8F7809590958E0F9F1FD7
S1132F200895FC016150704001900110D8F780951C
S1132F3090958E0F9F1F08950F931F93CF93DF9348
S1132F40FB01238121FD03C08FEF9FEF2CC022FFE3
S1132F5016C046815781248135814217530744F4B2
S1132F60A081B1819D012F5F3F4F318320838C93DA
S1132F70268137812F5F3F4F3783268314C08B010F
S1132F80EC01FB010084F185E02D0995892BE1F624
S1132F90D80116968D919C911797019617969C933C
S1132FA08E931697CE01DF91CF911F910F910895C3
S1132FB0FA01AA27283051F1203181F1E8946F9366
S1132FC06E7F6E5F7F4F8F4F9F4FAF4FB1E03ED00C
S1132FD0B4E03CD0670F781F891F9A1FA11D680FAA
S1132FE0791F8A1F911DA11D6A0F711D811D911DDD
S1132FF0A11D20D009F468943F912AE0269F112452
S11330003019305D3193DEF6CF010895462F4770B5
S1133010405D4193B3E00FD0C9F7F6CF462F4F7010
S1133020405D4A3318F0495D31FD4052419302D06E
S1133030A9F7EACFB4E0A695979587957795679514
S1133040BA95C9F700976105710508959B01AC0114
S11330500A2E06945795479537952795BA95C9F73B
S1133060620F731F841F951FA01D08952F923F9216
S11330704F925F926F927F928F929F92AF92BF9284
S1133080CF92DF92EF92FF920F931F93CF93DF9330
S1133090CDB7DEB7CA1BDB0B0FB6F894DEBF0FBE8D
S11330A0CDBF09942A88398848885F846E847D84DA
S11330B08C849B84AA84B984C884DF80EE80FD80DC
S11330C00C811B81AA81B981CE0FD11D0FB6F89452
S11130D0DEBF0FBECDBFED010895F894FFCF13
S11330DE00002E05200001010000C0410000A041A7
S11330EE0000803E0000003F0000E4410000803FED
S11330FEFFFFFFFFFFFFFFFFDD03E703F9030C04F0
S113310E1C049902A6022A0433043F0449045304FE
S113311E610470047D048E049804A104AA040004BE
S113312E04041F0E040000040E1F04040400000413
S113313E061F0604000000040C1F0C04000000040B
S113314E0E0E1F040000257320257300517565753E
S113315E6520697320656D707479210051756575EC
S113316E652066756C6C2C206F76657277726F7441
S113317E65206F6C6465737420776974683A2025D2
S113318E640A00537472696E6720717565756520E3
S113319E697320656D7074792100656E717565753E
S11331AE655374723A206D616C6C6F63206661694D
S11331BE6C656400414C45525400456E61626C6509
S11331CE640044697361626C6564004D41494E202C
S11331DE4D454E55004C6F6164696E672E2E2E0060
S11331EE54414E4B2043415041434954590052459A
S11331FE46494C4C2052415445004C747273207015
S113320E657220686F7572004C45414B41474520ED
S113321E52415445004C74727320706572206D696E
S113322E6E00534F494C2054454D50455241545510
S113323E5245004C4956452056494557004C454188
S113324E4B205241544500534F494C2054454D5048
S113325E00496E76616C6964206C697665207669C6
S113326E6577004552524F52004D494E204341500E
S113327E4143495459004D41582054454D5000493D
S113328E6E76616C69642074726967676572004D4D
S113329E45535341474553004E6F206D657373611B
S11332AE67657300434F4E46494700556E69747304
S11332BE00535445502053495A450050554D502003
S11332CE5448524553484F4C440053505241592090
S11332DE5448524553484F4C4400454E41424C4588
S11332EE20545249474745525300454E41424C459E
S11332FE20414C4552545300496E76616C696420EA
S113330E636F6E66696700496E76616C6964206DE1
S113331E656E750053797374656D20616C65727496
S113332E002000526566696C6C207472696767656B
S113333E72656420617420252E3166204C7472737C
S113334E00436F6F6C696E6720747269676765728C
S113335E656420617420252E32662064656772656B
S113336E65730050756D70696E672073746F70703D
S113337E656420617420252E3166204C74727300AE
S113338E5370726179696E672073746F70706564BF
S113339E20617420252E326620646567726565731C
S11333AE005570646174696E672E2E2E0053746519
S11333BE702073697A650050756D70696E6720743C
S11333CE68726573686F6C64005370726179696EAC
S11333DE67207468726573686F6C6400456E616211
S11333EE6C6520747269676765727300456E6162FD
S11333FE6C6520616C6572747300436170616369FE
S113340E747900526566696C6C2052617465004C67
S113341E65616B205261746500536F696C2054654D
S113342E6D700054616E6B206361706163697479B1
S113343E00526566696C6C696E6720726174650012
S113344E4C65616B616765207261746500536F69C9
S113345E6C2074656D7065726174757265004C696B
S113346E766520566965770054726967676572736D
S113347E004D6573736167657300436F6E666967AC
S105348E000038
S9030000FC
