S0100000776F726B61626C652E73726563BD
S11300000C94BA000C94D7000C94D7000C94D7002D
S11300100C94D7000C94D7000C94D7000C94D70000
S11300200C94D7000C94D7000C94D7000C94D700F0
S11300300C94D7000C94D7000C94D7000C94D700E0
S11300400C94D7000C94D7000C94D7000C94D700D0
S11300500C94D7000C94D7000C94D7000C94D700C0
S11300600C94D7000C94D700AA04C804E604040531
S11300702205C005FC061B062A0600407A10F35A26
S113008000A0724E18090010A5D4E80000E87648D4
S1130090170000E40B54020000CA9A3B000000E180
S11300A0F505000080969800000040420F00000013
S11300B0A08601000000102700000000E8030000F3
S11300C000006400000000000A00000000000100BD
S11300D0000000002C76D888DC674F0823DFC1DFDE
S11300E0AE59E1B1B796E5E3E453C63AE6519976E1
S11300F096E8E6C28426EB898C9B62ED407C6FFC1B
S1130100EFBC9C9F40F2BAA56FA5F490055A2AF75C
S11301105C936B6CF9676DC11BFCE0E40D47FEF565
S113012020E6B500D0ED902E0300943577050080CD
S1130130841E080000204E0A000000C80C3333332C
S1130140330F986E12831141EF8D2114893BE655CC
S113015016CFFEE6DB18D1844B381BF77C1D901DAF
S1130160A4BBE424203284725E228100C9F124EC11
S1130170A1E53D2711241FBECFEFD8E0DEBFCDBFE0
S113018013E0A0E0B1E0E8EDF3E202C005900D92C7
S1130190AE3AB107D9F723E0AEEAB3E001C01D924D
S11301A0A83DB207E1F70E94AB090C94EA110C9444
S11301B00000AF92BF92CF92DF92EF92FF920F9323
S11301C01F93CF93DF93CDB7DEB768970FB6F8943C
S11301D0DEBF0FBECDBFD82EC92EB62EA72ECA01A4
S11301E0B901202F8E010F5F1F4F40E00E94A00C29
S11301F0E114F104C1F0F70180818823A1F0FF929A
S1130200EF921F930F9380E791E09F938F93AF92A8
S1130210BF92CF92DF920E94C00C0FB6F894DEBF5B
S11302200FBECDBF13C0CE0101969F938F9383E77A
S113023091E09F938F93AF92BF92CF92DF920E94EF
S1130240C00C0FB6F894DEBF0FBECDBF68960FB6D4
S1130250F894DEBF0FBECDBFDF91CF911F910F91F8
S1130260FF90EF90DF90CF90BF90AF90089587B14B
S1130270826087B988B18D7F88B9089588B18D7FF0
S113028088B9089588B1826088B9089585B182607B
S113029085B985E08A95F1F7000085B18D7F85B930
S11302A08FE891E00197F1F700C0000008959BB139
S11302B09F709BB980FF03C09BB190619BB981FF84
S11302C003C09BB190629BB982FF03C09BB1906451
S11302D09BB983FF03C08BB180688BB90E94460130
S11302E00895CF93C82F85B18E7F85B98C2F8295C1
S11302F08F700E9457018C2F8F700E945701CF91ED
S11303000895CF93C82F85B1816085B98C2F8295CC
S11303108F700E9457018C2F8F700E945701CF91CC
S113032008950F931F93CF938B01877090E0880FEC
S1130330991F880F991F880F991F80640E9471016B
S1130340C0E007C0F801EC0FF11D80810E9481011B
S1130350CF5FC830B8F380E80E947101CF911F913C
S11303600F91089584B1836084B98AB1806F8AB98A
S11303702FEF89EF90E0215080409040E1F700C0DA
S1130380000083E00E9457018FE19EE40197F1F79A
S113039000C0000083E00E94570187E592E00197C6
S11303A0F1F700C0000083E00E94570182E00E9440
S11303B0570188E20E9471018CE00E94710186E07D
S11303C00E94710181E00E9471018FE39FE1019716
S11303D0F1F700C00000089587B1816087B988B142
S11303E08E7F88B98FE797E00197F1F700C000008E
S11303F087B18E7F87B9EFEEF0E03197F1F700C057
S1130400000096B181E089278170EFE8F6E031972A
S1130410F1F700C00000089597B1916097B998B1C1
S11304209E7F98B9882371F085E08A95F1F70000E2
S113043087B18E7F87B98FEE90E00197F1F700C006
S1130440000008958FEE90E00197F1F700C00000DE
S113045087B18E7F87B90895CF93DF93D82FC0E0FB
S113046006C08D2F81700E940C02D695CF5FC830D4
S1130470C0F3DF91CF91089587B1816087B988B1C6
S11304808E7F88B98AE08A95F1F700C087B18E7FA4
S113049087B9E5E3EA95F1F7000086B18170E7ECEE
S11304A0F0E03197F1F700C000000895CF93DF9397
S11304B0C0E0D0E006C0D6950E943C028111D0680D
S11304C0CF5FC830C0F38D2FDF91CF910895CF93C4
S11304D00E94EC018CEC0E942C0284E40E942C0209
S11304E02FEF8EE994E2215080409040E1F700C064
S11304F000000E94EC018CEC0E942C028EEB0E9406
S11305002C020E945602C82F0E945602682F70E0E7
S1130510762F66276C2B072E000C880B990B0E94F4
S1130520780B20E030E040E85DE30E942D0CCF9191
S113053008958AB184608AB98AB1877F8AB9089597
S11305408BB18B7F8BB92FEF87E893E121508040EB
S11305509040E1F700C000008BB184608BB92FEFAD
S113056087E893E1215080409040E1F700C000000B
S11305708BB18B7F8BB908954B9BFECF60E070E00D
S1130580CB0108C025E02A95F1F700006F5F7F4F8B
S11305908F4F9F4F4B99F6CF0E94760B20E030E0AF
S11305A048E652E40E94D50A0E94470BCB01089505
S11305B00E94A0020E94BC02089584B1837C84B985
S11305C085B18C6385B908951A9B08C01B9B08C02C
S11305D01C9B08C01D9908C084E0089581E008951B
S11305E082E0089583E0089585E008950F931F93B2
S11305F0CF93DF93CDB7DEB7EC970FB6F894DEBF99
S11306000FBECDBFDC018B018FE39FE10197F1F7B2
S113061000C0000020E030E00AC01196E1E0F0E004
S1130620EC0FFD1FE20FF31F80832F5F3F4F2C3031
S1130630310574F48C918111F0CF0AC0E1E0F0E04F
S1130640EC0FFD1FE20FF31F80E280832F5F3F4F0B
S11306502C3031059CF388E0E0E5F1E0DE015D96A5
S113066001900D928A95E1F788E0E8E5F1E0DE017A
S1130670959601900D928A95E1F788E0E0E6F1E025
S1130680DE019D9601900D928A95E1F788E0E8E6F7
S1130690F1E0DE01D59601900D928A95E1F7BE0155
S11306A0635E7F4F80E00E949101BE016B5D7F4FCE
S11306B081E00E949101BE016B5C7F4F82E00E9449
S11306C09101BE01635D7F4F83E00E94910180E050
S11306D090E00AC00F5F1F4FEDE0F0E0EC0FFD1F4C
S11306E0E80FF91F208301968031910574F4F80115
S11306F020812111EFCF09C0EDE0F0E0EC0FFD1FE8
S1130700E80FF91F20E22083019680319105A4F3BC
S113071080E80E94710100E010E00BC0E1E0F0E02D
S1130720EC0FFD1FE00FF11F80810E9481010F5F1C
S11307301F4F0C30110594F382E00E94810180E088
S11307400E94810181E00E94810183E00E94810175
S113075080EC0E94710100E010E00BC0EDE0F0E0DD
S1130760EC0FFD1FE00FF11F80810E9481010F5FDC
S11307701F4F0031110594F3EC960FB6F894DEBFC9
S11307800FBECDBFDF91CF911F910F910895CF92EE
S1130790DF92EF92FF920E94D802BC0180E090E0C9
S11307A00E94760B20E030E040EC5FE30E942D0CC9
S11307B00E94470B80E090E00E94760B9B01AC0105
S11307C06AE979E989E791E40E94630A20ED3FE050
S11307D049E453E40E942D0C20E030E04AE754E45D
S11307E00E94D50A6B017C0120E030E0A9010E943F
S11307F0D00A88231CF4C12CD12C7601C701B60180
S1130800FF90EF90DF90CF9008958F929F92AF92D8
S1130810BF92CF92DF92EF92FF920E94C7034B01E7
S11308205C012FEF87EA91E6215080409040E1F788
S113083000C000000E94C7036B017C019B01AC0156
S1130840C501B4010E94280C18169CF0A50194015E
S1130850C701B6010E94630A20E030E040E05FE394
S11308600E942D0C20E030E040E752E40E942D0C61
S113087003C060E070E0CB01FF90EF90DF90CF9079
S1130880BF90AF909F908F9008958F929F92AF9258
S1130890BF92CF92DF92EF92FF920E94C7036B0147
S11308A07C012FEF87EA91E6215080409040E1F7E8
S11308B000C000000E94C7034B015C019B01AC0116
S11308C0C701B6010E94D00A88239CF0A5019401B7
S11308D0C701B6010E94630A20E030E040E05FE314
S11308E00E942D0C20E030E040E752E40E942D0CE1
S11308F003C060E070E0CB01FF90EF90DF90CF90F9
S1130900BF90AF909F908F9008950E9467020895C2
S1130910EF92FF920F93E0912001F0912101EF3FBC
S11309202FEFF20779F4E091C603F091C703EE0FBD
S1130930FF1FE05CFE4F6081718187E891E00E94B7
S1130940F60260C2E930F10508F056C2EC5CFF4FD4
S11309500C949A0C61E971E08CE991E00E94F60232
S11309600E94C7039B01AC010F2EFAEAEF2EF1E0BF
S1130970FF2EF02D01E060E170E088EC93E00E942E
S1130980D90068EC73E08CE991E00E94F6023AC267
S113099061E971E08FEA91E00E94F6020E94050489
S11309A09B01AC010F2EFBEBEF2EF1E0FF2EF02D9F
S11309B001E060E170E088EC93E00E94D90068EC0B
S11309C073E08FEA91E00E94F6021CC261E971E0D3
S11309D088EC91E00E94F6020E9445049B01AC0160
S11309E00F2EFBEBEF2EF1E0FF2EF02D01E060E186
S11309F070E088EC93E00E94D90068EC73E088EC26
S1130A0091E00E94F602FEC161E971E085ED91E09A
S1130A100E94F6020E9485049B01AC010F2EF6EEA3
S1130A20EF2EF1E0FF2EF02D01E060E170E088ECA4
S1130A3093E00E94D90068EC73E085ED91E00E9498
S1130A40F602E0C180911A0190911B01019679F49C
S1130A50E091BE03F091BF03EE0FFF1FE85CFE4F71
S1130A60608171818EEE91E00E94F602CBC180918B
S1130A70BE039091BF038130910539F11CF4892B99
S1130A8041F077C082309105E1F1039709F455C034
S1130A9070C02091BA033091BB034091BC035091C4
S1130AA0BD030F2EFAEAEF2EF1E0FF2EF02D01E048
S1130AB060E170E088EC93E00E94D90068EC73E098
S1130AC081EA91E00E94F6029DC12091B603309123
S1130AD0B7034091B8035091B9030F2EFBEBEF2EEF
S1130AE0F1E0FF2EF02D01E060E170E088EC93E08E
S1130AF00E94D90068EC73E08FEA91E00E94F6024C
S1130B0081C12091B2033091B3034091B403509159
S1130B10B5030F2EFBEBEF2EF1E0FF2EF02D01E0DD
S1130B2060E170E088EC93E00E94D90068EC73E027
S1130B3088EF91E00E94F60265C12091AE033091E6
S1130B40AF034091B0035091B1030F2EF6EEEF2E98
S1130B50F1E0FF2EF02D01E060E170E088EC93E01D
S1130B600E94D90068EC73E082E092E00E94F602F1
S1130B7049C16CE072E08EE192E00E94F60242C14B
S1130B8080911E0190911F018F3F2FEF920779F4FE
S1130B90E091C403F091C503EE0FFF1FEC5CFE4F20
S1130BA06081718180E992E00E94F6022BC1009776
S1130BB019F00197E9F038C020911601309117011E
S1130BC040911801509119010F2EFAEAEF2EF1E02D
S1130BD0FF2EF02D01E060E170E088EC93E00E94CC
S1130BE0D90068EC73E084E292E00E94F6020AC144
S1130BF0209112013091130140911401509115017B
S1130C000F2EF6EEEF2EF1E0FF2EF02D02E060E164
S1130C1070E088EC93E00E94D90068EC73E081E313
S1130C2092E00E94F602EEC06AE372E08EE192E086
S1130C300E94F602E7C0E091C003F091C103EE0FF9
S1130C40FF1FEE5DFE4F608171818AE492E00E9495
S1130C50F602D8C080911C0190911D018F3F2FEFA7
S1130C60920779F4E091C203F091C303EE0FFF1FE2
S1130C70E65DFE4F6081718183E592E00E94F60299
S1130C80C1C08230910509F446C02CF4009759F094
S1130C90019729F1AAC08330910509F458C004973B
S1130CA009F47CC0A2C020910E0130910F01409143
S1130CB01001509111010F2EFAE5EF2EF2E0FF2EF4
S1130CC0F02D01E060E170E088EC93E00E94D9002F
S1130CD068EC73E080E692E00E94F60293C02091F3
S1130CE006013091070140910801509109010F2E2E
S1130CF0FAEAEF2EF1E0FF2EF02D01E060E170E062
S1130D0088EC93E00E94D90068EC73E08AE692E0F4
S1130D100E94F60277C020910201309103014091B4
S1130D200401509105010F2EF6EEEF2EF1E0FF2E97
S1130D30F02D01E060E170E088EC93E00E94D900BE
S1130D4068EC73E089E792E00E94F6025BC0809150
S1130D500101882319F086E791E002C08EE791E053
S1130D609F938F9383E791E09F938F931F9280E1EA
S1130D708F9388EC93E09F938F930E94C00C68EC50
S1130D8073E089E892E00E94F6028DB79EB7089658
S1130D900FB6F8949EBF0FBE8DBF34C08091000182
S1130DA0882319F086E791E002C08EE791E09F93D3
S1130DB08F9383E791E09F938F931F9280E18F93AA
S1130DC088EC93E09F938F930E94C00C68EC73E0CF
S1130DD089E992E00E94F6028DB79EB708960FB695
S1130DE0F8949EBF0FBE8DBF0DC067EA72E08EE11E
S1130DF092E00E94F60206C066EB72E08EE192E099
S1130E000E94F6020F91FF90EF9008958130A9F5AA
S1130E108091200190912101019609F49BC2809157
S1130E201E0190911F01019639F08FEF9FEF90936F
S1130E301F0180931E01089580911C0190911D0152
S1130E40019639F08FEF9FEF90931D0180931C0161
S1130E50089580911A0190911B01019639F08FEF4A
S1130E609FEF90931B0180931A0108958FEF9FEFDA
S1130E7090932101809320010895823009F00EC1DE
S1130E8080912001909121018F3F2FEF920771F4FF
S1130E908091C6039091C7038730910508F05AC228
S1130EA001969093C7038093C603089584309105F7
S1130EB071F48091BE039091BF038330910508F0D3
S1130EC049C201969093BF038093BE030895853071
S1130ED0910509F050C080911E0190911F018F3F30
S1130EE02FEF920769F48091C4039091C503009792
S1130EF009F030C201969093C5038093C40308950A
S1130F00009719F00197E1F0089520910E013091B6
S1130F100F014091100150911101609116017091DF
S1130F20170180911801909119010E94630A60933E
S1130F301601709317018093180190931901089575
S1130F4020910E0130910F01409110015091110137
S1130F506091120170911301809114019091150117
S1130F600E94630A60931201709313018093140129
S1130F709093150108958630910571F48091C00312
S1130F809091C103833091050CF0E4C101969093D4
S1130F90C1038093C0030895079709F0DBC18091D2
S1130FA01C0190911D018F3F2FEF920771F48091E6
S1130FB0C2039091C3038430910508F0CBC101961C
S1130FC09093C3038093C20308958230910509F47A
S1130FD044C02CF4009759F0019721F1089583300F
S1130FE0910509F455C0049709F455C0089520915A
S1130FF00A0130910B0140910C0150910D01609157
S11310000E0170910F0180911001909111010E94C5
S1131010630A60930E0170930F0180931001909303
S11310201101089520910E0130910F01409110019A
S1131030509111016091060170910701809108019E
S1131040909109010E94630A60930601709307015D
S11310508093080190930901089520910E01309125
S11310600F014091100150911101609102017091A2
S1131070030180910401909105010E94630A609329
S11310800201709303018093040190930501089574
S1131090109201010895109200010895833009F01F
S11310A011C180912001909121018F3F2FEF920770
S11310B071F48091C6039091C703181619060CF0B9
S11310C049C101979093C7038093C6030895843060
S11310D0910571F48091BE039091BF03181619060F
S11310E00CF038C101979093BF038093BE03089519
S11310F08530910509F051C080911E0190911F0126
S11311008F3F2FEF920771F48091C4039091C50330
S1131110181619060CF01EC101979093C50380930D
S1131120C4030895009719F00197E1F00895209100
S11311300E0130910F014091100150911101609105
S113114016017091170180911801909119010E9464
S1131150640A6093160170931701809318019093A9
S11311601901089520910E0130910F014091100151
S11311705091110160911201709113018091140139
S1131180909115010E94640A6093120170931301F7
S1131190809314019093150108958630910571F49C
S11311A08091C0039091C103181619060CF0D2C0A7
S11311B001979093C1038093C0030895079709F0A2
S11311C0C9C080911C0190911D018F3F2FEF9207A0
S11311D071F48091C2039091C303181619060CF0A0
S11311E0B9C001979093C3038093C20308958230DA
S11311F0910509F444C02CF4009759F0019721F1AA
S113120008958330910509F455C0049709F456C034
S1131210089520910A0130910B0140910C015091E5
S11312200D0160910E0170910F0180911001909158
S113123011010E94640A60930E0170930F01809360
S1131240100190931101089520910E0130910F0126
S113125040911001509111016091060170910701B4
S113126080910801909109010E94640A609306012B
S113127070930701809308019093090108952091C8
S11312800E0130910F0140911001509111016091B4
S113129002017091030180910401909105010E9463
S11312A0640A609302017093030180930401909394
S11312B00501089581E080930101089581E0809300
S11312C000010895843009F045C080912001909177
S11312D021018F3F2FEF920749F48091C60390912B
S11312E0C7039093210180932001089584309105D0
S11312F079F480911A0190911B01019659F580911E
S1131300BE039091BF0390931B0180931A0108952B
S11313108530910579F480911E0190911F01019609
S1131320C9F48091C4039091C50390931F018093E5
S11313301E010895079771F480911C0190911D017D
S1131340019641F48091C2039091C30390931D01CF
S113135080931C0108950E94B2010E9499020E9488
S1131360DD020E9437017AC00E9442018091BE03CF
S11313709091BF0381309105D9F01CF4892B39F089
S113138049C08230910529F10397A1F143C063EC70
S113139072E081EA91E00E94F6020E94C703609322
S11313A0BA037093BB038093BC039093BD0332C014
S11313B063EC72E08FEA91E00E94F6020E94050459
S11313C06093B6037093B7038093B8039093B90303
S11313D021C063EC72E088EF91E00E94F6020E9463
S11313E045046093B2037093B3038093B403909362
S11313F0B50310C063EC72E082E092E00E94F60252
S11314000E9485046093AE037093AF038093B0038E
S11314109093B1030E943E010E9488042FEF83ED54
S113142090E3215080409040E1F700C000000E940A
S1131430E402C82F853091F0813041F48FEF9FEFA3
S11314409093210180932001C5E015C00E940607F6
S11314500E94E4028530E1F701C0C5E080912001DB
S113146090912101049739F480911A0190911B0104
S1131470019609F079CF0E9488048FEF99EF20E05C
S1131480815090402040E1F700C00000C53029F4AD
S11314900E94E402C82F8530D9F38FEF99EF20E042
S11314A0815090402040E1F700C000000E94E40217
S11314B0C813D3CF8C2F0E9406070E94E402853004
S11314C0E1F7C5E0CBCF5058BB27AA270E947B0A7F
S11314D00C94EE0B0E94E00B38F00E94E70B20F016
S11314E039F49F3F19F426F40C94DD0B0EF4E095C7
S11314F0E7FB0C94D70BE92F0E94FF0B58F3BA17A4
S1131500620773078407950720F079F4A6F50C9415
S1131510210C0EF4E0950B2EBA2FA02D0B01B9016E
S113152090010C01CA01A0011124FF27591B99F055
S1131530593F50F4503E68F11A16F040A22F232F61
S1131540342F4427585FF3CF469537952795A795B1
S1131550F0405395C9F77EF41F16BA0B620B730B58
S1131560840BBAF09150A1F0FF0FBB1F661F771FC9
S1131570881FC2F70EC0BA0F621F731F841F48F47E
S1131580879577956795B795F7959E3F08F0B0CF07
S11315909395880F08F09927EE0F979587950895EE
S11315A00E94B30B08F481E008950E94E90A0C94A8
S11315B0EE0B0E94E70B58F00E94E00B40F029F478
S11315C05F3F29F00C94D70B51110C94220C0C940E
S11315D0DD0B0E94FF0B68F39923B1F3552391F3BC
S11315E0951B550BBB27AA2762177307840738F08E
S11315F09F5F5F4F220F331F441FAA1FA9F335D0EB
S11316000E2E3AF0E0E832D091505040E695001C9E
S1131610CAF72BD0FE2F29D0660F771F881FBB1F58
S1131620261737074807AB07B0E809F0BB0B802D36
S1131630BF01FF2793585F4F3AF09E3F510578F062
S11316400C94D70B0C94220C5F3FE4F3983ED4F334
S1131650869577956795B795F7959F5FC9F7880F36
S1131660911D9695879597F90895E1E0660F771F88
S1131670881FBB1F621773078407BA0720F0621B19
S1131680730B840BBA0BEE1F88F7E09508950E9444
S1131690070C88F09F5798F0B92F9927B751B0F0ED
S11316A0E1F0660F771F881F991F1AF0BA95C9F7E2
S11316B014C0B13091F00E94210CB1E008950C9453
S11316C0210C672F782F8827B85F39F0B93FCCF306
S11316D0869577956795B395D9F73EF4909580955F
S11316E0709561957F4F8F4F9F4F0895E89409C07F
S11316F097FB3EF490958095709561957F4F8F4F41
S11317009F4F9923A9F0F92F96E9BB279395F69556
S1131710879577956795B795F111F8CFFAF4BB0FD4
S113172011F460FF1BC06F5F7F4F8F4F9F4F16C038
S1131730882311F096E911C0772321F09EE8872FC2
S1131740762F05C0662371F096E8862F70E060E07E
S11317502AF09A95660F771F881FDAF7880F9695F7
S1131760879597F90895990F0008550FAA0BE0E89B
S1131770FEEF16161706E807F907C0F0121613064F
S1131780E407F50798F0621B730B840B950B39F48F
S11317900A2661F0232B242B252B21F408950A26F5
S11317A009F4A140A6958FEF811D811D089597F935
S11317B09F6780E870E060E008959FEF80EC0895F3
S11317C000240A941616170618060906089500241C
S11317D00A9412161306140605060895092E039496
S11317E0000C11F4882352F0BB0F40F4BF2B11F40A
S11317F060FF04C06F5F7F4F8F4F9F4F089557FD69
S11318009058440F551F59F05F3F71F04795880F6A
S113181097FB991F61F09F3F79F087950895121601
S113182013061406551FF2CF4695F1DF08C01616AD
S113183017061806991FF1CF86957105610508945E
S11318400895E894BB2766277727CB0197F9089575
S11318500E94B30B08F48FEF08950E94400C0C947F
S1131860EE0B0E94E00B38F00E94E70B20F095236A
S113187011F00C94D70B0C94DD0B11240C94220C56
S11318800E94FF0B70F3959FC1F3950F50E0551F15
S1131890629FF001729FBB27F00DB11D639FAA27C1
S11318A0F00DB11DAA1F649F6627B00DA11D661F10
S11318B0829F2227B00DA11D621F739FB00DA11D31
S11318C0621F839FA00D611D221F749F3327A00DEB
S11318D0611D231F849F600D211D822F762F6A2F87
S11318E011249F5750409AF0F1F088234AF0EE0FEC
S11318F0FF1FBB1F661F771F881F91505040A9F719
S11319009E3F510580F00C94D70B0C94220C5F3F42
S1131910E4F3983ED4F3869577956795B795F79554
S1131920E7959F5FC1F7FE2B880F911D96958795CC
S113193097F90895EE0FFF1F0590F491E02D099497
S1131940EF920F931F93CF93DF93E80147FD02C0FB
S113195034E001C034E1042E000C550B57FF03C0E2
S1131960519541955109E32E022F242FAE010E9477
S1131970D10ECE01DF91CF911F910F91EF90089579
S1131980AEE0B0E0E6ECFCE00C94C1110D891E89D8
S11319908F89988D26E02C831A83098397FF02C0D0
S11319A080E090E801979E838D83AE01455E5F4F92
S11319B0698D7A8DCE0101960E94F00C4D815E8175
S11319C057FD0AC02F813885421753070CF49A013A
S11319D0F801E20FF31F10822E96E4E00C94DD115F
S11319E0ABE0B0E0E6EFFCE00C94B3116C017B01DA
S11319F08A01FC0117821682838181FFCCC1CE014A
S1131A0001963C01F6019381F70193FD859193FFC3
S1131A1081917F01882309F4BAC1853239F493FD99
S1131A20859193FF81917F01853229F4B60190E07D
S1131A300E941911E7CF912C212C312CFFE1F315D1
S1131A40D8F08B3279F038F4803279F08332A1F413
S1131A50232D20611DC08D3261F0803369F4232D64
S1131A60216016C0832D8260382EE32DE4603E2E63
S1131A702AC0F32DF8601DC037FC2DC020ED280FBF
S1131A802A3040F08E32B9F436FC81C1232D206413
S1131A90322E19C036FE06C08AE0989E200D11240D
S1131AA0922E11C0EAE02E9E200D1124222EF32D39
S1131AB0F0623F2E08C08C3621F4832D8068382EC6
S1131AC002C0883641F4F70193FD859193FF81911B
S1131AD07F018111B3CF982F9F7D9554933028F4C3
S1131AE00C5F1F4F9FE399830DC0833631F083371A
S1131AF071F0833509F059C021C0F80180818983D0
S1131B000E5F1F4F88248394912C530113C0280126
S1131B10F2E04F0E511CF801A080B18036FE03C0E4
S1131B20692D70E002C06FEF7FEFC5010E940E11B6
S1131B304C018201F32DFF773F2E16C0280122E0CD
S1131B40420E511CF801A080B18036FE03C0692DFD
S1131B5070E002C06FEF7FEFC5010E9403114C01DA
S1131B60F32DF0683F2E820133FC1BC0822D90E0E0
S1131B7088169906B0F4B60180E290E00E9419112B
S1131B802A94F4CFF50137FC859137FE81915F01EA
S1131B90B60190E00E94191121102A9421E0821AC2
S1131BA091088114910471F7E8C0843611F08936E4
S1131BB041F5F80137FE07C060817181828193810C
S1131BC00C5F1F4F08C060817181072E000C880BC9
S1131BD0990B0E5F1F4FF32DFF763F2E97FF09C021
S1131BE090958095709561957F4F8F4F9F4FF068CA
S1131BF03F2E2AE030E0A3010E945511882E86185A
S1131C0045C0853731F4232D2F7EB22E2AE030E0F3
S1131C1025C0932D997FB92E8F36C1F018F48835DD
S1131C2079F0B5C0803719F0883721F0B0C0E92FBA
S1131C30E061BE2EB4FE0DC0FB2DF460BF2E09C0C2
S1131C4034FE0AC0292F2660B22E06C028E030E0F8
S1131C5005C020E130E002C020E132E0F801B7FE27
S1131C6007C060817181828193810C5F1F4F06C020
S1131C706081718180E090E00E5F1F4FA3010E949C
S1131C805511882E8618FB2DFF773F2E36FE0DC08A
S1131C90232D2E7FA22E891458F434FE0BC032FC5F
S1131CA009C0832D8E7EA82E05C0B82CA32C03C09A
S1131CB0B82C01C0B92CA4FE0FC0FE01E80DF11D23
S1131CC08081803321F49A2D997EA92E09C0A2FE29
S1131CD006C0B394B39404C08A2D867809F0B394F3
S1131CE0A3FC11C0A0FE06C0B21488F4280C922CE8
S1131CF09B180EC0B21460F4B60180E290E00E941A
S1131D001911B394F7CFB21418F42B1802C0982CFD
S1131D10212CA4FE10C0B60180E390E00E941911AA
S1131D20A2FE17C0A1FC03C088E790E002C088E5CA
S1131D3090E0B6010CC08A2D867859F0A1FE02C04D
S1131D408BE201C080E2A7FC8DE2B60190E00E9424
S1131D501911891438F4B60180E390E00E94191136
S1131D609A94F7CF8A94F301E80DF11D8081B601AE
S1131D7090E00E9419118110F5CF222009F442CE7F
S1131D80B60180E290E00E9419112A94F6CFF60180
S1131D908681978102C08FEF9FEF2B96E2E10C942E
S1131DA0CF11A9E0B0E0E7EDFEE00C94B9116A01AF
S1131DB0122FB02E2BE3201720F0FF24F394F00E03
S1131DC002C02CE3F22E0F2D27E0AE014F5F5F4FD0
S1131DD00E942B10BC014981842F8970813031F01D
S1131DE0E1FC06C0E0FE06C090E205C09DE203C02F
S1131DF09BE201C090E05E2D507143FF3CC0911105
S1131E0002C083E001C084E0811718F4212F281B4D
S1131E1001C020E051110BC0F601822F30E288236B
S1131E2019F031938150FBCFC20ED11C20E09923CD
S1131E3029F0D6019C93F60131966F01C6010396F1
S1131E40E2FE0AC03EE4D6013C9341E411964C9371
S1131E50119712963C9306C03EE6F601308341E6A4
S1131E6041833283FC01322F40E2332309F442C020
S1131E7041933150FACF42FF44C0911102C083E034
S1131E8001C084E0811718F4212F281B01C020E031
S1131E9051110BC0F601822F30E2882319F03193DF
S1131EA08150FBCFC20ED11C20E0992329F0D6012A
S1131EB09C93F60131966F01C6010396E2FE0BC0B6
S1131EC039E4D6013C933EE411963C93119736E4F1
S1131ED012963C9307C039E6F60130833EE631831F
S1131EE036E63283FC01322F40E2332319F041936A
S1131EF03150FBCFFC01E20FF11D10828EEF9FEFFA
S1131F00A6C021E030E0911102C020E030E01616B6
S1131F1017061CF4FB01319602C0E1E0F0E02E0F3D
S1131F203F1FBB2021F0EB2DF0E0319602C0E0E032
S1131F30F0E02E0F3F1FE12FF0E02E173F071CF4B7
S1131F40121B212F01C020E08E2D887159F4F60157
S1131F50822F30E2882319F031938150FBCFC20ED7
S1131F60D11C20E0992329F0D6019C93F6013196E7
S1131F706F0151110BC0F601822F90E3882319F0F1
S1131F8091938150FBCFC20ED11C20E00F2D060F80
S1131F909A81342F307144FF03C0913309F4015006
S1131FA0101624F4093018F008E001C001E0AB0178
S1131FB077FF02C040E050E0FB01E41BF50BA1E019
S1131FC0B0E0AC0FBD1FEA0FFB1F8EE2A82E4B0141
S1131FD0801A91080B2D10E01195019511094F3FBE
S1131FE0BFEF5B0721F4D601AC9211966D01641723
S1131FF075072CF08416950614F4818101C080E3E2
S1132000415051093196D60111967D01401751076F
S113201024F0D6018C936701E2CF6417750739F475
S1132020963320F4953319F4311101C081E3F6019C
S11320308083F701822F90E2882319F091938150D5
S1132040FBCFF701E20FF11D108280E090E02996AA
S1132050ECE00C94D511283008F027E03327DA019E
S1132060990F311D87FD916000966105710539F462
S113207032602E5F3D9330E32A95E1F708959F3F48
S113208030F080387105610509F03C5F3C5F3D9399
S1132090913008F08068911DDF93CF931F930F93C5
S11320A0FF92EF92192F987F9695E92F9695969522
S11320B0E90FFF27EC52FF4F99273327EE24FF2423
S11320C0A701E70105900894079428F4360FE71E4A
S11320D0F81E491F511D660F771F881F991F06940C
S11320E0A1F70590079428F4E70EF81E491F561F20
S11320F0C11D770F881F991F661F0694A1F70590CD
S1132100079428F4F80E491F561FC71FD11D880FC6
S1132110991F661F771F0694A1F70590079420F472
S1132120490F561FC71FD81F990F661F771F881F97
S11321300694A9F784911095177041F0D695C79528
S113214057954795F794E7941A95C1F7EAE7F0E0B5
S113215068941590159135916591959105907FE25C
S11321607395E118F10A430B560BC90BD009C0F75C
S1132170E10CF11E431F561FC91FD01D7EF470339E
S113218011F48A95E6CFE894015030F0080F0AF470
S11321900027021708F4202F2395022F7A3328F002
S11321A079E37D932A95E9F710C07D932A9589F602
S11321B0069497956795379517951794E118F10A42
S11321C0430B560BC90BD00998F023957E91739558
S11321D07A3308F070E37C932013B8F77E91706132
S11321E07D9330F0839571E37D9370E32A95E1F755
S11321F01124EF90FF900F911F91CF91DF919927B8
S113220087FD90950895FC01059061507040011080
S1132210D8F7809590958E0F9F1F0895FC0161500B
S1132220704001900110D8F7809590958E0F9F1FF4
S113223008950F931F93CF93DF93FB01238121FD17
S113224003C08FEF9FEF2CC022FF16C04681578139
S1132250248135814217530744F4A081B1819D0143
S11322602F5F3F4F318320838C93268137812F5FEB
S11322703F4F3783268314C08B01EC01FB0100849C
S1132280F185E02D0995892BE1F6D80116968D91FB
S11322909C911797019617969C938E931697CE014F
S11322A0DF91CF911F910F910895FA01AA27283049
S11322B051F1203181F1E8946F936E7F6E5F7F4F0F
S11322C08F4F9F4FAF4FB1E03ED0B4E03CD0670F8B
S11322D0781F891F9A1FA11D680F791F8A1F911DDE
S11322E0A11D6A0F711D811D911DA11D20D009F42E
S11322F068943F912AE0269F11243019305D319370
S1132300DEF6CF010895462F4770405D4193B3E058
S11323100FD0C9F7F6CF462F4F70405D4A3318F0FF
S1132320495D31FD4052419302D0A9F7EACFB4E0B0
S1132330A6959795879577956795BA95C9F7009768
S11323406105710508959B01AC010A2E0694579509
S1132350479537952795BA95C9F7620F731F841F60
S1132360951FA01D08952F923F924F925F926F92F6
S11323707F928F929F92AF92BF92CF92DF92EF9211
S1132380FF920F931F93CF93DF93CDB7DEB7CA1B92
S1132390DB0B0FB6F894DEBF0FBECDBF09942A88BD
S11323A0398848885F846E847D848C849B84AA8465
S11323B0B984C884DF80EE80FD800C811B81AA81F2
S11323C0B981CE0FD11D0FB6F894DEBF0FBECDBFBD
S10B23D0ED010895F894FFCF1C
S11323D801010000C0410000A0410000803E00004F
S11323E8003F0000E4410000803FFFFFFFFFFFFFC4
S11323F8FFFFCF02CF02CF02CF02DA02E402F602D5
S11324080903190324023102270330033C0346035A
S113241850035E036D037A038B0395039E03A7039E
S1132428000404041F0E040000040E1F0404040026
S11324380004061F0604000000040C1F0C0400001E
S1132448257320257300456E61626C6564004469D8
S11324587361626C6564004D41494E204D454E558B
S1132468004C6F6164696E672E2E2E0054414E4BEA
S1132478204341504143495459004C7472730052EB
S11324884546494C4C2052415445004C74727320C3
S1132498706572206D696E004C45414B414745207B
S11324A85241544500534F494C2054454D504552D0
S11324B841545552450064656772656573004C491B
S11324C856452056494557004C45414B20524154E6
S11324D84500534F494C2054454D5000496E766190
S11324E86C6964206C697665207669657700455265
S11324F8524F52004D494E2043415041434954598B
S1132508004D41582054454D5000496E76616C6920
S1132518642074726967676572004D455353414777
S1132528455300434F4E46494700556E697473003E
S1132538535445502053495A450050554D50205442
S113254848524553484F4C44005350524159205423
S113255848524553484F4C4400454E41424C45204F
S1132568545249474745525300454E41424C452031
S1132578414C4552545300496E76616C696420633A
S11325886F6E66696700496E76616C6964206D6573
S11325986E75005570646174696E672E2E2E004E38
S11325A86F206D657373616765005374657020737C
S11325B8697A650050756D70696E67207468726514
S11325C873686F6C64005370726179696E67207404
S11325D868726573686F6C6400456E61626C65202F
S11325E8747269676765727300456E61626C652011
S11325F8616C657274730043617061636974790016
S1132608526566696C6C2052617465004C65616B37
S1132618205261746500536F696C2054656D7000B5
S113262854616E6B206361706163697479005265EB
S113263866696C6C696E672072617465004C6561CB
S11326486B616765207261746500536F696C2074EF
S1132658656D7065726174757265004C6976652084
S113266856696577005472696767657273004D65CA
S111267873736167657300436F6E6669670074
S9030000FC
